{
  "contractName": "Artonomous",
  "abi": [
    {
      "constant": true,
      "inputs": [],
      "name": "artonomousStaking",
      "outputs": [
        {
          "name": "",
          "type": "address"
        }
      ],
      "payable": false,
      "stateMutability": "view",
      "type": "function"
    },
    {
      "constant": true,
      "inputs": [],
      "name": "beneficiary",
      "outputs": [
        {
          "name": "",
          "type": "address"
        }
      ],
      "payable": false,
      "stateMutability": "view",
      "type": "function"
    },
    {
      "constant": true,
      "inputs": [],
      "name": "currentAuction",
      "outputs": [
        {
          "name": "blockNumber",
          "type": "uint256"
        },
        {
          "name": "endTime",
          "type": "uint256"
        },
        {
          "name": "startingPrice",
          "type": "uint256"
        }
      ],
      "payable": false,
      "stateMutability": "view",
      "type": "function"
    },
    {
      "constant": true,
      "inputs": [],
      "name": "pieceToken",
      "outputs": [
        {
          "name": "",
          "type": "address"
        }
      ],
      "payable": false,
      "stateMutability": "view",
      "type": "function"
    },
    {
      "constant": true,
      "inputs": [],
      "name": "AUCTION_LENGTH",
      "outputs": [
        {
          "name": "",
          "type": "uint256"
        }
      ],
      "payable": false,
      "stateMutability": "view",
      "type": "function"
    },
    {
      "inputs": [
        {
          "name": "stakingAddr",
          "type": "address"
        },
        {
          "name": "beneficiaryAddr",
          "type": "address"
        }
      ],
      "payable": false,
      "stateMutability": "nonpayable",
      "type": "constructor"
    },
    {
      "anonymous": false,
      "inputs": [
        {
          "indexed": true,
          "name": "blockNumber",
          "type": "uint256"
        },
        {
          "indexed": false,
          "name": "generatorHashUsed",
          "type": "string"
        }
      ],
      "name": "ArtonomousAuctionStarted",
      "type": "event"
    },
    {
      "anonymous": false,
      "inputs": [
        {
          "indexed": true,
          "name": "buyer",
          "type": "address"
        },
        {
          "indexed": true,
          "name": "blockNumber",
          "type": "uint256"
        },
        {
          "indexed": false,
          "name": "price",
          "type": "uint256"
        }
      ],
      "name": "ArtonomousArtBought",
      "type": "event"
    },
    {
      "anonymous": false,
      "inputs": [
        {
          "indexed": true,
          "name": "claimant",
          "type": "address"
        },
        {
          "indexed": true,
          "name": "blockNumber",
          "type": "uint256"
        }
      ],
      "name": "ArtonomousArtClaimed",
      "type": "event"
    },
    {
      "constant": false,
      "inputs": [],
      "name": "buyArt",
      "outputs": [],
      "payable": true,
      "stateMutability": "payable",
      "type": "function"
    },
    {
      "constant": false,
      "inputs": [],
      "name": "claimArt",
      "outputs": [],
      "payable": false,
      "stateMutability": "nonpayable",
      "type": "function"
    }
  ],
  "bytecode": "0x6080604052620151806003553480156200001857600080fd5b506040516040806200352b8339810180604052810190808051906020019092919080519060200190929190505050816000806101000a81548173ffffffffffffffffffffffffffffffffffffffff021916908373ffffffffffffffffffffffffffffffffffffffff1602179055506200009062000554565b808060200180602001838103835260108152602001807f6172746f6e6f6d6f75732d746f6b656e00000000000000000000000000000000815250602001838103825260048152602001807f4152544f0000000000000000000000000000000000000000000000000000000081525060200192505050604051809103906000f08015801562000122573d6000803e3d6000fd5b50600160006101000a81548173ffffffffffffffffffffffffffffffffffffffff021916908373ffffffffffffffffffffffffffffffffffffffff16021790555080600260006101000a81548173ffffffffffffffffffffffffffffffffffffffff021916908373ffffffffffffffffffffffffffffffffffffffff160217905550620001bd620001c5640100000000026401000000009004565b505062000565565b60606000600460000154141515620001dc57600080fd5b6000809054906101000a900473ffffffffffffffffffffffffffffffffffffffff1673ffffffffffffffffffffffffffffffffffffffff1663c2f05dc26040518163ffffffff167c0100000000000000000000000000000000000000000000000000000000028152600401600060405180830381600087803b1580156200026257600080fd5b505af115801562000277573d6000803e3d6000fd5b505050506040513d6000823e3d601f19601f820116820180604052506020811015620002a257600080fd5b810190808051640100000000811115620002bb57600080fd5b82810190506020810184811115620002d257600080fd5b8151856001820283011164010000000082111715620002f057600080fd5b50509291905050509050600160009054906101000a900473ffffffffffffffffffffffffffffffffffffffff1673ffffffffffffffffffffffffffffffffffffffff1663d3fc98643043846040518463ffffffff167c0100000000000000000000000000000000000000000000000000000000028152600401808473ffffffffffffffffffffffffffffffffffffffff1673ffffffffffffffffffffffffffffffffffffffff16815260200183815260200180602001828103825283818151815260200191508051906020019080838360005b83811015620003e0578082015181840152602081019050620003c3565b50505050905090810190601f1680156200040e5780820380516001836020036101000a031916815260200191505b50945050505050600060405180830381600087803b1580156200043057600080fd5b505af115801562000445573d6000803e3d6000fd5b50505050606060405190810160405280438152602001600354420181526020016200047e62000547640100000000026401000000009004565b8152506004600082015181600001556020820151816001015560408201518160020155905050437f421d5f21a68ededa288fdc8ab5a927b3aebac738c86c9c9699a51ccd706c437c826040518080602001828103825283818151815260200191508051906020019080838360005b8381101562000509578082015181840152602081019050620004ec565b50505050905090810190601f168015620005375780820380516001836020036101000a031916815260200191505b509250505060405180910390a250565b600064e8d4a51000905090565b6040516125398062000ff283390190565b610a7d80620005756000396000f300608060405260043610610083576000357c0100000000000000000000000000000000000000000000000000000000900463ffffffff1680630367968c1461008857806338af3eed146100df578063496a698d146101365780634e9e136d1461016f57806355d4169214610179578063635af9ad146101d0578063d92f20f4146101fb575b600080fd5b34801561009457600080fd5b5061009d610212565b604051808273ffffffffffffffffffffffffffffffffffffffff1673ffffffffffffffffffffffffffffffffffffffff16815260200191505060405180910390f35b3480156100eb57600080fd5b506100f4610237565b604051808273ffffffffffffffffffffffffffffffffffffffff1673ffffffffffffffffffffffffffffffffffffffff16815260200191505060405180910390f35b34801561014257600080fd5b5061014b61025d565b60405180848152602001838152602001828152602001935050505060405180910390f35b610177610275565b005b34801561018557600080fd5b5061018e610502565b604051808273ffffffffffffffffffffffffffffffffffffffff1673ffffffffffffffffffffffffffffffffffffffff16815260200191505060405180910390f35b3480156101dc57600080fd5b506101e5610528565b6040518082815260200191505060405180910390f35b34801561020757600080fd5b5061021061052e565b005b6000809054906101000a900473ffffffffffffffffffffffffffffffffffffffff1681565b600260009054906101000a900473ffffffffffffffffffffffffffffffffffffffff1681565b60048060000154908060010154908060020154905083565b6000806000600460000154925060008311151561029157600080fd5b426004600101541115156102a457600080fd5b6102b26004600201546106d8565b91508134101515156102c357600080fd5b600160009054906101000a900473ffffffffffffffffffffffffffffffffffffffff1673ffffffffffffffffffffffffffffffffffffffff166323b872dd3033866040518463ffffffff167c0100000000000000000000000000000000000000000000000000000000028152600401808473ffffffffffffffffffffffffffffffffffffffff1673ffffffffffffffffffffffffffffffffffffffff1681526020018373ffffffffffffffffffffffffffffffffffffffff1673ffffffffffffffffffffffffffffffffffffffff1681526020018281526020019350505050600060405180830381600087803b1580156103bc57600080fd5b505af11580156103d0573d6000803e3d6000fd5b50505050600460008082016000905560018201600090556002820160009055505081340390503373ffffffffffffffffffffffffffffffffffffffff166108fc829081150290604051600060405180830381858888f1935050505015801561043c573d6000803e3d6000fd5b50600260009054906101000a900473ffffffffffffffffffffffffffffffffffffffff1673ffffffffffffffffffffffffffffffffffffffff166108fc839081150290604051600060405180830381858888f193505050501580156104a5573d6000803e3d6000fd5b50823373ffffffffffffffffffffffffffffffffffffffff167f682553da668235675371295b1cda200992ebe5c26835d6f26b9658340f3b5f18846040518082815260200191505060405180910390a36104fd6106e2565b505050565b600160009054906101000a900473ffffffffffffffffffffffffffffffffffffffff1681565b60035481565b6000600460000154905060008111151561054757600080fd5b426004600101541115151561055b57600080fd5b600160009054906101000a900473ffffffffffffffffffffffffffffffffffffffff1673ffffffffffffffffffffffffffffffffffffffff166323b872dd3033846040518463ffffffff167c0100000000000000000000000000000000000000000000000000000000028152600401808473ffffffffffffffffffffffffffffffffffffffff1673ffffffffffffffffffffffffffffffffffffffff1681526020018373ffffffffffffffffffffffffffffffffffffffff1673ffffffffffffffffffffffffffffffffffffffff1681526020018281526020019350505050600060405180830381600087803b15801561065457600080fd5b505af1158015610668573d6000803e3d6000fd5b505050506004600080820160009055600182016000905560028201600090555050803373ffffffffffffffffffffffffffffffffffffffff167ff567a0a57233e406978940ccd12ded9982296245a1dcaeff95e906cd2988fb5c60405160405180910390a36106d56106e2565b50565b6000819050919050565b606060006004600001541415156106f857600080fd5b6000809054906101000a900473ffffffffffffffffffffffffffffffffffffffff1673ffffffffffffffffffffffffffffffffffffffff1663c2f05dc26040518163ffffffff167c0100000000000000000000000000000000000000000000000000000000028152600401600060405180830381600087803b15801561077d57600080fd5b505af1158015610791573d6000803e3d6000fd5b505050506040513d6000823e3d601f19601f8201168201806040525060208110156107bb57600080fd5b8101908080516401000000008111156107d357600080fd5b828101905060208101848111156107e957600080fd5b815185600182028301116401000000008211171561080657600080fd5b50509291905050509050600160009054906101000a900473ffffffffffffffffffffffffffffffffffffffff1673ffffffffffffffffffffffffffffffffffffffff1663d3fc98643043846040518463ffffffff167c0100000000000000000000000000000000000000000000000000000000028152600401808473ffffffffffffffffffffffffffffffffffffffff1673ffffffffffffffffffffffffffffffffffffffff16815260200183815260200180602001828103825283818151815260200191508051906020019080838360005b838110156108f45780820151818401526020810190506108d9565b50505050905090810190601f1680156109215780820380516001836020036101000a031916815260200191505b50945050505050600060405180830381600087803b15801561094257600080fd5b505af1158015610956573d6000803e3d6000fd5b505050506060604051908101604052804381526020016003544201815260200161097e610a44565b8152506004600082015181600001556020820151816001015560408201518160020155905050437f421d5f21a68ededa288fdc8ab5a927b3aebac738c86c9c9699a51ccd706c437c826040518080602001828103825283818151815260200191508051906020019080838360005b83811015610a075780820151818401526020810190506109ec565b50505050905090810190601f168015610a345780820380516001836020036101000a031916815260200191505b509250505060405180910390a250565b600064e8d4a510009050905600a165627a7a723058204fa64312223f922d596b4a9650c35dc667cd0e6d621bb7dbfc8f5d92c054aca2002960806040523480156200001157600080fd5b5060405162002539380380620025398339810180604052810190808051820192919060200180518201929190505050818181600490805190602001906200005a929190620000bf565b50806005908051906020019062000073929190620000bf565b50505033600b60006101000a81548173ffffffffffffffffffffffffffffffffffffffff021916908373ffffffffffffffffffffffffffffffffffffffff16021790555050506200016e565b828054600181600116156101000203166002900490600052602060002090601f016020900481019282601f106200010257805160ff191683800117855562000133565b8280016001018555821562000133579182015b828111156200013257825182559160200191906001019062000115565b5b50905062000142919062000146565b5090565b6200016b91905b80821115620001675760008160009055506001016200014d565b5090565b90565b6123bb806200017e6000396000f300608060405260043610610133576000357c0100000000000000000000000000000000000000000000000000000000900463ffffffff16806306fdde0314610138578063081812fc146101c8578063095ea7b31461023557806318160ddd146102825780631fad9b63146102ad57806323b872dd146103535780632f745c59146103c057806342842e0e146104215780634f558e791461048e5780634f6ccce7146104d35780635c60da1b146105145780636352211e1461056b57806370a08231146105d8578063715018a61461062f5780638da5cb5b1461064657806395d89b411461069d578063a22cb4651461072d578063b88d4fde1461077c578063c87b56dd1461082f578063d3fc9864146108d5578063e985e9c514610968578063ed892aae146109e3578063f2fde38b14610a26575b600080fd5b34801561014457600080fd5b5061014d610a69565b6040518080602001828103825283818151815260200191508051906020019080838360005b8381101561018d578082015181840152602081019050610172565b50505050905090810190601f1680156101ba5780820380516001836020036101000a031916815260200191505b509250505060405180910390f35b3480156101d457600080fd5b506101f360048036038101908080359060200190929190505050610b0b565b604051808273ffffffffffffffffffffffffffffffffffffffff1673ffffffffffffffffffffffffffffffffffffffff16815260200191505060405180910390f35b34801561024157600080fd5b50610280600480360381019080803573ffffffffffffffffffffffffffffffffffffffff16906020019092919080359060200190929190505050610b48565b005b34801561028e57600080fd5b50610297610d0e565b6040518082815260200191505060405180910390f35b3480156102b957600080fd5b506102d860048036038101908080359060200190929190505050610d1b565b6040518080602001828103825283818151815260200191508051906020019080838360005b838110156103185780820151818401526020810190506102fd565b50505050905090810190601f1680156103455780820380516001836020036101000a031916815260200191505b509250505060405180910390f35b34801561035f57600080fd5b506103be600480360381019080803573ffffffffffffffffffffffffffffffffffffffff169060200190929190803573ffffffffffffffffffffffffffffffffffffffff16906020019092919080359060200190929190505050610dcb565b005b3480156103cc57600080fd5b5061040b600480360381019080803573ffffffffffffffffffffffffffffffffffffffff16906020019092919080359060200190929190505050610ee2565b6040518082815260200191505060405180910390f35b34801561042d57600080fd5b5061048c600480360381019080803573ffffffffffffffffffffffffffffffffffffffff169060200190929190803573ffffffffffffffffffffffffffffffffffffffff16906020019092919080359060200190929190505050610f59565b005b34801561049a57600080fd5b506104b960048036038101908080359060200190929190505050610f91565b604051808215151515815260200191505060405180910390f35b3480156104df57600080fd5b506104fe60048036038101908080359060200190929190505050611002565b6040518082815260200191505060405180910390f35b34801561052057600080fd5b5061052961103a565b604051808273ffffffffffffffffffffffffffffffffffffffff1673ffffffffffffffffffffffffffffffffffffffff16815260200191505060405180910390f35b34801561057757600080fd5b5061059660048036038101908080359060200190929190505050611064565b604051808273ffffffffffffffffffffffffffffffffffffffff1673ffffffffffffffffffffffffffffffffffffffff16815260200191505060405180910390f35b3480156105e457600080fd5b50610619600480360381019080803573ffffffffffffffffffffffffffffffffffffffff1690602001909291905050506110e1565b6040518082815260200191505060405180910390f35b34801561063b57600080fd5b50610644611165565b005b34801561065257600080fd5b5061065b61126a565b604051808273ffffffffffffffffffffffffffffffffffffffff1673ffffffffffffffffffffffffffffffffffffffff16815260200191505060405180910390f35b3480156106a957600080fd5b506106b2611290565b6040518080602001828103825283818151815260200191508051906020019080838360005b838110156106f25780820151818401526020810190506106d7565b50505050905090810190601f16801561071f5780820380516001836020036101000a031916815260200191505b509250505060405180910390f35b34801561073957600080fd5b5061077a600480360381019080803573ffffffffffffffffffffffffffffffffffffffff169060200190929190803515159060200190929190505050611332565b005b34801561078857600080fd5b5061082d600480360381019080803573ffffffffffffffffffffffffffffffffffffffff169060200190929190803573ffffffffffffffffffffffffffffffffffffffff16906020019092919080359060200190929190803590602001908201803590602001908080601f016020809104026020016040519081016040528093929190818152602001838380828437820191505050505050919291929050505061146e565b005b34801561083b57600080fd5b5061085a600480360381019080803590602001909291905050506114ad565b6040518080602001828103825283818151815260200191508051906020019080838360005b8381101561089a57808201518184015260208101905061087f565b50505050905090810190601f1680156108c75780820380516001836020036101000a031916815260200191505b509250505060405180910390f35b3480156108e157600080fd5b50610966600480360381019080803573ffffffffffffffffffffffffffffffffffffffff16906020019092919080359060200190929190803590602001908201803590602001908080601f0160208091040260200160405190810160405280939291908181526020018383808284378201915050505050509192919290505050611519565b005b34801561097457600080fd5b506109c9600480360381019080803573ffffffffffffffffffffffffffffffffffffffff169060200190929190803573ffffffffffffffffffffffffffffffffffffffff169060200190929190505050611550565b604051808215151515815260200191505060405180910390f35b3480156109ef57600080fd5b50610a24600480360381019080803573ffffffffffffffffffffffffffffffffffffffff1690602001909291905050506115e4565b005b348015610a3257600080fd5b50610a67600480360381019080803573ffffffffffffffffffffffffffffffffffffffff1690602001909291905050506116aa565b005b606060048054600181600116156101000203166002900480601f016020809104026020016040519081016040528092919081815260200182805460018160011615610100020316600290048015610b015780601f10610ad657610100808354040283529160200191610b01565b820191906000526020600020905b815481529060010190602001808311610ae457829003601f168201915b5050505050905090565b60006001600083815260200190815260200160002060009054906101000a900473ffffffffffffffffffffffffffffffffffffffff169050919050565b6000610b5382611064565b90508073ffffffffffffffffffffffffffffffffffffffff168373ffffffffffffffffffffffffffffffffffffffff1614151515610b9057600080fd5b8073ffffffffffffffffffffffffffffffffffffffff163373ffffffffffffffffffffffffffffffffffffffff161480610bd05750610bcf8133611550565b5b1515610bdb57600080fd5b600073ffffffffffffffffffffffffffffffffffffffff16610bfc83610b0b565b73ffffffffffffffffffffffffffffffffffffffff16141580610c4c5750600073ffffffffffffffffffffffffffffffffffffffff168373ffffffffffffffffffffffffffffffffffffffff1614155b15610d0957826001600084815260200190815260200160002060006101000a81548173ffffffffffffffffffffffffffffffffffffffff021916908373ffffffffffffffffffffffffffffffffffffffff1602179055508273ffffffffffffffffffffffffffffffffffffffff168173ffffffffffffffffffffffffffffffffffffffff167f8c5be1e5ebec7d5bd14f71427d1e84f3dd0314c0f7b2291e5b200ac8c7c3b925846040518082815260200191505060405180910390a35b505050565b6000600880549050905090565b600d6020528060005260406000206000915090508054600181600116156101000203166002900480601f016020809104026020016040519081016040528092919081815260200182805460018160011615610100020316600290048015610dc35780601f10610d9857610100808354040283529160200191610dc3565b820191906000526020600020905b815481529060010190602001808311610da657829003601f168201915b505050505081565b80610dd63382611712565b1515610de157600080fd5b600073ffffffffffffffffffffffffffffffffffffffff168473ffffffffffffffffffffffffffffffffffffffff1614151515610e1d57600080fd5b600073ffffffffffffffffffffffffffffffffffffffff168373ffffffffffffffffffffffffffffffffffffffff1614151515610e5957600080fd5b610e6384836117a7565b610e6d8483611910565b610e778383611b28565b8273ffffffffffffffffffffffffffffffffffffffff168473ffffffffffffffffffffffffffffffffffffffff167fddf252ad1be2c89b69c2b068fc378daa952ba7f163c4a11628f55a4df523b3ef846040518082815260200191505060405180910390a350505050565b6000610eed836110e1565b82101515610efa57600080fd5b600660008473ffffffffffffffffffffffffffffffffffffffff1673ffffffffffffffffffffffffffffffffffffffff16815260200190815260200160002082815481101515610f4657fe5b9060005260206000200154905092915050565b80610f643382611712565b1515610f6f57600080fd5b610f8b848484602060405190810160405280600081525061146e565b50505050565b60008060008084815260200190815260200160002060009054906101000a900473ffffffffffffffffffffffffffffffffffffffff169050600073ffffffffffffffffffffffffffffffffffffffff168173ffffffffffffffffffffffffffffffffffffffff161415915050919050565b600061100c610d0e565b8210151561101957600080fd5b60088281548110151561102857fe5b90600052602060002001549050919050565b6000600c60009054906101000a900473ffffffffffffffffffffffffffffffffffffffff16905090565b60008060008084815260200190815260200160002060009054906101000a900473ffffffffffffffffffffffffffffffffffffffff169050600073ffffffffffffffffffffffffffffffffffffffff168173ffffffffffffffffffffffffffffffffffffffff16141515156110d857600080fd5b80915050919050565b60008073ffffffffffffffffffffffffffffffffffffffff168273ffffffffffffffffffffffffffffffffffffffff161415151561111e57600080fd5b600260008373ffffffffffffffffffffffffffffffffffffffff1673ffffffffffffffffffffffffffffffffffffffff168152602001908152602001600020549050919050565b600b60009054906101000a900473ffffffffffffffffffffffffffffffffffffffff1673ffffffffffffffffffffffffffffffffffffffff163373ffffffffffffffffffffffffffffffffffffffff161415156111c157600080fd5b600b60009054906101000a900473ffffffffffffffffffffffffffffffffffffffff1673ffffffffffffffffffffffffffffffffffffffff167ff8df31144d9c2f0f6b59d69b8b98abd5459d07f2742c4df920b25aae33c6482060405160405180910390a26000600b60006101000a81548173ffffffffffffffffffffffffffffffffffffffff021916908373ffffffffffffffffffffffffffffffffffffffff160217905550565b600b60009054906101000a900473ffffffffffffffffffffffffffffffffffffffff1681565b606060058054600181600116156101000203166002900480601f0160208091040260200160405190810160405280929190818152602001828054600181600116156101000203166002900480156113285780601f106112fd57610100808354040283529160200191611328565b820191906000526020600020905b81548152906001019060200180831161130b57829003601f168201915b5050505050905090565b3373ffffffffffffffffffffffffffffffffffffffff168273ffffffffffffffffffffffffffffffffffffffff161415151561136d57600080fd5b80600360003373ffffffffffffffffffffffffffffffffffffffff1673ffffffffffffffffffffffffffffffffffffffff16815260200190815260200160002060008473ffffffffffffffffffffffffffffffffffffffff1673ffffffffffffffffffffffffffffffffffffffff16815260200190815260200160002060006101000a81548160ff0219169083151502179055508173ffffffffffffffffffffffffffffffffffffffff163373ffffffffffffffffffffffffffffffffffffffff167f17307eab39ab6107e8899845ad3d59bd9653f200f220920489ca2b5937696c3183604051808215151515815260200191505060405180910390a35050565b816114793382611712565b151561148457600080fd5b61148f858585610dcb565b61149b85858585611bff565b15156114a657600080fd5b5050505050565b6060600060606114bb61103a565b91506000368080601f0160208091040260200160405190810160405280939291908181526020018383808284378201915050505050509050600080825160208401855af43d604051816000823e8260008114611515578282f35b8282fd5b6115238383611ded565b80600d6000848152602001908152602001600020908051906020019061154a9291906122be565b50505050565b6000600360008473ffffffffffffffffffffffffffffffffffffffff1673ffffffffffffffffffffffffffffffffffffffff16815260200190815260200160002060008373ffffffffffffffffffffffffffffffffffffffff1673ffffffffffffffffffffffffffffffffffffffff16815260200190815260200160002060009054906101000a900460ff16905092915050565b600b60009054906101000a900473ffffffffffffffffffffffffffffffffffffffff1673ffffffffffffffffffffffffffffffffffffffff163373ffffffffffffffffffffffffffffffffffffffff1614151561164057600080fd5b60008173ffffffffffffffffffffffffffffffffffffffff161415151561166657600080fd5b80600c60006101000a81548173ffffffffffffffffffffffffffffffffffffffff021916908373ffffffffffffffffffffffffffffffffffffffff16021790555050565b600b60009054906101000a900473ffffffffffffffffffffffffffffffffffffffff1673ffffffffffffffffffffffffffffffffffffffff163373ffffffffffffffffffffffffffffffffffffffff1614151561170657600080fd5b61170f81611e44565b50565b60008061171e83611064565b90508073ffffffffffffffffffffffffffffffffffffffff168473ffffffffffffffffffffffffffffffffffffffff16148061178d57508373ffffffffffffffffffffffffffffffffffffffff1661177584610b0b565b73ffffffffffffffffffffffffffffffffffffffff16145b8061179e575061179d8185611550565b5b91505092915050565b8173ffffffffffffffffffffffffffffffffffffffff166117c782611064565b73ffffffffffffffffffffffffffffffffffffffff161415156117e957600080fd5b600073ffffffffffffffffffffffffffffffffffffffff166001600083815260200190815260200160002060009054906101000a900473ffffffffffffffffffffffffffffffffffffffff1673ffffffffffffffffffffffffffffffffffffffff1614151561190c5760006001600083815260200190815260200160002060006101000a81548173ffffffffffffffffffffffffffffffffffffffff021916908373ffffffffffffffffffffffffffffffffffffffff160217905550600073ffffffffffffffffffffffffffffffffffffffff168273ffffffffffffffffffffffffffffffffffffffff167f8c5be1e5ebec7d5bd14f71427d1e84f3dd0314c0f7b2291e5b200ac8c7c3b925836040518082815260200191505060405180910390a35b5050565b600080600061191f8585611f40565b6007600085815260200190815260200160002054925061198b6001600660008873ffffffffffffffffffffffffffffffffffffffff1673ffffffffffffffffffffffffffffffffffffffff1681526020019081526020016000208054905061206e90919063ffffffff16565b9150600660008673ffffffffffffffffffffffffffffffffffffffff1673ffffffffffffffffffffffffffffffffffffffff168152602001908152602001600020828154811015156119d957fe5b9060005260206000200154905080600660008773ffffffffffffffffffffffffffffffffffffffff1673ffffffffffffffffffffffffffffffffffffffff16815260200190815260200160002084815481101515611a3357fe5b90600052602060002001819055506000600660008773ffffffffffffffffffffffffffffffffffffffff1673ffffffffffffffffffffffffffffffffffffffff16815260200190815260200160002083815481101515611a8f57fe5b9060005260206000200181905550600660008673ffffffffffffffffffffffffffffffffffffffff1673ffffffffffffffffffffffffffffffffffffffff168152602001908152602001600020805480919060019003611aef919061233e565b50600060076000868152602001908152602001600020819055508260076000838152602001908152602001600020819055505050505050565b6000611b348383612087565b600660008473ffffffffffffffffffffffffffffffffffffffff1673ffffffffffffffffffffffffffffffffffffffff168152602001908152602001600020805490509050600660008473ffffffffffffffffffffffffffffffffffffffff1673ffffffffffffffffffffffffffffffffffffffff168152602001908152602001600020829080600181540180825580915050906001820390600052602060002001600090919290919091505550806007600084815260200190815260200160002081905550505050565b600080611c218573ffffffffffffffffffffffffffffffffffffffff166121df565b1515611c305760019150611de4565b8473ffffffffffffffffffffffffffffffffffffffff1663f0b9e5ba8786866040518463ffffffff167c0100000000000000000000000000000000000000000000000000000000028152600401808473ffffffffffffffffffffffffffffffffffffffff1673ffffffffffffffffffffffffffffffffffffffff16815260200183815260200180602001828103825283818151815260200191508051906020019080838360005b83811015611cf2578082015181840152602081019050611cd7565b50505050905090810190601f168015611d1f5780820380516001836020036101000a031916815260200191505b50945050505050602060405180830381600087803b158015611d4057600080fd5b505af1158015611d54573d6000803e3d6000fd5b505050506040513d6020811015611d6a57600080fd5b8101908080519060200190929190505050905063f0b9e5ba7c0100000000000000000000000000000000000000000000000000000000027bffffffffffffffffffffffffffffffffffffffffffffffffffffffff1916817bffffffffffffffffffffffffffffffffffffffffffffffffffffffff19161491505b50949350505050565b611df782826121f2565b600880549050600960008381526020019081526020016000208190555060088190806001815401808255809150509060018203906000526020600020016000909192909190915055505050565b600073ffffffffffffffffffffffffffffffffffffffff168173ffffffffffffffffffffffffffffffffffffffff1614151515611e8057600080fd5b8073ffffffffffffffffffffffffffffffffffffffff16600b60009054906101000a900473ffffffffffffffffffffffffffffffffffffffff1673ffffffffffffffffffffffffffffffffffffffff167f8be0079c531659141344cd1fd0a4f28419497f9722a3daafe3b4186f6b6457e060405160405180910390a380600b60006101000a81548173ffffffffffffffffffffffffffffffffffffffff021916908373ffffffffffffffffffffffffffffffffffffffff16021790555050565b8173ffffffffffffffffffffffffffffffffffffffff16611f6082611064565b73ffffffffffffffffffffffffffffffffffffffff16141515611f8257600080fd5b611fd56001600260008573ffffffffffffffffffffffffffffffffffffffff1673ffffffffffffffffffffffffffffffffffffffff1681526020019081526020016000205461206e90919063ffffffff16565b600260008473ffffffffffffffffffffffffffffffffffffffff1673ffffffffffffffffffffffffffffffffffffffff16815260200190815260200160002081905550600080600083815260200190815260200160002060006101000a81548173ffffffffffffffffffffffffffffffffffffffff021916908373ffffffffffffffffffffffffffffffffffffffff1602179055505050565b600082821115151561207c57fe5b818303905092915050565b600073ffffffffffffffffffffffffffffffffffffffff1660008083815260200190815260200160002060009054906101000a900473ffffffffffffffffffffffffffffffffffffffff1673ffffffffffffffffffffffffffffffffffffffff161415156120f457600080fd5b8160008083815260200190815260200160002060006101000a81548173ffffffffffffffffffffffffffffffffffffffff021916908373ffffffffffffffffffffffffffffffffffffffff1602179055506121986001600260008573ffffffffffffffffffffffffffffffffffffffff1673ffffffffffffffffffffffffffffffffffffffff168152602001908152602001600020546122a290919063ffffffff16565b600260008473ffffffffffffffffffffffffffffffffffffffff1673ffffffffffffffffffffffffffffffffffffffff168152602001908152602001600020819055505050565b600080823b905060008111915050919050565b600073ffffffffffffffffffffffffffffffffffffffff168273ffffffffffffffffffffffffffffffffffffffff161415151561222e57600080fd5b6122388282611b28565b8173ffffffffffffffffffffffffffffffffffffffff16600073ffffffffffffffffffffffffffffffffffffffff167fddf252ad1be2c89b69c2b068fc378daa952ba7f163c4a11628f55a4df523b3ef836040518082815260200191505060405180910390a35050565b600081830190508281101515156122b557fe5b80905092915050565b828054600181600116156101000203166002900490600052602060002090601f016020900481019282601f106122ff57805160ff191683800117855561232d565b8280016001018555821561232d579182015b8281111561232c578251825591602001919060010190612311565b5b50905061233a919061236a565b5090565b81548183558181111561236557818360005260206000209182019101612364919061236a565b5b505050565b61238c91905b80821115612388576000816000905550600101612370565b5090565b905600a165627a7a7230582051a0e106f0ee71ae2510a1110cebf2ede50caa6897a4e6e330bff5205c51bbd90029",
  "source": "pragma solidity ^0.4.24;\n\nimport \"./ArtonomousStaking.sol\";\nimport \"./ArtonomousArtPieceToken.sol\";\n\ncontract Artonomous {\n\n    event ArtonomousAuctionStarted(uint indexed blockNumber, string generatorHashUsed);\n    event ArtonomousArtBought(address indexed buyer, uint indexed blockNumber, uint price);\n    event ArtonomousArtClaimed(address indexed claimant, uint indexed blockNumber);\n\n    struct Auction {\n        uint blockNumber;\n        uint endTime;\n        uint startingPrice;\n    }\n\n    ArtonomousStaking public artonomousStaking;\n    ArtonomousArtPieceToken public pieceToken;\n    address public beneficiary; // receives ether gained from purchases\n\n    uint public AUCTION_LENGTH = 86400; // 24 hours\n    Auction public currentAuction;\n\n    constructor(address stakingAddr, address beneficiaryAddr) public {\n        artonomousStaking = ArtonomousStaking(stakingAddr);\n        pieceToken = new ArtonomousArtPieceToken(\"artonomous-token\", \"ARTO\");\n        beneficiary = beneficiaryAddr;\n        startAuction();\n    }\n\n    function startAuction() internal {\n        require(currentAuction.blockNumber == 0);\n        string memory currentGeneratorHash = artonomousStaking.currentGeneratorHash();\n        pieceToken.mint(this, block.number, currentGeneratorHash);\n        currentAuction = Auction({\n            blockNumber: block.number,\n            endTime: now + AUCTION_LENGTH,\n            startingPrice: getStartingPrice()\n        });\n        emit ArtonomousAuctionStarted(block.number, currentGeneratorHash);\n    }\n\n    // placeholder\n    function getStartingPrice() internal pure returns (uint) {\n        return 1000000000000;\n    }\n\n    function buyArt() external payable {\n        uint blockNumber = currentAuction.blockNumber;\n        require(blockNumber > 0);\n        require(currentAuction.endTime > now);\n\n        uint buyPrice = getBuyPrice(currentAuction.startingPrice);\n        require(msg.value >= buyPrice);\n\n\n        pieceToken.transferFrom(this, msg.sender, blockNumber);\n        delete currentAuction;\n\n        uint remainder = msg.value - buyPrice;\n        msg.sender.transfer(remainder); // refund extra\n        beneficiary.transfer(buyPrice); // pay Artonomous' beneficiary\n\n        emit ArtonomousArtBought(msg.sender, blockNumber, buyPrice);\n\n        startAuction();\n    }\n\n    // placeholder\n    function getBuyPrice(uint startingPrice) internal pure returns (uint) {\n        return startingPrice;\n    }\n\n    // after 24 hours, anyone can claim for free\n    function claimArt() external {\n        uint blockNumber = currentAuction.blockNumber;\n        require(blockNumber > 0);\n        require(currentAuction.endTime <= now);\n\n        pieceToken.transferFrom(this, msg.sender, blockNumber);\n        delete currentAuction;\n\n        emit ArtonomousArtClaimed(msg.sender, blockNumber);\n\n        startAuction();\n    }\n}\n",
  "sourcePath": "/Users/nickreynolds/Artonomous/artonomous/packages/contracts/contracts/Artonomous.sol",
  "compiler": {
    "name": "solc",
    "version": "0.4.24+commit.e67f0147.Emscripten.clang"
  },
  "schemaVersion": "2.0.0",
  "updatedAt": "2018-10-14T18:52:51.130Z"
}