{
  "contractName": "Artonomous",
  "abi": [
    {
      "constant": true,
      "inputs": [],
      "name": "beneficiary",
      "outputs": [
        {
          "name": "",
          "type": "address"
        }
      ],
      "payable": false,
      "stateMutability": "view",
      "type": "function"
    },
    {
      "constant": true,
      "inputs": [],
      "name": "currentAuction",
      "outputs": [
        {
          "name": "blockNumber",
          "type": "uint256"
        },
        {
          "name": "endTime",
          "type": "uint256"
        },
        {
          "name": "startingPrice",
          "type": "uint256"
        }
      ],
      "payable": false,
      "stateMutability": "view",
      "type": "function"
    },
    {
      "constant": true,
      "inputs": [],
      "name": "pieceToken",
      "outputs": [
        {
          "name": "",
          "type": "address"
        }
      ],
      "payable": false,
      "stateMutability": "view",
      "type": "function"
    },
    {
      "constant": true,
      "inputs": [],
      "name": "AUCTION_LENGTH",
      "outputs": [
        {
          "name": "",
          "type": "uint256"
        }
      ],
      "payable": false,
      "stateMutability": "view",
      "type": "function"
    },
    {
      "constant": true,
      "inputs": [],
      "name": "registry",
      "outputs": [
        {
          "name": "",
          "type": "address"
        }
      ],
      "payable": false,
      "stateMutability": "view",
      "type": "function"
    },
    {
      "inputs": [
        {
          "name": "stakingAddr",
          "type": "address"
        },
        {
          "name": "beneficiaryAddr",
          "type": "address"
        }
      ],
      "payable": false,
      "stateMutability": "nonpayable",
      "type": "constructor"
    },
    {
      "anonymous": false,
      "inputs": [
        {
          "indexed": true,
          "name": "blockNumber",
          "type": "uint256"
        }
      ],
      "name": "ArtonomousAuctionStarted",
      "type": "event"
    },
    {
      "anonymous": false,
      "inputs": [
        {
          "indexed": true,
          "name": "buyer",
          "type": "address"
        },
        {
          "indexed": true,
          "name": "blockNumber",
          "type": "uint256"
        },
        {
          "indexed": false,
          "name": "price",
          "type": "uint256"
        }
      ],
      "name": "ArtonomousArtBought",
      "type": "event"
    },
    {
      "anonymous": false,
      "inputs": [
        {
          "indexed": true,
          "name": "claimant",
          "type": "address"
        },
        {
          "indexed": true,
          "name": "blockNumber",
          "type": "uint256"
        }
      ],
      "name": "ArtonomousArtClaimed",
      "type": "event"
    },
    {
      "constant": false,
      "inputs": [],
      "name": "buyArt",
      "outputs": [],
      "payable": true,
      "stateMutability": "payable",
      "type": "function"
    },
    {
      "constant": false,
      "inputs": [],
      "name": "claimArt",
      "outputs": [],
      "payable": false,
      "stateMutability": "nonpayable",
      "type": "function"
    }
  ],
  "bytecode": "0x60806040526201518060035534801561001757600080fd5b50604051604080611d6583398101604052805160209091015160008054600160a060020a031916600160a060020a0384161790556100536102e0565b6040808252600d818301527f4172745069656365546f6b656e0000000000000000000000000000000000000060608301526080602083018190526003908301527f415254000000000000000000000000000000000000000000000000000000000060a0830152519081900360c001906000f0801580156100d7573d6000803e3d6000fd5b5060018054600160a060020a0319908116600160a060020a03938416179091556002805490911691831691909117905561011864010000000061011f810204565b50506102f0565b6004546000901561012f57600080fd5b6000809054906101000a9004600160a060020a0316600160a060020a031663471b2e2a6040518163ffffffff167c0100000000000000000000000000000000000000000000000000000000028152600401602060405180830381600087803b15801561019a57600080fd5b505af11580156101ae573d6000803e3d6000fd5b505050506040513d60208110156101c457600080fd5b5051600154604080517f0d4d1513000000000000000000000000000000000000000000000000000000008152306004820152436024820152600160a060020a0380851660448301529151939450911691630d4d1513916064808201926020929091908290030181600087803b15801561023c57600080fd5b505af1158015610250573d6000803e3d6000fd5b505050506040513d602081101561026657600080fd5b505060408051606081018252438152600354420160208201529081016102936401000000006102d7810204565b9052805160045560208101516005556040908101516006555143907f88f30d4843736b55afaa342b7fbcc8c3c666f2451fb4fcda585d98dcc484f55590600090a250565b64e8d4a5100090565b60405161146e806108f783390190565b6105f8806102ff6000396000f3006080604052600436106100825763ffffffff7c010000000000000000000000000000000000000000000000000000000060003504166338af3eed8114610087578063496a698d146100b85780634e9e136d146100eb57806355d41692146100f5578063635af9ad1461010a5780637b10399914610131578063d92f20f414610146575b600080fd5b34801561009357600080fd5b5061009c61015b565b60408051600160a060020a039092168252519081900360200190f35b3480156100c457600080fd5b506100cd61016a565b60408051938452602084019290925282820152519081900360600190f35b6100f3610176565b005b34801561010157600080fd5b5061009c6102fd565b34801561011657600080fd5b5061011f61030c565b60408051918252519081900360200190f35b34801561013d57600080fd5b5061009c610312565b34801561015257600080fd5b506100f3610321565b600254600160a060020a031681565b60045460055460065483565b60045460008080831161018857600080fd5b600554421061019657600080fd5b6006546101a290610411565b9150348211156101b157600080fd5b600154604080517f23b872dd000000000000000000000000000000000000000000000000000000008152306004820152336024820152604481018690529051600160a060020a03909216916323b872dd9160648082019260009290919082900301818387803b15801561022357600080fd5b505af1158015610237573d6000803e3d6000fd5b5050600060048190556005819055600681905560405134869003945033935084156108fc0292508491818181858888f1935050505015801561027d573d6000803e3d6000fd5b50600254604051600160a060020a039091169083156108fc029084906000818181858888f193505050501580156102b8573d6000803e3d6000fd5b50604080518381529051849133917f682553da668235675371295b1cda200992ebe5c26835d6f26b9658340f3b5f189181900360200190a36102f8610414565b505050565b600154600160a060020a031681565b60035481565b600054600160a060020a031681565b6004546000811161033157600080fd5b60055442101561034057600080fd5b600154604080517f23b872dd000000000000000000000000000000000000000000000000000000008152306004820152336024820152604481018490529051600160a060020a03909216916323b872dd9160648082019260009290919082900301818387803b1580156103b257600080fd5b505af11580156103c6573d6000803e3d6000fd5b505060006004819055600581905560068190556040518493503392507ff567a0a57233e406978940ccd12ded9982296245a1dcaeff95e906cd2988fb5c9190a361040e610414565b50565b90565b6004546000901561042457600080fd5b6000809054906101000a9004600160a060020a0316600160a060020a031663471b2e2a6040518163ffffffff167c0100000000000000000000000000000000000000000000000000000000028152600401602060405180830381600087803b15801561048f57600080fd5b505af11580156104a3573d6000803e3d6000fd5b505050506040513d60208110156104b957600080fd5b5051600154604080517f0d4d1513000000000000000000000000000000000000000000000000000000008152306004820152436024820152600160a060020a0380851660448301529151939450911691630d4d1513916064808201926020929091908290030181600087803b15801561053157600080fd5b505af1158015610545573d6000803e3d6000fd5b505050506040513d602081101561055b57600080fd5b5050604080516060810182524381526003544201602082015290810161057f6105c3565b9052805160045560208101516005556040908101516006555143907f88f30d4843736b55afaa342b7fbcc8c3c666f2451fb4fcda585d98dcc484f55590600090a250565b64e8d4a51000905600a165627a7a723058206ee200be1dafab4eaa8b26eef68e08af3ef7e6c6f8eed7cdce66ee2717be6f61002960806040523480156200001157600080fd5b506040516200146e3803806200146e833981016040528051602082015190820191018181620000697f01ffc9a700000000000000000000000000000000000000000000000000000000640100000000620001ad810204565b6200009d7f80ac58cd00000000000000000000000000000000000000000000000000000000640100000000620001ad810204565b620000d17f4f558e7900000000000000000000000000000000000000000000000000000000640100000000620001ad810204565b8151620000e69060059060208501906200021a565b508051620000fc9060069060208401906200021a565b50620001317f780e9d6300000000000000000000000000000000000000000000000000000000640100000000620001ad810204565b620001657f5b5e139f00000000000000000000000000000000000000000000000000000000640100000000620001ad810204565b5050600c8054600160a060020a0319163317905581516200018e9060059060208501906200021a565b508051620001a49060069060208401906200021a565b505050620002bf565b7fffffffff000000000000000000000000000000000000000000000000000000008082161415620001dd57600080fd5b7fffffffff00000000000000000000000000000000000000000000000000000000166000908152602081905260409020805460ff19166001179055565b828054600181600116156101000203166002900490600052602060002090601f016020900481019282601f106200025d57805160ff19168380011785556200028d565b828001600101855582156200028d579182015b828111156200028d57825182559160200191906001019062000270565b506200029b9291506200029f565b5090565b620002bc91905b808211156200029b5760008155600101620002a6565b90565b61119f80620002cf6000396000f3006080604052600436106101325763ffffffff7c010000000000000000000000000000000000000000000000000000000060003504166301ffc9a7811461013757806306fdde031461016d578063081812fc146101f7578063095ea7b31461022b5780630b599c63146102515780630d4d15131461026957806318160ddd146102a657806319fa8f50146102bb57806323b872dd146102ed5780632f745c591461031757806342842e0e1461033b5780634f558e79146103655780634f6ccce71461037d5780636352211e1461039557806370a08231146103ad578063715018a6146103ce5780638da5cb5b146103e357806395d89b41146103f8578063a22cb4651461040d578063b88d4fde14610433578063c87b56dd146104a2578063e985e9c5146104ba578063f2fde38b146104e1575b600080fd5b34801561014357600080fd5b50610159600160e060020a031960043516610502565b604080519115158252519081900360200190f35b34801561017957600080fd5b50610182610521565b6040805160208082528351818301528351919283929083019185019080838360005b838110156101bc5781810151838201526020016101a4565b50505050905090810190601f1680156101e95780820380516001836020036101000a031916815260200191505b509250505060405180910390f35b34801561020357600080fd5b5061020f6004356105b8565b60408051600160a060020a039092168252519081900360200190f35b34801561023757600080fd5b5061024f600160a060020a03600435166024356105d3565b005b34801561025d57600080fd5b5061020f60043561067c565b34801561027557600080fd5b50610294600160a060020a036004358116906024359060443516610697565b60408051918252519081900360200190f35b3480156102b257600080fd5b506102946106cd565b3480156102c757600080fd5b506102d06106d3565b60408051600160e060020a03199092168252519081900360200190f35b3480156102f957600080fd5b5061024f600160a060020a03600435811690602435166044356106f7565b34801561032357600080fd5b50610294600160a060020a036004351660243561079a565b34801561034757600080fd5b5061024f600160a060020a03600435811690602435166044356107e7565b34801561037157600080fd5b50610159600435610808565b34801561038957600080fd5b50610294600435610825565b3480156103a157600080fd5b5061020f60043561085a565b3480156103b957600080fd5b50610294600160a060020a0360043516610884565b3480156103da57600080fd5b5061024f6108b7565b3480156103ef57600080fd5b5061020f610918565b34801561040457600080fd5b50610182610927565b34801561041957600080fd5b5061024f600160a060020a03600435166024351515610988565b34801561043f57600080fd5b50604080516020601f60643560048181013592830184900484028501840190955281845261024f94600160a060020a038135811695602480359092169560443595369560849401918190840183828082843750949750610a0c9650505050505050565b3480156104ae57600080fd5b50610182600435610a34565b3480156104c657600080fd5b50610159600160a060020a0360043581169060243516610ae9565b3480156104ed57600080fd5b5061024f600160a060020a0360043516610b17565b600160e060020a03191660009081526020819052604090205460ff1690565b60058054604080516020601f60026000196101006001881615020190951694909404938401819004810282018101909252828152606093909290918301828280156105ad5780601f10610582576101008083540402835291602001916105ad565b820191906000526020600020905b81548152906001019060200180831161059057829003601f168201915b505050505090505b90565b600090815260026020526040902054600160a060020a031690565b60006105de8261085a565b9050600160a060020a0383811690821614156105f957600080fd5b33600160a060020a038216148061061557506106158133610ae9565b151561062057600080fd5b6000828152600260205260408082208054600160a060020a031916600160a060020a0387811691821790925591518593918516917f8c5be1e5ebec7d5bd14f71427d1e84f3dd0314c0f7b2291e5b200ac8c7c3b92591a4505050565b6000908152600d6020526040902054600160a060020a031690565b600c54600090600160a060020a031633146106b157600080fd5b6106bb8484610b3a565b6106c58383610b89565b509092915050565b60095490565b7f01ffc9a70000000000000000000000000000000000000000000000000000000081565b6107013382610bb7565b151561070c57600080fd5b600160a060020a038316151561072157600080fd5b600160a060020a038216151561073657600080fd5b6107408382610c16565b61074a8382610c7a565b6107548282610d81565b8082600160a060020a031684600160a060020a03167fddf252ad1be2c89b69c2b068fc378daa952ba7f163c4a11628f55a4df523b3ef60405160405180910390a4505050565b60006107a583610884565b82106107b057600080fd5b600160a060020a03831660009081526007602052604090208054839081106107d457fe5b9060005260206000200154905092915050565b6108038383836020604051908101604052806000815250610a0c565b505050565b600090815260016020526040902054600160a060020a0316151590565b600061082f6106cd565b821061083a57600080fd5b600980548390811061084857fe5b90600052602060002001549050919050565b600081815260016020526040812054600160a060020a031680151561087e57600080fd5b92915050565b6000600160a060020a038216151561089b57600080fd5b50600160a060020a031660009081526003602052604090205490565b600c54600160a060020a031633146108ce57600080fd5b600c54604051600160a060020a03909116907ff8df31144d9c2f0f6b59d69b8b98abd5459d07f2742c4df920b25aae33c6482090600090a2600c8054600160a060020a0319169055565b600c54600160a060020a031681565b60068054604080516020601f60026000196101006001881615020190951694909404938401819004810282018101909252828152606093909290918301828280156105ad5780601f10610582576101008083540402835291602001916105ad565b600160a060020a03821633141561099e57600080fd5b336000818152600460209081526040808320600160a060020a03871680855290835292819020805460ff1916861515908117909155815190815290519293927f17307eab39ab6107e8899845ad3d59bd9653f200f220920489ca2b5937696c31929181900390910190a35050565b610a178484846106f7565b610a2384848484610dca565b1515610a2e57600080fd5b50505050565b6060610a3f82610808565b1515610a4a57600080fd5b6000828152600b602090815260409182902080548351601f600260001961010060018616150201909316929092049182018490048402810184019094528084529091830182828015610add5780601f10610ab257610100808354040283529160200191610add565b820191906000526020600020905b815481529060010190602001808311610ac057829003601f168201915b50505050509050919050565b600160a060020a03918216600090815260046020908152604080832093909416825291909152205460ff1690565b600c54600160a060020a03163314610b2e57600080fd5b610b3781610f37565b50565b610b448282610fa8565b600980546000838152600a60205260408120829055600182018355919091527f6e1540171b6c0c960b71a7020d9f60077f6af931a8bbf590da0223dacf75c7af015550565b6000918252600d60205260409091208054600160a060020a031916600160a060020a03909216919091179055565b600080610bc38361085a565b905080600160a060020a031684600160a060020a03161480610bfe575083600160a060020a0316610bf3846105b8565b600160a060020a0316145b80610c0e5750610c0e8185610ae9565b949350505050565b81600160a060020a0316610c298261085a565b600160a060020a031614610c3c57600080fd5b600081815260026020526040902054600160a060020a031615610c765760008181526002602052604090208054600160a060020a03191690555b5050565b6000806000610c898585611003565b600084815260086020908152604080832054600160a060020a0389168452600790925290912054909350610cc490600163ffffffff61108c16565b600160a060020a038616600090815260076020526040902080549193509083908110610cec57fe5b90600052602060002001549050806007600087600160a060020a0316600160a060020a0316815260200190815260200160002084815481101515610d2c57fe5b6000918252602080832090910192909255600160a060020a0387168152600790915260409020805490610d63906000198301611136565b50600093845260086020526040808520859055908452909220555050565b6000610d8d838361109e565b50600160a060020a039091166000908152600760209081526040808320805460018101825590845282842081018590559383526008909152902055565b600080610ddf85600160a060020a0316611121565b1515610dee5760019150610f2e565b6040517f150b7a020000000000000000000000000000000000000000000000000000000081523360048201818152600160a060020a03898116602485015260448401889052608060648501908152875160848601528751918a169463150b7a0294938c938b938b93909160a490910190602085019080838360005b83811015610e81578181015183820152602001610e69565b50505050905090810190601f168015610eae5780820380516001836020036101000a031916815260200191505b5095505050505050602060405180830381600087803b158015610ed057600080fd5b505af1158015610ee4573d6000803e3d6000fd5b505050506040513d6020811015610efa57600080fd5b5051600160e060020a031981167f150b7a020000000000000000000000000000000000000000000000000000000014925090505b50949350505050565b600160a060020a0381161515610f4c57600080fd5b600c54604051600160a060020a038084169216907f8be0079c531659141344cd1fd0a4f28419497f9722a3daafe3b4186f6b6457e090600090a3600c8054600160a060020a031916600160a060020a0392909216919091179055565b600160a060020a0382161515610fbd57600080fd5b610fc78282610d81565b6040518190600160a060020a038416906000907fddf252ad1be2c89b69c2b068fc378daa952ba7f163c4a11628f55a4df523b3ef908290a45050565b81600160a060020a03166110168261085a565b600160a060020a03161461102957600080fd5b600160a060020a03821660009081526003602052604090205461105390600163ffffffff61108c16565b600160a060020a039092166000908152600360209081526040808320949094559181526001909152208054600160a060020a0319169055565b60008282111561109857fe5b50900390565b600081815260016020526040902054600160a060020a0316156110c057600080fd5b60008181526001602081815260408084208054600160a060020a031916600160a060020a038816908117909155845260039091529091205461110191611129565b600160a060020a0390921660009081526003602052604090209190915550565b6000903b1190565b8181018281101561087e57fe5b815481835581811115610803576000838152602090206108039181019083016105b591905b8082111561116f576000815560010161115b565b50905600a165627a7a7230582038001b492e679ba6d7301e8bba18974da9c5c5732139432c65dee97c8ef6f7000029",
  "source": "pragma solidity ^0.4.24;\n\nimport \"./GeneratorRegistry.sol\";\nimport \"./tokens/ArtPieceToken.sol\";\n\ncontract Artonomous {\n\n    event ArtonomousAuctionStarted(uint indexed blockNumber);\n    event ArtonomousArtBought(address indexed buyer, uint indexed blockNumber, uint price);\n    event ArtonomousArtClaimed(address indexed claimant, uint indexed blockNumber);\n\n    struct Auction {\n        uint blockNumber;\n        uint endTime;\n        uint startingPrice;\n    }\n\n    GeneratorRegistry public registry;\n    ArtPieceToken public pieceToken;\n    address public beneficiary; // receives ether gained from purchases\n\n    uint public AUCTION_LENGTH = 86400; // 24 hours\n    Auction public currentAuction;\n\n    constructor(address stakingAddr, address beneficiaryAddr) public {\n        registry = GeneratorRegistry(stakingAddr);\n        pieceToken = new ArtPieceToken(\"ArtPieceToken\", \"ART\");\n        beneficiary = beneficiaryAddr;\n        startAuction();\n    }\n\n    function startAuction() internal {\n        require(currentAuction.blockNumber == 0);\n        Generator currentGenerator = registry.getActiveGenerator();\n        pieceToken.mint(this, block.number, currentGenerator);\n        currentAuction = Auction({\n            blockNumber: block.number,\n            endTime: now + AUCTION_LENGTH,\n            startingPrice: getStartingPrice()\n        });\n        emit ArtonomousAuctionStarted(block.number);\n    }\n\n    // placeholder\n    function getStartingPrice() internal pure returns (uint) {\n        return 1000000000000;\n    }\n\n    function buyArt() external payable {\n        uint blockNumber = currentAuction.blockNumber;\n        require(blockNumber > 0);\n        require(currentAuction.endTime > now);\n\n        uint buyPrice = getBuyPrice(currentAuction.startingPrice);\n        require(msg.value >= buyPrice);\n\n\n        pieceToken.transferFrom(this, msg.sender, blockNumber);\n        delete currentAuction;\n\n        uint remainder = msg.value - buyPrice;\n        msg.sender.transfer(remainder); // refund extra\n        beneficiary.transfer(buyPrice); // pay Artonomous' beneficiary\n\n        emit ArtonomousArtBought(msg.sender, blockNumber, buyPrice);\n\n        startAuction();\n    }\n\n    // placeholder\n    function getBuyPrice(uint startingPrice) internal pure returns (uint) {\n        return startingPrice;\n    }\n\n    // after 24 hours, anyone can claim for free\n    function claimArt() external {\n        uint blockNumber = currentAuction.blockNumber;\n        require(blockNumber > 0);\n        require(currentAuction.endTime <= now);\n\n        pieceToken.transferFrom(this, msg.sender, blockNumber);\n        delete currentAuction;\n\n        emit ArtonomousArtClaimed(msg.sender, blockNumber);\n\n        startAuction();\n    }\n}\n",
  "sourcePath": "/Users/nickreynolds/Artonomous/artonomous/packages/contracts/contracts/Artonomous.sol",
  "compiler": {
    "name": "solc",
    "version": "0.4.24+commit.e67f0147.Emscripten.clang"
  },
  "schemaVersion": "2.0.1",
  "updatedAt": "2018-10-14T22:54:34.310Z"
}