{
  "contractName": "Artonomous",
  "abi": [
    {
      "constant": true,
      "inputs": [],
      "name": "soulToken",
      "outputs": [
        {
          "name": "",
          "type": "address"
        }
      ],
      "payable": false,
      "stateMutability": "view",
      "type": "function"
    },
    {
      "constant": true,
      "inputs": [],
      "name": "currentAuction",
      "outputs": [
        {
          "name": "blockNumber",
          "type": "uint256"
        },
        {
          "name": "endTime",
          "type": "uint256"
        },
        {
          "name": "startingPrice",
          "type": "uint256"
        }
      ],
      "payable": false,
      "stateMutability": "view",
      "type": "function"
    },
    {
      "constant": true,
      "inputs": [],
      "name": "pieceToken",
      "outputs": [
        {
          "name": "",
          "type": "address"
        }
      ],
      "payable": false,
      "stateMutability": "view",
      "type": "function"
    },
    {
      "constant": true,
      "inputs": [],
      "name": "AUCTION_LENGTH",
      "outputs": [
        {
          "name": "",
          "type": "uint256"
        }
      ],
      "payable": false,
      "stateMutability": "view",
      "type": "function"
    },
    {
      "constant": true,
      "inputs": [],
      "name": "registry",
      "outputs": [
        {
          "name": "",
          "type": "address"
        }
      ],
      "payable": false,
      "stateMutability": "view",
      "type": "function"
    },
    {
      "constant": true,
      "inputs": [],
      "name": "currentAuctionBlockNumber",
      "outputs": [
        {
          "name": "",
          "type": "uint256"
        }
      ],
      "payable": false,
      "stateMutability": "view",
      "type": "function"
    },
    {
      "inputs": [
        {
          "name": "stakingAddr",
          "type": "address"
        },
        {
          "name": "artToken",
          "type": "address"
        },
        {
          "name": "soulTokenAddr",
          "type": "address"
        }
      ],
      "payable": false,
      "stateMutability": "nonpayable",
      "type": "constructor"
    },
    {
      "anonymous": false,
      "inputs": [
        {
          "indexed": true,
          "name": "blockNumber",
          "type": "uint256"
        }
      ],
      "name": "ArtonomousAuctionStarted",
      "type": "event"
    },
    {
      "anonymous": false,
      "inputs": [
        {
          "indexed": true,
          "name": "buyer",
          "type": "address"
        },
        {
          "indexed": true,
          "name": "blockNumber",
          "type": "uint256"
        },
        {
          "indexed": false,
          "name": "price",
          "type": "uint256"
        }
      ],
      "name": "ArtonomousArtBought",
      "type": "event"
    },
    {
      "constant": true,
      "inputs": [],
      "name": "getCurrentAuctionBlockNumber",
      "outputs": [
        {
          "name": "",
          "type": "uint256"
        }
      ],
      "payable": false,
      "stateMutability": "view",
      "type": "function"
    },
    {
      "constant": false,
      "inputs": [
        {
          "name": "prevBoughtPrice",
          "type": "uint256"
        },
        {
          "name": "prevPrice",
          "type": "uint256"
        }
      ],
      "name": "startAuction",
      "outputs": [],
      "payable": false,
      "stateMutability": "nonpayable",
      "type": "function"
    },
    {
      "constant": false,
      "inputs": [],
      "name": "buyArt",
      "outputs": [],
      "payable": true,
      "stateMutability": "payable",
      "type": "function"
    }
  ],
  "bytecode": "0x608060405261096060045534801561001657600080fd5b5060405160608061078283398101604090815281516020830151919092015160018054600160a060020a0319908116600160a060020a039586161790915560028054821693851693909317909255600380549092169216919091179055610700806100826000396000f30060806040526004361061007f5763ffffffff60e060020a6000350416632d5f4a1e8114610084578063496a698d146100b55780634e9e136d146100e85780634fee13fc146100f257806355d416921461010d5780635deae79214610122578063635af9ad146101495780637b1039991461015e578063e056e68e14610173575b600080fd5b34801561009057600080fd5b50610099610188565b60408051600160a060020a039092168252519081900360200190f35b3480156100c157600080fd5b506100ca610197565b60408051938452602084019290925282820152519081900360600190f35b6100f06101a3565b005b3480156100fe57600080fd5b506100f06004356024356101d5565b34801561011957600080fd5b50610099610374565b34801561012e57600080fd5b50610137610383565b60408051918252519081900360200190f35b34801561015557600080fd5b50610137610389565b34801561016a57600080fd5b5061009961038f565b34801561017f57600080fd5b5061013761039e565b600354600160a060020a031681565b60055460065460075483565b600554600081116101b357600080fd5b6006544210156101ca576101c56103a4565b6101d2565b6101d2610566565b50565b600554600090156101e557600080fd5b600160009054906101000a9004600160a060020a0316600160a060020a031663471b2e2a6040518163ffffffff1660e060020a028152600401602060405180830381600087803b15801561023857600080fd5b505af115801561024c573d6000803e3d6000fd5b505050506040513d602081101561026257600080fd5b5051600254604080517f0d4d1513000000000000000000000000000000000000000000000000000000008152306004820152436024820152600160a060020a0380851660448301529151939450911691630d4d1513916064808201926020929091908290030181600087803b1580156102da57600080fd5b505af11580156102ee573d6000803e3d6000fd5b505050506040513d602081101561030457600080fd5b5050604080516060810182524381526004544201602082015290810161032a858561064c565b905280516005556020810151600655604090810151600755436000818155915190917f88f30d4843736b55afaa342b7fbcc8c3c666f2451fb4fcda585d98dcc484f55591a2505050565b600254600160a060020a031681565b60005490565b60045481565b600154600160a060020a031681565b60005481565b60055460075460065460045442909103906000908190819061271085028115156103ca57fe5b049250612710858402049150348211156103e357600080fd5b600254604080517f23b872dd000000000000000000000000000000000000000000000000000000008152306004820152336024820152604481018990529051600160a060020a03909216916323b872dd9160648082019260009290919082900301818387803b15801561045557600080fd5b505af1158015610469573d6000803e3d6000fd5b5050600060058190556006819055600781905560405134869003945033935084156108fc0292508491818181858888f193505050501580156104af573d6000803e3d6000fd5b50600360009054906101000a9004600160a060020a0316600160a060020a031663fa1932e3836040518263ffffffff1660e060020a0281526004016000604051808303818588803b15801561050357600080fd5b505af1158015610517573d6000803e3d6000fd5b50506040805186815290518a94503393507f682553da668235675371295b1cda200992ebe5c26835d6f26b9658340f3b5f1892509081900360200190a361055e82866101d5565b505050505050565b600554600754600254604080517f23b872dd000000000000000000000000000000000000000000000000000000008152306004820152336024820152604481018590529051600160a060020a03909216916323b872dd9160648082019260009290919082900301818387803b1580156105de57600080fd5b505af11580156105f2573d6000803e3d6000fd5b5050600060058190556006819055600781905560408051918252518593503392507f682553da668235675371295b1cda200992ebe5c26835d6f26b9658340f3b5f189181900360200190a36106486000826101d5565b5050565b60008083111561066e5761066783600163ffffffff61069616565b9050610690565b610667601e61068484601463ffffffff61069616565b9063ffffffff6106bf16565b92915050565b60008215156106a757506000610690565b508181028183828115156106b757fe5b041461069057fe5b600081838115156106cc57fe5b0493925050505600a165627a7a72305820ffc03419bc10030644e8dc7e1399d2e4894ccecbb66b1f8ff361d639acdfd5050029",
  "source": "pragma solidity ^0.4.24;\n\nimport \"./GeneratorRegistry.sol\";\nimport \"./tokens/ArtPieceToken.sol\";\nimport \"./tokens/SoulToken.sol\";\nimport \"openzeppelin-solidity/contracts/math/SafeMath.sol\";\n\ncontract Artonomous {\n    using SafeMath for uint256;\n\n    event ArtonomousAuctionStarted(uint256 indexed blockNumber);\n    event ArtonomousArtBought(address indexed buyer, uint256 indexed blockNumber, uint256 price);\n\n    struct Auction {\n        uint256 blockNumber;\n        uint256 endTime;\n        uint256 startingPrice;\n    }\n\n    uint256 public currentAuctionBlockNumber;\n\n    GeneratorRegistry public registry;\n    ArtPieceToken public pieceToken;\n    SoulToken public soulToken;\n\n    uint256 public AUCTION_LENGTH = 2400; // 24 hours\n    Auction public currentAuction;\n\n    constructor(address stakingAddr, address artToken, address soulTokenAddr) public {\n        registry = GeneratorRegistry(stakingAddr);\n        pieceToken = ArtPieceToken(artToken);   \n        soulToken = SoulToken(soulTokenAddr);\n    }\n\n    function getCurrentAuctionBlockNumber() view public returns (uint256) {\n        return currentAuctionBlockNumber;\n    }\n\n    function startAuction(uint256 prevBoughtPrice, uint256 prevPrice) public {\n        require(currentAuction.blockNumber == 0);\n        Generator currentGenerator = registry.getActiveGenerator();\n        pieceToken.mint(this, block.number, address(currentGenerator));\n        currentAuction = Auction({\n            blockNumber: block.number,\n            endTime: now + AUCTION_LENGTH,\n            startingPrice: getStartingPrice(prevBoughtPrice, prevPrice)\n        });\n        currentAuctionBlockNumber = block.number;\n        emit ArtonomousAuctionStarted(block.number);\n    }\n\n    // placeholder\n    function getStartingPrice(uint256 prevBoughtPrice, uint256 prevPrice) internal pure returns (uint256) {\n        if (prevBoughtPrice > 0) {\n            return prevBoughtPrice.mul(1);\n        } else {\n            return prevPrice.mul(20).div(30);\n        }\n    }\n\n    function buyArt() external payable {\n        uint256 blockNumber = currentAuction.blockNumber;\n        require(blockNumber > 0);\n        if (currentAuction.endTime > now) {\n            buyArtInternal();\n        } else {\n            claimArtInternal();\n        }\n    }\n\n    function buyArtInternal() internal {\n        uint256 blockNumber = currentAuction.blockNumber;\n\n        uint256 startingPrice = currentAuction.startingPrice;\n        uint256 timeLeft = currentAuction.endTime - block.timestamp;\n        uint256 percentageTime = (timeLeft * 10000) / AUCTION_LENGTH;\n        uint256 buyPrice = (percentageTime * startingPrice) / 10000;\n\n        require(msg.value >= buyPrice);\n\n\n        pieceToken.transferFrom(this, msg.sender, blockNumber);\n        delete currentAuction;\n\n        uint256 remainder = msg.value - buyPrice;\n        msg.sender.transfer(remainder); // refund extra\n        soulToken.depositArtPayment.value(buyPrice)();\n\n        emit ArtonomousArtBought(msg.sender, blockNumber, buyPrice);\n\n        startAuction(buyPrice, startingPrice);\n    }\n\n    // after 24 hours, anyone can claim for free\n    function claimArtInternal() internal {\n        uint256 blockNumber = currentAuction.blockNumber;\n        uint256 startingPrice = currentAuction.startingPrice;\n\n        pieceToken.transferFrom(this, msg.sender, blockNumber);\n        delete currentAuction;\n\n        emit ArtonomousArtBought(msg.sender, blockNumber, 0);\n\n        startAuction(0, startingPrice);\n    }\n}\n",
  "sourcePath": "/Users/nickreynolds/Artonomous/artonomous/packages/contracts/contracts/Artonomous.sol",
  "compiler": {
    "name": "solc",
    "version": "0.4.24+commit.e67f0147.Emscripten.clang"
  },
  "schemaVersion": "2.0.1",
  "updatedAt": "2018-12-11T03:02:40.756Z"
}