{
  "contractName": "Artonomous",
  "abi": [
    {
      "constant": true,
      "inputs": [],
      "name": "soulToken",
      "outputs": [
        {
          "name": "",
          "type": "address"
        }
      ],
      "payable": false,
      "stateMutability": "view",
      "type": "function"
    },
    {
      "constant": true,
      "inputs": [],
      "name": "currentAuction",
      "outputs": [
        {
          "name": "blockNumber",
          "type": "uint256"
        },
        {
          "name": "endTime",
          "type": "uint256"
        },
        {
          "name": "startingPrice",
          "type": "uint256"
        }
      ],
      "payable": false,
      "stateMutability": "view",
      "type": "function"
    },
    {
      "constant": true,
      "inputs": [],
      "name": "pieceToken",
      "outputs": [
        {
          "name": "",
          "type": "address"
        }
      ],
      "payable": false,
      "stateMutability": "view",
      "type": "function"
    },
    {
      "constant": true,
      "inputs": [],
      "name": "AUCTION_LENGTH",
      "outputs": [
        {
          "name": "",
          "type": "uint256"
        }
      ],
      "payable": false,
      "stateMutability": "view",
      "type": "function"
    },
    {
      "constant": true,
      "inputs": [],
      "name": "registry",
      "outputs": [
        {
          "name": "",
          "type": "address"
        }
      ],
      "payable": false,
      "stateMutability": "view",
      "type": "function"
    },
    {
      "inputs": [
        {
          "name": "stakingAddr",
          "type": "address"
        },
        {
          "name": "artToken",
          "type": "address"
        },
        {
          "name": "soulTokenAddr",
          "type": "address"
        }
      ],
      "payable": false,
      "stateMutability": "nonpayable",
      "type": "constructor"
    },
    {
      "anonymous": false,
      "inputs": [
        {
          "indexed": true,
          "name": "blockNumber",
          "type": "uint256"
        }
      ],
      "name": "ArtonomousAuctionStarted",
      "type": "event"
    },
    {
      "anonymous": false,
      "inputs": [
        {
          "indexed": true,
          "name": "buyer",
          "type": "address"
        },
        {
          "indexed": true,
          "name": "blockNumber",
          "type": "uint256"
        },
        {
          "indexed": false,
          "name": "price",
          "type": "uint256"
        }
      ],
      "name": "ArtonomousArtBought",
      "type": "event"
    },
    {
      "constant": false,
      "inputs": [
        {
          "name": "prevBoughtPrice",
          "type": "uint256"
        },
        {
          "name": "prevPrice",
          "type": "uint256"
        }
      ],
      "name": "startAuction",
      "outputs": [],
      "payable": false,
      "stateMutability": "nonpayable",
      "type": "function"
    },
    {
      "constant": false,
      "inputs": [],
      "name": "buyArt",
      "outputs": [],
      "payable": true,
      "stateMutability": "payable",
      "type": "function"
    }
  ],
  "bytecode": "0x608060405261016860035534801561001657600080fd5b5060405160608061074783398101604090815281516020830151919092015160008054600160a060020a0319908116600160a060020a039586161782556001805482169486169490941790935560028054909316939091169290921790556106c390819061008490396000f3006080604052600436106100695763ffffffff60e060020a6000350416632d5f4a1e811461006e578063496a698d1461009f5780634e9e136d146100d25780634fee13fc146100dc57806355d41692146100f7578063635af9ad1461010c5780637b10399914610133575b600080fd5b34801561007a57600080fd5b50610083610148565b60408051600160a060020a039092168252519081900360200190f35b3480156100ab57600080fd5b506100b4610157565b60408051938452602084019290925282820152519081900360600190f35b6100da610163565b005b3480156100e857600080fd5b506100da600435602435610195565b34801561010357600080fd5b5061008361032f565b34801561011857600080fd5b5061012161033e565b60408051918252519081900360200190f35b34801561013f57600080fd5b50610083610344565b600254600160a060020a031681565b60045460055460065483565b6004546000811161017357600080fd5b60055442101561018a57610185610353565b610192565b610192610512565b50565b600454600090156101a557600080fd5b6000809054906101000a9004600160a060020a0316600160a060020a031663471b2e2a6040518163ffffffff1660e060020a028152600401602060405180830381600087803b1580156101f757600080fd5b505af115801561020b573d6000803e3d6000fd5b505050506040513d602081101561022157600080fd5b5051600154604080517f0d4d1513000000000000000000000000000000000000000000000000000000008152306004820152436024820152600160a060020a0380851660448301529151939450911691630d4d1513916064808201926020929091908290030181600087803b15801561029957600080fd5b505af11580156102ad573d6000803e3d6000fd5b505050506040513d60208110156102c357600080fd5b505060408051606081018252438152600354420160208201529081016102e98585610607565b9052805160045560208101516005556040908101516006555143907f88f30d4843736b55afaa342b7fbcc8c3c666f2451fb4fcda585d98dcc484f55590600090a2505050565b600154600160a060020a031681565b60035481565b600054600160a060020a031681565b6004546006546000908190819061036990610656565b925082600354426004600101540381151561038057fe5b040291503482111561039157600080fd5b600154604080517f23b872dd000000000000000000000000000000000000000000000000000000008152306004820152336024820152604481018790529051600160a060020a03909216916323b872dd9160648082019260009290919082900301818387803b15801561040357600080fd5b505af1158015610417573d6000803e3d6000fd5b5050600060048190556005819055600681905560405134869003945033935084156108fc0292508491818181858888f1935050505015801561045d573d6000803e3d6000fd5b50600260009054906101000a9004600160a060020a0316600160a060020a031663fa1932e3836040518263ffffffff1660e060020a0281526004016000604051808303818588803b1580156104b157600080fd5b505af11580156104c5573d6000803e3d6000fd5b50506040805186815290518894503393507f682553da668235675371295b1cda200992ebe5c26835d6f26b9658340f3b5f1892509081900360200190a361050c8284610195565b50505050565b60045460065460009061052490610656565b600154604080517f23b872dd000000000000000000000000000000000000000000000000000000008152306004820152336024820152604481018690529051929350600160a060020a03909116916323b872dd9160648082019260009290919082900301818387803b15801561059957600080fd5b505af11580156105ad573d6000803e3d6000fd5b5050600060048190556005819055600681905560408051918252518593503392507f682553da668235675371295b1cda200992ebe5c26835d6f26b9658340f3b5f189181900360200190a3610603600082610195565b5050565b60008083111561063a57610633600261062785601463ffffffff61065916565b9063ffffffff61068216565b9050610650565b610633601561062784601463ffffffff61065916565b92915050565b90565b600082151561066a57506000610650565b5081810281838281151561067a57fe5b041461065057fe5b6000818381151561068f57fe5b0493925050505600a165627a7a72305820f2df142f6f50a52d42ed97f498988d110d2c94f7c74fb43fe7f287a6ff88c3f10029",
  "source": "pragma solidity ^0.4.24;\n\nimport \"./GeneratorRegistry.sol\";\nimport \"./tokens/ArtPieceToken.sol\";\nimport \"./tokens/SoulToken.sol\";\nimport \"openzeppelin-solidity/contracts/math/SafeMath.sol\";\n\ncontract Artonomous {\n    using SafeMath for uint256;\n\n    event ArtonomousAuctionStarted(uint indexed blockNumber);\n    event ArtonomousArtBought(address indexed buyer, uint indexed blockNumber, uint price);\n\n    struct Auction {\n        uint blockNumber;\n        uint endTime;\n        uint startingPrice;\n    }\n\n    GeneratorRegistry public registry;\n    ArtPieceToken public pieceToken;\n    SoulToken public soulToken;\n\n    uint public AUCTION_LENGTH = 360; // 6 minutes\n    Auction public currentAuction;\n\n    constructor(address stakingAddr, address artToken, address soulTokenAddr) public {\n        registry = GeneratorRegistry(stakingAddr);\n        pieceToken = ArtPieceToken(artToken);   \n        soulToken = SoulToken(soulTokenAddr);\n    }\n\n    function startAuction(uint prevBoughtPrice, uint prevPrice) public {\n        require(currentAuction.blockNumber == 0);\n        Generator currentGenerator = registry.getActiveGenerator();\n        pieceToken.mint(this, block.number, address(currentGenerator));\n        currentAuction = Auction({\n            blockNumber: block.number,\n            endTime: now + AUCTION_LENGTH,\n            startingPrice: getStartingPrice(prevBoughtPrice, prevPrice)\n        });\n        emit ArtonomousAuctionStarted(block.number);\n    }\n\n    // placeholder\n    function getStartingPrice(uint prevBoughtPrice, uint prevPrice) internal pure returns (uint) {\n        if (prevBoughtPrice > 0) {\n            return prevBoughtPrice.mul(20).div(2);\n        } else {\n            return prevPrice.mul(20).div(21);\n        }\n    }\n\n    function buyArt() external payable {\n        uint blockNumber = currentAuction.blockNumber;\n        require(blockNumber > 0);\n        if (currentAuction.endTime > now) {\n            buyArtInternal();\n        } else {\n            claimArtInternal();\n        }\n    }\n\n    function buyArtInternal() internal {\n        uint blockNumber = currentAuction.blockNumber;\n\n        uint startingPrice = getBuyPrice(currentAuction.startingPrice);\n\n        uint buyPrice = ((currentAuction.endTime - now) / AUCTION_LENGTH) * startingPrice;\n\n        require(msg.value >= buyPrice);\n\n\n        pieceToken.transferFrom(this, msg.sender, blockNumber);\n        delete currentAuction;\n\n        uint remainder = msg.value - buyPrice;\n        msg.sender.transfer(remainder); // refund extra\n        soulToken.depositArtPayment.value(buyPrice)();\n\n        emit ArtonomousArtBought(msg.sender, blockNumber, buyPrice);\n\n        startAuction(buyPrice, startingPrice);\n    }\n\n    // placeholder\n    function getBuyPrice(uint startingPrice) internal pure returns (uint) {\n        return startingPrice;\n    }\n\n    // after 24 hours, anyone can claim for free\n    function claimArtInternal() internal {\n        uint blockNumber = currentAuction.blockNumber;\n        uint startingPrice = getBuyPrice(currentAuction.startingPrice);\n\n        pieceToken.transferFrom(this, msg.sender, blockNumber);\n        delete currentAuction;\n\n        emit ArtonomousArtBought(msg.sender, blockNumber, 0);\n\n        startAuction(0, startingPrice);\n    }\n}\n",
  "sourcePath": "/Users/nickreynolds/Artonomous/artonomous/packages/contracts/contracts/Artonomous.sol",
  "compiler": {
    "name": "solc",
    "version": "0.4.24+commit.e67f0147.Emscripten.clang"
  },
  "schemaVersion": "2.0.1",
  "updatedAt": "2018-11-10T07:39:31.609Z"
}