{
  "contractName": "Artonomous",
  "abi": [
    {
      "constant": true,
      "inputs": [],
      "name": "beneficiary",
      "outputs": [
        {
          "name": "",
          "type": "address"
        }
      ],
      "payable": false,
      "stateMutability": "view",
      "type": "function"
    },
    {
      "constant": true,
      "inputs": [],
      "name": "currentAuction",
      "outputs": [
        {
          "name": "blockNumber",
          "type": "uint256"
        },
        {
          "name": "endTime",
          "type": "uint256"
        },
        {
          "name": "startingPrice",
          "type": "uint256"
        }
      ],
      "payable": false,
      "stateMutability": "view",
      "type": "function"
    },
    {
      "constant": true,
      "inputs": [],
      "name": "pieceToken",
      "outputs": [
        {
          "name": "",
          "type": "address"
        }
      ],
      "payable": false,
      "stateMutability": "view",
      "type": "function"
    },
    {
      "constant": true,
      "inputs": [],
      "name": "AUCTION_LENGTH",
      "outputs": [
        {
          "name": "",
          "type": "uint256"
        }
      ],
      "payable": false,
      "stateMutability": "view",
      "type": "function"
    },
    {
      "constant": true,
      "inputs": [],
      "name": "registry",
      "outputs": [
        {
          "name": "",
          "type": "address"
        }
      ],
      "payable": false,
      "stateMutability": "view",
      "type": "function"
    },
    {
      "inputs": [
        {
          "name": "stakingAddr",
          "type": "address"
        },
        {
          "name": "artToken",
          "type": "address"
        }
      ],
      "payable": false,
      "stateMutability": "nonpayable",
      "type": "constructor"
    },
    {
      "anonymous": false,
      "inputs": [
        {
          "indexed": true,
          "name": "blockNumber",
          "type": "uint256"
        }
      ],
      "name": "ArtonomousAuctionStarted",
      "type": "event"
    },
    {
      "anonymous": false,
      "inputs": [
        {
          "indexed": true,
          "name": "buyer",
          "type": "address"
        },
        {
          "indexed": true,
          "name": "blockNumber",
          "type": "uint256"
        },
        {
          "indexed": false,
          "name": "price",
          "type": "uint256"
        }
      ],
      "name": "ArtonomousArtBought",
      "type": "event"
    },
    {
      "anonymous": false,
      "inputs": [
        {
          "indexed": true,
          "name": "claimant",
          "type": "address"
        },
        {
          "indexed": true,
          "name": "blockNumber",
          "type": "uint256"
        }
      ],
      "name": "ArtonomousArtClaimed",
      "type": "event"
    },
    {
      "constant": false,
      "inputs": [],
      "name": "startAuction",
      "outputs": [],
      "payable": false,
      "stateMutability": "nonpayable",
      "type": "function"
    },
    {
      "constant": false,
      "inputs": [],
      "name": "buyArt",
      "outputs": [],
      "payable": true,
      "stateMutability": "payable",
      "type": "function"
    },
    {
      "constant": false,
      "inputs": [],
      "name": "claimArt",
      "outputs": [],
      "payable": false,
      "stateMutability": "nonpayable",
      "type": "function"
    }
  ],
  "bytecode": "0x60806040526201518060035534801561001757600080fd5b5060405160408061065783398101604052805160209091015160008054600160a060020a03938416600160a060020a031991821617909155600180549390921692811692909217905560028054909116301790556105dd8061007a6000396000f30060806040526004361061008d5763ffffffff7c010000000000000000000000000000000000000000000000000000000060003504166338af3eed8114610092578063496a698d146100c35780634e9e136d146100f657806355d4169214610100578063635af9ad146101155780636b64c7691461013c5780637b10399914610151578063d92f20f414610166575b600080fd5b34801561009e57600080fd5b506100a761017b565b60408051600160a060020a039092168252519081900360200190f35b3480156100cf57600080fd5b506100d861018a565b60408051938452602084019290925282820152519081900360600190f35b6100fe610196565b005b34801561010c57600080fd5b506100a76102e2565b34801561012157600080fd5b5061012a6102f1565b60408051918252519081900360200190f35b34801561014857600080fd5b506100fe6102f7565b34801561015d57600080fd5b506100a76104a6565b34801561017257600080fd5b506100fe6104b5565b600254600160a060020a031681565b60045460055460065483565b6004546000808083116101a857600080fd5b60055442106101b657600080fd5b6006546101c2906105a5565b9150348211156101d157600080fd5b600154604080517f23b872dd000000000000000000000000000000000000000000000000000000008152306004820152336024820152604481018690529051600160a060020a03909216916323b872dd9160648082019260009290919082900301818387803b15801561024357600080fd5b505af1158015610257573d6000803e3d6000fd5b5050600060048190556005819055600681905560405134869003945033935084156108fc0292508491818181858888f1935050505015801561029d573d6000803e3d6000fd5b50604080518381529051849133917f682553da668235675371295b1cda200992ebe5c26835d6f26b9658340f3b5f189181900360200190a36102dd6102f7565b505050565b600154600160a060020a031681565b60035481565b6004546000901561030757600080fd5b6000809054906101000a9004600160a060020a0316600160a060020a031663471b2e2a6040518163ffffffff167c0100000000000000000000000000000000000000000000000000000000028152600401602060405180830381600087803b15801561037257600080fd5b505af1158015610386573d6000803e3d6000fd5b505050506040513d602081101561039c57600080fd5b5051600154604080517f0d4d1513000000000000000000000000000000000000000000000000000000008152306004820152436024820152600160a060020a0380851660448301529151939450911691630d4d1513916064808201926020929091908290030181600087803b15801561041457600080fd5b505af1158015610428573d6000803e3d6000fd5b505050506040513d602081101561043e57600080fd5b505060408051606081018252438152600354420160208201529081016104626105a8565b9052805160045560208101516005556040908101516006555143907f88f30d4843736b55afaa342b7fbcc8c3c666f2451fb4fcda585d98dcc484f55590600090a250565b600054600160a060020a031681565b600454600081116104c557600080fd5b6005544210156104d457600080fd5b600154604080517f23b872dd000000000000000000000000000000000000000000000000000000008152306004820152336024820152604481018490529051600160a060020a03909216916323b872dd9160648082019260009290919082900301818387803b15801561054657600080fd5b505af115801561055a573d6000803e3d6000fd5b505060006004819055600581905560068190556040518493503392507ff567a0a57233e406978940ccd12ded9982296245a1dcaeff95e906cd2988fb5c9190a36105a26102f7565b50565b90565b64e8d4a51000905600a165627a7a72305820fc3d67126fc19e7a496793d241768e73dc20098604c3f00b05290977f80513e20029",
  "source": "pragma solidity ^0.4.24;\n\nimport \"./GeneratorRegistry.sol\";\nimport \"./tokens/ArtPieceToken.sol\";\n\ncontract Artonomous {\n\n    event ArtonomousAuctionStarted(uint indexed blockNumber);\n    event ArtonomousArtBought(address indexed buyer, uint indexed blockNumber, uint price);\n    event ArtonomousArtClaimed(address indexed claimant, uint indexed blockNumber);\n\n    struct Auction {\n        uint blockNumber;\n        uint endTime;\n        uint startingPrice;\n    }\n\n    GeneratorRegistry public registry;\n    ArtPieceToken public pieceToken;\n    address public beneficiary; // receives ether gained from purchases\n\n    uint public AUCTION_LENGTH = 86400; // 24 hours\n    Auction public currentAuction;\n\n    constructor(address stakingAddr, address artToken) public {\n        registry = GeneratorRegistry(stakingAddr);\n        pieceToken = ArtPieceToken(artToken);\n        beneficiary = this;\n    }\n\n    function startAuction() public {\n        require(currentAuction.blockNumber == 0);\n        Generator currentGenerator = registry.getActiveGenerator();\n        pieceToken.mint(this, block.number, address(currentGenerator));\n        currentAuction = Auction({\n            blockNumber: block.number,\n            endTime: now + AUCTION_LENGTH,\n            startingPrice: getStartingPrice()\n        });\n        emit ArtonomousAuctionStarted(block.number);\n    }\n\n    // placeholder\n    function getStartingPrice() internal pure returns (uint) {\n        return 1000000000000;\n    }\n\n    function buyArt() external payable {\n        uint blockNumber = currentAuction.blockNumber;\n        require(blockNumber > 0);\n        require(currentAuction.endTime > now);\n\n        uint buyPrice = getBuyPrice(currentAuction.startingPrice);\n        require(msg.value >= buyPrice);\n\n\n        pieceToken.transferFrom(this, msg.sender, blockNumber);\n        delete currentAuction;\n\n        uint remainder = msg.value - buyPrice;\n        msg.sender.transfer(remainder); // refund extra\n        // beneficiary.transfer(buyPrice); // pay Artonomous' beneficiary\n\n        emit ArtonomousArtBought(msg.sender, blockNumber, buyPrice);\n\n        startAuction();\n    }\n\n    // placeholder\n    function getBuyPrice(uint startingPrice) internal pure returns (uint) {\n        return startingPrice;\n    }\n\n    // after 24 hours, anyone can claim for free\n    function claimArt() external {\n        uint blockNumber = currentAuction.blockNumber;\n        require(blockNumber > 0);\n        require(currentAuction.endTime <= now);\n\n        pieceToken.transferFrom(this, msg.sender, blockNumber);\n        delete currentAuction;\n\n        emit ArtonomousArtClaimed(msg.sender, blockNumber);\n\n        startAuction();\n    }\n}\n",
  "sourcePath": "/Users/nickreynolds/Artonomous/artonomous/packages/contracts/contracts/Artonomous.sol",
  "compiler": {
    "name": "solc",
    "version": "0.4.24+commit.e67f0147.Emscripten.clang"
  },
  "schemaVersion": "2.0.1",
  "updatedAt": "2018-10-19T21:31:46.766Z"
}