{
  "contractName": "Artonomous",
  "abi": [
    {
      "constant": true,
      "inputs": [],
      "name": "soulToken",
      "outputs": [
        {
          "name": "",
          "type": "address"
        }
      ],
      "payable": false,
      "stateMutability": "view",
      "type": "function"
    },
    {
      "constant": true,
      "inputs": [],
      "name": "currentAuction",
      "outputs": [
        {
          "name": "blockNumber",
          "type": "uint256"
        },
        {
          "name": "endTime",
          "type": "uint256"
        },
        {
          "name": "startingPrice",
          "type": "uint256"
        }
      ],
      "payable": false,
      "stateMutability": "view",
      "type": "function"
    },
    {
      "constant": true,
      "inputs": [],
      "name": "pieceToken",
      "outputs": [
        {
          "name": "",
          "type": "address"
        }
      ],
      "payable": false,
      "stateMutability": "view",
      "type": "function"
    },
    {
      "constant": true,
      "inputs": [],
      "name": "AUCTION_LENGTH",
      "outputs": [
        {
          "name": "",
          "type": "uint256"
        }
      ],
      "payable": false,
      "stateMutability": "view",
      "type": "function"
    },
    {
      "constant": true,
      "inputs": [],
      "name": "registry",
      "outputs": [
        {
          "name": "",
          "type": "address"
        }
      ],
      "payable": false,
      "stateMutability": "view",
      "type": "function"
    },
    {
      "inputs": [
        {
          "name": "stakingAddr",
          "type": "address"
        },
        {
          "name": "artToken",
          "type": "address"
        },
        {
          "name": "soulTokenAddr",
          "type": "address"
        }
      ],
      "payable": false,
      "stateMutability": "nonpayable",
      "type": "constructor"
    },
    {
      "anonymous": false,
      "inputs": [
        {
          "indexed": true,
          "name": "blockNumber",
          "type": "uint256"
        }
      ],
      "name": "ArtonomousAuctionStarted",
      "type": "event"
    },
    {
      "anonymous": false,
      "inputs": [
        {
          "indexed": true,
          "name": "buyer",
          "type": "address"
        },
        {
          "indexed": true,
          "name": "blockNumber",
          "type": "uint256"
        },
        {
          "indexed": false,
          "name": "price",
          "type": "uint256"
        }
      ],
      "name": "ArtonomousArtBought",
      "type": "event"
    },
    {
      "constant": false,
      "inputs": [],
      "name": "startAuction",
      "outputs": [],
      "payable": false,
      "stateMutability": "nonpayable",
      "type": "function"
    },
    {
      "constant": false,
      "inputs": [],
      "name": "buyArt",
      "outputs": [],
      "payable": true,
      "stateMutability": "payable",
      "type": "function"
    }
  ],
  "bytecode": "0x60806040526201518060035534801561001757600080fd5b5060405160608061068a83398101604090815281516020830151919092015160008054600160a060020a0319908116600160a060020a0395861617825560018054821694861694909417909355600280549093169390911692909217905561060590819061008590396000f3006080604052600436106100695763ffffffff60e060020a6000350416632d5f4a1e811461006e578063496a698d1461009f5780634e9e136d146100d257806355d41692146100dc578063635af9ad146100f15780636b64c769146101185780637b1039991461012d575b600080fd5b34801561007a57600080fd5b50610083610142565b60408051600160a060020a039092168252519081900360200190f35b3480156100ab57600080fd5b506100b4610151565b60408051938452602084019290925282820152519081900360600190f35b6100da61015d565b005b3480156100e857600080fd5b5061008361018f565b3480156100fd57600080fd5b5061010661019e565b60408051918252519081900360200190f35b34801561012457600080fd5b506100da6101a4565b34801561013957600080fd5b5061008361033a565b600254600160a060020a031681565b60045460055460065483565b6004546000811161016d57600080fd5b6005544210156101845761017f610349565b61018c565b61018c6104ea565b50565b600154600160a060020a031681565b60035481565b600454600090156101b457600080fd5b6000809054906101000a9004600160a060020a0316600160a060020a031663471b2e2a6040518163ffffffff1660e060020a028152600401602060405180830381600087803b15801561020657600080fd5b505af115801561021a573d6000803e3d6000fd5b505050506040513d602081101561023057600080fd5b5051600154604080517f0d4d1513000000000000000000000000000000000000000000000000000000008152306004820152436024820152600160a060020a0380851660448301529151939450911691630d4d1513916064808201926020929091908290030181600087803b1580156102a857600080fd5b505af11580156102bc573d6000803e3d6000fd5b505050506040513d60208110156102d257600080fd5b505060408051606081018252438152600354420160208201529081016102f66105ca565b9052805160045560208101516005556040908101516006555143907f88f30d4843736b55afaa342b7fbcc8c3c666f2451fb4fcda585d98dcc484f55590600090a250565b600054600160a060020a031681565b600454600654600090819061035d906105d6565b91503482111561036c57600080fd5b600154604080517f23b872dd000000000000000000000000000000000000000000000000000000008152306004820152336024820152604481018690529051600160a060020a03909216916323b872dd9160648082019260009290919082900301818387803b1580156103de57600080fd5b505af11580156103f2573d6000803e3d6000fd5b5050600060048190556005819055600681905560405134869003945033935084156108fc0292508491818181858888f19350505050158015610438573d6000803e3d6000fd5b50600260009054906101000a9004600160a060020a0316600160a060020a031663fa1932e3836040518263ffffffff1660e060020a0281526004016000604051808303818588803b15801561048c57600080fd5b505af11580156104a0573d6000803e3d6000fd5b50506040805186815290518794503393507f682553da668235675371295b1cda200992ebe5c26835d6f26b9658340f3b5f1892509081900360200190a36104e56101a4565b505050565b60048054600154604080517f23b872dd000000000000000000000000000000000000000000000000000000008152309481019490945233602485015260448401839052519192600160a060020a03909116916323b872dd9160648082019260009290919082900301818387803b15801561056357600080fd5b505af1158015610577573d6000803e3d6000fd5b5050600060048190556005819055600681905560408051918252518493503392507f682553da668235675371295b1cda200992ebe5c26835d6f26b9658340f3b5f189181900360200190a361018c6101a4565b67016345785d8a000090565b905600a165627a7a7230582052152f95e1cdd69c15d78e1b8da140670fe0cd032d09e0f319ac77b3e3d4ffa70029",
  "source": "pragma solidity ^0.4.24;\n\nimport \"./GeneratorRegistry.sol\";\nimport \"./tokens/ArtPieceToken.sol\";\nimport \"./tokens/SoulToken.sol\";\n\ncontract Artonomous {\n\n    event ArtonomousAuctionStarted(uint indexed blockNumber);\n    event ArtonomousArtBought(address indexed buyer, uint indexed blockNumber, uint price);\n\n    struct Auction {\n        uint blockNumber;\n        uint endTime;\n        uint startingPrice;\n    }\n\n    GeneratorRegistry public registry;\n    ArtPieceToken public pieceToken;\n    SoulToken public soulToken;\n\n    uint public AUCTION_LENGTH = 86400; // 24 hours\n    Auction public currentAuction;\n\n    constructor(address stakingAddr, address artToken, address soulTokenAddr) public {\n        registry = GeneratorRegistry(stakingAddr);\n        pieceToken = ArtPieceToken(artToken);   \n        soulToken = SoulToken(soulTokenAddr);\n    }\n\n    function startAuction() public {\n        require(currentAuction.blockNumber == 0);\n        Generator currentGenerator = registry.getActiveGenerator();\n        pieceToken.mint(this, block.number, address(currentGenerator));\n        currentAuction = Auction({\n            blockNumber: block.number,\n            endTime: now + AUCTION_LENGTH,\n            startingPrice: getStartingPrice()\n        });\n        emit ArtonomousAuctionStarted(block.number);\n    }\n\n    // placeholder\n    function getStartingPrice() internal pure returns (uint) {\n        return 100000000000000000;\n    }\n\n    function buyArt() external payable {\n        uint blockNumber = currentAuction.blockNumber;\n        require(blockNumber > 0);\n        if (currentAuction.endTime > now) {\n            buyArtInternal();\n        } else {\n            claimArtInternal();\n        }\n    }\n\n    function buyArtInternal() internal {\n        uint blockNumber = currentAuction.blockNumber;\n\n        uint buyPrice = getBuyPrice(currentAuction.startingPrice);\n        require(msg.value >= buyPrice);\n\n\n        pieceToken.transferFrom(this, msg.sender, blockNumber);\n        delete currentAuction;\n\n        uint remainder = msg.value - buyPrice;\n        msg.sender.transfer(remainder); // refund extra\n        soulToken.depositArtPayment.value(buyPrice)();\n\n        emit ArtonomousArtBought(msg.sender, blockNumber, buyPrice);\n\n        startAuction();\n    }\n\n    // placeholder\n    function getBuyPrice(uint startingPrice) internal pure returns (uint) {\n        return startingPrice;\n    }\n\n    // after 24 hours, anyone can claim for free\n    function claimArtInternal() internal {\n        uint blockNumber = currentAuction.blockNumber;\n\n        pieceToken.transferFrom(this, msg.sender, blockNumber);\n        delete currentAuction;\n\n        emit ArtonomousArtBought(msg.sender, blockNumber, 0);\n\n        startAuction();\n    }\n}\n",
  "sourcePath": "/Users/nickreynolds/Artonomous/artonomous/packages/contracts/contracts/Artonomous.sol",
  "compiler": {
    "name": "solc",
    "version": "0.4.24+commit.e67f0147.Emscripten.clang"
  },
  "schemaVersion": "2.0.1",
  "updatedAt": "2018-11-09T23:25:31.223Z"
}