{
  "contractName": "Artonomous",
  "abi": [
    {
      "constant": true,
      "inputs": [],
      "name": "soulToken",
      "outputs": [
        {
          "name": "",
          "type": "address"
        }
      ],
      "payable": false,
      "stateMutability": "view",
      "type": "function"
    },
    {
      "constant": true,
      "inputs": [],
      "name": "beneficiary",
      "outputs": [
        {
          "name": "",
          "type": "address"
        }
      ],
      "payable": false,
      "stateMutability": "view",
      "type": "function"
    },
    {
      "constant": true,
      "inputs": [],
      "name": "currentAuction",
      "outputs": [
        {
          "name": "blockNumber",
          "type": "uint256"
        },
        {
          "name": "endTime",
          "type": "uint256"
        },
        {
          "name": "startingPrice",
          "type": "uint256"
        },
        {
          "name": "generator",
          "type": "address"
        }
      ],
      "payable": false,
      "stateMutability": "view",
      "type": "function"
    },
    {
      "constant": true,
      "inputs": [],
      "name": "pieceToken",
      "outputs": [
        {
          "name": "",
          "type": "address"
        }
      ],
      "payable": false,
      "stateMutability": "view",
      "type": "function"
    },
    {
      "constant": true,
      "inputs": [],
      "name": "AUCTION_LENGTH",
      "outputs": [
        {
          "name": "",
          "type": "uint256"
        }
      ],
      "payable": false,
      "stateMutability": "view",
      "type": "function"
    },
    {
      "constant": true,
      "inputs": [],
      "name": "registry",
      "outputs": [
        {
          "name": "",
          "type": "address"
        }
      ],
      "payable": false,
      "stateMutability": "view",
      "type": "function"
    },
    {
      "constant": true,
      "inputs": [],
      "name": "currentAuctionBlockNumber",
      "outputs": [
        {
          "name": "",
          "type": "uint256"
        }
      ],
      "payable": false,
      "stateMutability": "view",
      "type": "function"
    },
    {
      "constant": true,
      "inputs": [],
      "name": "reserveToken",
      "outputs": [
        {
          "name": "",
          "type": "address"
        }
      ],
      "payable": false,
      "stateMutability": "view",
      "type": "function"
    },
    {
      "inputs": [
        {
          "name": "stakingAddr",
          "type": "address"
        },
        {
          "name": "artToken",
          "type": "address"
        },
        {
          "name": "soulTokenAddr",
          "type": "address"
        },
        {
          "name": "reserveTokenAddr",
          "type": "address"
        },
        {
          "name": "beneficiaryAddr",
          "type": "address"
        }
      ],
      "payable": false,
      "stateMutability": "nonpayable",
      "type": "constructor"
    },
    {
      "anonymous": false,
      "inputs": [
        {
          "indexed": true,
          "name": "blockNumber",
          "type": "uint256"
        }
      ],
      "name": "ArtonomousAuctionStarted",
      "type": "event"
    },
    {
      "anonymous": false,
      "inputs": [
        {
          "indexed": true,
          "name": "buyer",
          "type": "address"
        },
        {
          "indexed": true,
          "name": "blockNumber",
          "type": "uint256"
        },
        {
          "indexed": false,
          "name": "price",
          "type": "uint256"
        }
      ],
      "name": "ArtonomousArtBought",
      "type": "event"
    },
    {
      "constant": true,
      "inputs": [],
      "name": "getCurrentAuctionBlockNumber",
      "outputs": [
        {
          "name": "",
          "type": "uint256"
        }
      ],
      "payable": false,
      "stateMutability": "view",
      "type": "function"
    },
    {
      "constant": false,
      "inputs": [
        {
          "name": "prevBoughtPrice",
          "type": "uint256"
        },
        {
          "name": "prevPrice",
          "type": "uint256"
        }
      ],
      "name": "startAuction",
      "outputs": [],
      "payable": false,
      "stateMutability": "nonpayable",
      "type": "function"
    },
    {
      "constant": false,
      "inputs": [
        {
          "name": "value",
          "type": "uint256"
        }
      ],
      "name": "buyArt",
      "outputs": [],
      "payable": false,
      "stateMutability": "nonpayable",
      "type": "function"
    }
  ],
  "bytecode": "0x608060405261096060065534801561001657600080fd5b5060405160a0806108ba8339810160409081528151602083015191830151606084015160809094015160018054600160a060020a0319908116600160a060020a039586161790915560028054821695851695909517909455600380548516928416929092179091556004805484169483169490941790935560058054909216921691909117905561080e806100ac6000396000f3006080604052600436106100ae5763ffffffff7c01000000000000000000000000000000000000000000000000000000006000350416632d5f4a1e81146100b357806338af3eed146100e4578063496a698d146100f95780634fee13fc1461013d57806355d416921461015a5780635deae7921461016f578063635af9ad146101965780637b103999146101ab578063e056e68e146101c0578063f4325d67146101d5578063fc7a900b146101ea575b600080fd5b3480156100bf57600080fd5b506100c8610202565b60408051600160a060020a039092168252519081900360200190f35b3480156100f057600080fd5b506100c8610211565b34801561010557600080fd5b5061010e610220565b60408051948552602085019390935283830191909152600160a060020a03166060830152519081900360800190f35b34801561014957600080fd5b50610158600435602435610238565b005b34801561016657600080fd5b506100c8610428565b34801561017b57600080fd5b50610184610437565b60408051918252519081900360200190f35b3480156101a257600080fd5b5061018461043d565b3480156101b757600080fd5b506100c8610443565b3480156101cc57600080fd5b50610184610452565b3480156101e157600080fd5b506100c8610458565b3480156101f657600080fd5b50610158600435610467565b600354600160a060020a031681565b600554600160a060020a031681565b600754600854600954600a54600160a060020a031684565b6007546000901561024857600080fd5b600160009054906101000a9004600160a060020a0316600160a060020a031663471b2e2a6040518163ffffffff167c0100000000000000000000000000000000000000000000000000000000028152600401602060405180830381600087803b1580156102b457600080fd5b505af11580156102c8573d6000803e3d6000fd5b505050506040513d60208110156102de57600080fd5b5051600254604080517f0d4d1513000000000000000000000000000000000000000000000000000000008152306004820152436024820152600160a060020a0380851660448301529151939450911691630d4d1513916064808201926020929091908290030181600087803b15801561035657600080fd5b505af115801561036a573d6000803e3d6000fd5b505050506040513d602081101561038057600080fd5b505060408051608081018252438152600654420160208201529081016103a6858561049b565b8152600160a060020a03838116602092830152825160075590820151600855604080830151600955606090920151600a805473ffffffffffffffffffffffffffffffffffffffff191691909216179055436000818155915190917f88f30d4843736b55afaa342b7fbcc8c3c666f2451fb4fcda585d98dcc484f55591a2505050565b600254600160a060020a031681565b60005490565b60065481565b600154600160a060020a031681565b60005481565b600454600160a060020a031681565b6007546000811161047757600080fd5b60085442101561048f5761048a826104e5565b610497565b610497610693565b5050565b6000808311156104bd576104b683600163ffffffff61079216565b90506104df565b6104b6601e6104d384601463ffffffff61079216565b9063ffffffff6107bb16565b92915050565b60075460095460085460065442909103906000908190819081908190612710870281151561050f57fe5b049450612710878602600a549190049450600160a060020a031692508389101561053857600080fd5b60048054604080517f23b872dd0000000000000000000000000000000000000000000000000000000081523393810193909352306024840152604483018c905251600160a060020a03909116916323b872dd9160648083019260209291908290030181600087803b1580156105ac57600080fd5b505af11580156105c0573d6000803e3d6000fd5b505050506040513d60208110156105d657600080fd5b505115156105e357600080fd5b600060078190556008819055600955600a805473ffffffffffffffffffffffffffffffffffffffff1916905561062084600363ffffffff6107bb16565b915061064361063683600263ffffffff61079216565b859063ffffffff6107d016565b604080518281529051919250899133917f682553da668235675371295b1cda200992ebe5c26835d6f26b9658340f3b5f18919081900360200190a36106888488610238565b505050505050505050565b600754600954600254604080517f23b872dd000000000000000000000000000000000000000000000000000000008152306004820152336024820152604481018590529051600160a060020a03909216916323b872dd9160648082019260009290919082900301818387803b15801561070b57600080fd5b505af115801561071f573d6000803e3d6000fd5b50506000600781905560088190556009819055600a805473ffffffffffffffffffffffffffffffffffffffff1916905560408051918252518593503392507f682553da668235675371295b1cda200992ebe5c26835d6f26b9658340f3b5f189181900360200190a3610497600082610238565b60008215156107a3575060006104df565b508181028183828115156107b357fe5b04146104df57fe5b600081838115156107c857fe5b049392505050565b6000828211156107dc57fe5b509003905600a165627a7a72305820ff212369b749fe01497511f69ff0118814d41037abc8157c7a88d422f01e1d1c0029",
  "source": "pragma solidity ^0.4.24;\n\nimport \"./GeneratorRegistry.sol\";\nimport \"./tokens/ArtPieceToken.sol\";\nimport \"./tokens/SoulToken.sol\";\nimport \"openzeppelin-solidity/contracts/math/SafeMath.sol\";\nimport \"openzeppelin-solidity/contracts/token/ERC20/StandardToken.sol\";\n\n\ncontract Artonomous {\n    using SafeMath for uint256;\n\n    event ArtonomousAuctionStarted(uint256 indexed blockNumber);\n    event ArtonomousArtBought(address indexed buyer, uint256 indexed blockNumber, uint256 price);\n\n    struct Auction {\n        uint256 blockNumber;\n        uint256 endTime;\n        uint256 startingPrice;\n        Generator generator;\n    }\n\n    uint256 public currentAuctionBlockNumber;\n\n    GeneratorRegistry public registry;\n    ArtPieceToken public pieceToken;\n    SoulToken public soulToken;\n    StandardToken public reserveToken;\n    address public beneficiary;\n\n    uint256 public AUCTION_LENGTH = 2400; // 24 hours\n    Auction public currentAuction;\n\n    constructor(address stakingAddr, address artToken, address soulTokenAddr, address reserveTokenAddr, address beneficiaryAddr) public {\n        registry = GeneratorRegistry(stakingAddr);\n        pieceToken = ArtPieceToken(artToken);   \n        soulToken = SoulToken(soulTokenAddr);\n        reserveToken = StandardToken(reserveTokenAddr);\n        beneficiary = beneficiaryAddr;\n    }\n\n    function getCurrentAuctionBlockNumber() view public returns (uint256) {\n        return currentAuctionBlockNumber;\n    }\n\n    function startAuction(uint256 prevBoughtPrice, uint256 prevPrice) public {\n        require(currentAuction.blockNumber == 0);\n        Generator currentGenerator = registry.getActiveGenerator();\n        pieceToken.mint(this, block.number, address(currentGenerator));\n        currentAuction = Auction({\n            blockNumber: block.number,\n            endTime: now + AUCTION_LENGTH,\n            startingPrice: getStartingPrice(prevBoughtPrice, prevPrice),\n            generator: currentGenerator\n        });\n        currentAuctionBlockNumber = block.number;\n        emit ArtonomousAuctionStarted(block.number);\n    }\n\n    // placeholder\n    function getStartingPrice(uint256 prevBoughtPrice, uint256 prevPrice) internal pure returns (uint256) {\n        if (prevBoughtPrice > 0) {\n            return prevBoughtPrice.mul(1);\n        } else {\n            return prevPrice.mul(20).div(30);\n        }\n    }\n\n    function buyArt(uint256 value) external {\n        uint256 blockNumber = currentAuction.blockNumber;\n        require(blockNumber > 0);\n        if (currentAuction.endTime > now) {\n            buyArtInternal(value);\n        } else {\n            claimArtInternal();\n        }\n    }\n\n    function buyArtInternal(uint256 value) internal {\n        uint256 blockNumber = currentAuction.blockNumber;\n\n        uint256 startingPrice = currentAuction.startingPrice;\n        uint256 timeLeft = currentAuction.endTime - block.timestamp;\n        uint256 percentageTime = (timeLeft * 10000) / AUCTION_LENGTH;\n        uint256 buyPrice = (percentageTime * startingPrice) / 10000;\n        Generator currentGenerator = currentAuction.generator;\n\n        require(value >= buyPrice);\n        require(reserveToken.transferFrom(msg.sender, this, value));\n\n        // pieceToken.transferFrom(this, msg.sender, blockNumber);\n        delete currentAuction;\n\n        // uint256 remainder = value.sub(buyPrice);\n        // require(reserveToken.transfer(msg.sender, remainder), \"token transfer failure\"); // refund extra\n\n        uint256 buyPriceThird = buyPrice.div(3);\n        // require(reserveToken.transfer(beneficiary, buyPriceThird), \"token transfer failure\");\n        \n        // require(reserveToken.transfer(currentGenerator, buyPriceThird), \"token transfer failure\");\n\n\n        uint256 buyPriceRemaining = buyPrice.sub(buyPriceThird.mul(2));\n\n        // reserveToken.approve(soulToken, buyPriceRemaining);\n        // soulToken.depositArtPayment(buyPriceRemaining);\n\n        emit ArtonomousArtBought(msg.sender, blockNumber, buyPriceRemaining);\n\n        startAuction(buyPrice, startingPrice);\n    }\n\n    // after 24 hours, anyone can claim for free\n    function claimArtInternal() internal {\n        uint256 blockNumber = currentAuction.blockNumber;\n        uint256 startingPrice = currentAuction.startingPrice;\n\n        pieceToken.transferFrom(this, msg.sender, blockNumber);\n        delete currentAuction;\n\n        emit ArtonomousArtBought(msg.sender, blockNumber, 0);\n\n        startAuction(0, startingPrice);\n    }\n}\n",
  "sourcePath": "/Users/nickreynolds/Artonomous/artonomous/packages/contracts/contracts/Artonomous.sol",
  "compiler": {
    "name": "solc",
    "version": "0.4.24+commit.e67f0147.Emscripten.clang"
  },
  "schemaVersion": "2.0.1",
  "updatedAt": "2018-12-24T02:53:53.944Z"
}