{
  "contractName": "Artonomous",
  "abi": [
    {
      "constant": true,
      "inputs": [],
      "name": "soulToken",
      "outputs": [
        {
          "name": "",
          "type": "address"
        }
      ],
      "payable": false,
      "stateMutability": "view",
      "type": "function"
    },
    {
      "constant": true,
      "inputs": [],
      "name": "beneficiary",
      "outputs": [
        {
          "name": "",
          "type": "address"
        }
      ],
      "payable": false,
      "stateMutability": "view",
      "type": "function"
    },
    {
      "constant": true,
      "inputs": [],
      "name": "currentAuction",
      "outputs": [
        {
          "name": "blockNumber",
          "type": "uint256"
        },
        {
          "name": "endTime",
          "type": "uint256"
        },
        {
          "name": "startingPrice",
          "type": "uint256"
        },
        {
          "name": "generator",
          "type": "address"
        }
      ],
      "payable": false,
      "stateMutability": "view",
      "type": "function"
    },
    {
      "constant": true,
      "inputs": [],
      "name": "pieceToken",
      "outputs": [
        {
          "name": "",
          "type": "address"
        }
      ],
      "payable": false,
      "stateMutability": "view",
      "type": "function"
    },
    {
      "constant": true,
      "inputs": [],
      "name": "AUCTION_LENGTH",
      "outputs": [
        {
          "name": "",
          "type": "uint256"
        }
      ],
      "payable": false,
      "stateMutability": "view",
      "type": "function"
    },
    {
      "constant": true,
      "inputs": [],
      "name": "registry",
      "outputs": [
        {
          "name": "",
          "type": "address"
        }
      ],
      "payable": false,
      "stateMutability": "view",
      "type": "function"
    },
    {
      "constant": true,
      "inputs": [],
      "name": "currentAuctionBlockNumber",
      "outputs": [
        {
          "name": "",
          "type": "uint256"
        }
      ],
      "payable": false,
      "stateMutability": "view",
      "type": "function"
    },
    {
      "constant": true,
      "inputs": [],
      "name": "reserveToken",
      "outputs": [
        {
          "name": "",
          "type": "address"
        }
      ],
      "payable": false,
      "stateMutability": "view",
      "type": "function"
    },
    {
      "inputs": [
        {
          "name": "stakingAddr",
          "type": "address"
        },
        {
          "name": "artToken",
          "type": "address"
        },
        {
          "name": "soulTokenAddr",
          "type": "address"
        },
        {
          "name": "reserveTokenAddr",
          "type": "address"
        },
        {
          "name": "beneficiaryAddr",
          "type": "address"
        }
      ],
      "payable": false,
      "stateMutability": "nonpayable",
      "type": "constructor"
    },
    {
      "anonymous": false,
      "inputs": [
        {
          "indexed": true,
          "name": "blockNumber",
          "type": "uint256"
        }
      ],
      "name": "ArtonomousAuctionStarted",
      "type": "event"
    },
    {
      "anonymous": false,
      "inputs": [
        {
          "indexed": true,
          "name": "buyer",
          "type": "address"
        },
        {
          "indexed": true,
          "name": "blockNumber",
          "type": "uint256"
        },
        {
          "indexed": true,
          "name": "generator",
          "type": "address"
        },
        {
          "indexed": false,
          "name": "price",
          "type": "uint256"
        }
      ],
      "name": "ArtonomousArtBought",
      "type": "event"
    },
    {
      "constant": true,
      "inputs": [],
      "name": "getCurrentAuctionBlockNumber",
      "outputs": [
        {
          "name": "",
          "type": "uint256"
        }
      ],
      "payable": false,
      "stateMutability": "view",
      "type": "function"
    },
    {
      "constant": false,
      "inputs": [
        {
          "name": "prevBoughtPrice",
          "type": "uint256"
        },
        {
          "name": "prevPrice",
          "type": "uint256"
        }
      ],
      "name": "startAuction",
      "outputs": [],
      "payable": false,
      "stateMutability": "nonpayable",
      "type": "function"
    },
    {
      "constant": false,
      "inputs": [
        {
          "name": "value",
          "type": "uint256"
        }
      ],
      "name": "buyArt",
      "outputs": [],
      "payable": false,
      "stateMutability": "nonpayable",
      "type": "function"
    }
  ],
  "bytecode": "0x608060405261096060065534801561001657600080fd5b5060405160a080610d508339810160409081528151602083015191830151606084015160809094015160018054600160a060020a0319908116600160a060020a0395861617909155600280548216958516959095179094556003805485169284169290921790915560048054841694831694909417909355600580549092169216919091179055610ca4806100ac6000396000f3006080604052600436106100955763ffffffff60e060020a6000350416632d5f4a1e811461009a57806338af3eed146100cb578063496a698d146100e05780634fee13fc1461012457806355d41692146101415780635deae79214610156578063635af9ad1461017d5780637b10399914610192578063e056e68e146101a7578063f4325d67146101bc578063fc7a900b146101d1575b600080fd5b3480156100a657600080fd5b506100af6101e9565b60408051600160a060020a039092168252519081900360200190f35b3480156100d757600080fd5b506100af6101f8565b3480156100ec57600080fd5b506100f5610207565b60408051948552602085019390935283830191909152600160a060020a03166060830152519081900360800190f35b34801561013057600080fd5b5061013f60043560243561021f565b005b34801561014d57600080fd5b506100af6104a1565b34801561016257600080fd5b5061016b6104b0565b60408051918252519081900360200190f35b34801561018957600080fd5b5061016b6104b6565b34801561019e57600080fd5b506100af6104bc565b3480156101b357600080fd5b5061016b6104cb565b3480156101c857600080fd5b506100af6104d1565b3480156101dd57600080fd5b5061013f6004356104e0565b600354600160a060020a031681565b600554600160a060020a031681565b600754600854600954600a54600160a060020a031684565b6007546000901561027a576040805160e560020a62461bcd02815260206004820152601b60248201527f61756374696f6e20616c726561647920696e2070726f67726573730000000000604482015290519081900360640190fd5b600160009054906101000a9004600160a060020a0316600160a060020a031663471b2e2a6040518163ffffffff1660e060020a028152600401602060405180830381600087803b1580156102cd57600080fd5b505af11580156102e1573d6000803e3d6000fd5b505050506040513d60208110156102f757600080fd5b50519050600160a060020a038116151561035b576040805160e560020a62461bcd02815260206004820152601960248201527f63757272656e742067656e657261746f72206e6f742073657400000000000000604482015290519081900360640190fd5b600254604080517f0d4d1513000000000000000000000000000000000000000000000000000000008152306004820152436024820152600160a060020a03848116604483015291519190921691630d4d15139160648083019260209291908290030181600087803b1580156103cf57600080fd5b505af11580156103e3573d6000803e3d6000fd5b505050506040513d60208110156103f957600080fd5b5050604080516080810182524381526006544201602082015290810161041f8585610514565b8152600160a060020a03838116602092830152825160075590820151600855604080830151600955606090920151600a805473ffffffffffffffffffffffffffffffffffffffff191691909216179055436000818155915190917f88f30d4843736b55afaa342b7fbcc8c3c666f2451fb4fcda585d98dcc484f55591a2505050565b600254600160a060020a031681565b60005490565b60065481565b600154600160a060020a031681565b60005481565b600454600160a060020a031681565b600754600081116104f057600080fd5b600854421015610508576105038261055e565b610510565b610510610b11565b5050565b6000808311156105365761052f83600263ffffffff610c2816565b9050610558565b61052f601e61054c84601463ffffffff610c2816565b9063ffffffff610c5116565b92915050565b60075460095460085460065442909103906000908190819081908190612710870281151561058857fe5b049450612710878602600a549190049450600160a060020a03169250838910156105b157600080fd5b60048054604080517f23b872dd00000000000000000000000000000000000000000000000000000000815233938101939093523060248401526044830187905251600160a060020a03909116916323b872dd9160648083019260209291908290030181600087803b15801561062557600080fd5b505af1158015610639573d6000803e3d6000fd5b505050506040513d602081101561064f57600080fd5b5051151561065c57600080fd5b600254604080517f23b872dd000000000000000000000000000000000000000000000000000000008152306004820152336024820152604481018b90529051600160a060020a03909216916323b872dd9160648082019260009290919082900301818387803b1580156106ce57600080fd5b505af11580156106e2573d6000803e3d6000fd5b50506000600781905560088190556009555050600a805473ffffffffffffffffffffffffffffffffffffffff1916905561072384600363ffffffff610c5116565b60048054600554604080517fa9059cbb000000000000000000000000000000000000000000000000000000008152600160a060020a03928316948101949094526024840185905251939550169163a9059cbb916044808201926020929091908290030181600087803b15801561079857600080fd5b505af11580156107ac573d6000803e3d6000fd5b505050506040513d60208110156107c257600080fd5b5051151561081a576040805160e560020a62461bcd02815260206004820152601660248201527f746f6b656e207472616e73666572206661696c75726500000000000000000000604482015290519081900360640190fd5b60048054604080517f8da5cb5b0000000000000000000000000000000000000000000000000000000081529051600160a060020a039283169363a9059cbb93881692638da5cb5b92818301926020928290030181600087803b15801561087f57600080fd5b505af1158015610893573d6000803e3d6000fd5b505050506040513d60208110156108a957600080fd5b50516040805160e060020a63ffffffff8516028152600160a060020a039092166004830152602482018690525160448083019260209291908290030181600087803b1580156108f757600080fd5b505af115801561090b573d6000803e3d6000fd5b505050506040513d602081101561092157600080fd5b50511515610979576040805160e560020a62461bcd02815260206004820152601660248201527f746f6b656e207472616e73666572206661696c75726500000000000000000000604482015290519081900360640190fd5b61099a61098d83600263ffffffff610c2816565b859063ffffffff610c6616565b60048054600354604080517f095ea7b3000000000000000000000000000000000000000000000000000000008152600160a060020a03928316948101949094526024840185905251939450169163095ea7b3916044808201926020929091908290030181600087803b158015610a0f57600080fd5b505af1158015610a23573d6000803e3d6000fd5b505050506040513d6020811015610a3957600080fd5b5050600354604080517f373b396d000000000000000000000000000000000000000000000000000000008152600481018490529051600160a060020a039092169163373b396d9160248082019260009290919082900301818387803b158015610aa157600080fd5b505af1158015610ab5573d6000803e3d6000fd5b5050604080518481529051600160a060020a03871693508b925033917f2b5a1638aea9a2866cd4cc88fe1f9cf63221f114286eaeacb049003d7c92c3fe919081900360200190a4610b06848861021f565b505050505050505050565b600754600954600a54600254604080517f23b872dd000000000000000000000000000000000000000000000000000000008152306004820152336024820152604481018690529051600160a060020a0393841693909216916323b872dd9160648082019260009290919082900301818387803b158015610b9057600080fd5b505af1158015610ba4573d6000803e3d6000fd5b50506000600781905560088190556009819055600a805473ffffffffffffffffffffffffffffffffffffffff191690556040805191825251600160a060020a038516935086925033917f2b5a1638aea9a2866cd4cc88fe1f9cf63221f114286eaeacb049003d7c92c3fe919081900360200190a4610c2360008361021f565b505050565b6000821515610c3957506000610558565b50818102818382811515610c4957fe5b041461055857fe5b60008183811515610c5e57fe5b049392505050565b600082821115610c7257fe5b509003905600a165627a7a7230582023cc7944b8b5934b6fdb2769feccdd70dd029faef04022f69ec3b06e9c84d3100029",
  "source": "pragma solidity ^0.4.24;\n\nimport \"./GeneratorRegistry.sol\";\nimport \"./tokens/ArtPieceToken.sol\";\nimport \"./tokens/SoulToken.sol\";\nimport \"openzeppelin-solidity/contracts/math/SafeMath.sol\";\nimport \"openzeppelin-solidity/contracts/token/ERC20/StandardToken.sol\";\n\n\ncontract Artonomous {\n    using SafeMath for uint256;\n\n    event ArtonomousAuctionStarted(uint256 indexed blockNumber);\n    event ArtonomousArtBought(address indexed buyer, uint256 indexed blockNumber, address indexed generator, uint256 price);\n\n    struct Auction {\n        uint256 blockNumber;\n        uint256 endTime;\n        uint256 startingPrice;\n        Generator generator;\n    }\n\n    uint256 public currentAuctionBlockNumber;\n\n    GeneratorRegistry public registry;\n    ArtPieceToken public pieceToken;\n    SoulToken public soulToken;\n    StandardToken public reserveToken;\n    address public beneficiary;\n\n    uint256 public AUCTION_LENGTH = 2400; // 24 hours\n    Auction public currentAuction;\n\n    constructor(address stakingAddr, address artToken, address soulTokenAddr, address reserveTokenAddr, address beneficiaryAddr) public {\n        registry = GeneratorRegistry(stakingAddr);\n        pieceToken = ArtPieceToken(artToken);   \n        soulToken = SoulToken(soulTokenAddr);\n        reserveToken = StandardToken(reserveTokenAddr);\n        beneficiary = beneficiaryAddr;\n    }\n\n    function getCurrentAuctionBlockNumber() view public returns (uint256) {\n        return currentAuctionBlockNumber;\n    }\n\n    function startAuction(uint256 prevBoughtPrice, uint256 prevPrice) public {\n        require(currentAuction.blockNumber == 0, \"auction already in progress\");\n        Generator currentGenerator = registry.getActiveGenerator();\n        require(address(currentGenerator) != address(0), \"current generator not set\");\n        pieceToken.mint(this, block.number, address(currentGenerator));\n        currentAuction = Auction({\n            blockNumber: block.number,\n            endTime: now + AUCTION_LENGTH,\n            startingPrice: getStartingPrice(prevBoughtPrice, prevPrice),\n            generator: currentGenerator\n        });\n        currentAuctionBlockNumber = block.number;\n        emit ArtonomousAuctionStarted(block.number);\n    }\n\n    // placeholder\n    function getStartingPrice(uint256 prevBoughtPrice, uint256 prevPrice) internal pure returns (uint256) {\n        if (prevBoughtPrice > 0) {\n            return prevBoughtPrice.mul(2);\n        } else {\n            return prevPrice.mul(20).div(30);\n        }\n    }\n\n    function buyArt(uint256 value) external {\n        uint256 blockNumber = currentAuction.blockNumber;\n        require(blockNumber > 0);\n        if (currentAuction.endTime > now) {\n            buyArtInternal(value);\n        } else {\n            claimArtInternal();\n        }\n    }\n\n    function buyArtInternal(uint256 value) internal {\n        uint256 blockNumber = currentAuction.blockNumber;\n\n        uint256 startingPrice = currentAuction.startingPrice;\n        uint256 timeLeft = currentAuction.endTime - block.timestamp;\n        uint256 percentageTime = (timeLeft * 10000) / AUCTION_LENGTH;\n        uint256 buyPrice = (percentageTime * startingPrice) / 10000;\n        Generator currentGenerator = currentAuction.generator;\n\n        require(value >= buyPrice);\n        require(reserveToken.transferFrom(msg.sender, this, buyPrice));\n\n        pieceToken.transferFrom(this, msg.sender, blockNumber);\n        delete currentAuction;\n\n        uint256 buyPriceThird = buyPrice.div(3);\n        require(reserveToken.transfer(beneficiary, buyPriceThird), \"token transfer failure\");\n        \n        require(reserveToken.transfer(currentGenerator.owner(), buyPriceThird), \"token transfer failure\");\n\n\n        uint256 buyPriceRemaining = buyPrice.sub(buyPriceThird.mul(2));\n\n        reserveToken.approve(soulToken, buyPriceRemaining);\n        soulToken.depositArtPayment(buyPriceRemaining);\n\n        emit ArtonomousArtBought(msg.sender, blockNumber, address(currentGenerator), buyPriceRemaining);\n\n        startAuction(buyPrice, startingPrice);\n    }\n\n    // after 24 hours, anyone can claim for free\n    function claimArtInternal() internal {\n        uint256 blockNumber = currentAuction.blockNumber;\n        uint256 startingPrice = currentAuction.startingPrice;\n        Generator currentGenerator = currentAuction.generator;\n\n        pieceToken.transferFrom(this, msg.sender, blockNumber);\n        delete currentAuction;\n\n        emit ArtonomousArtBought(msg.sender, blockNumber, address(currentGenerator), 0);\n\n        startAuction(0, startingPrice);\n    }\n}\n",
  "sourcePath": "/Users/nickreynolds/Artonomous/artonomous/packages/contracts/contracts/Artonomous.sol",
  "compiler": {
    "name": "solc",
    "version": "0.4.24+commit.e67f0147.Emscripten.clang"
  },
  "schemaVersion": "2.0.1",
  "updatedAt": "2019-02-14T03:37:22.041Z"
}