{
  "contractName": "Artonomous",
  "abi": [
    {
      "constant": true,
      "inputs": [],
      "name": "beneficiary",
      "outputs": [
        {
          "name": "",
          "type": "address"
        }
      ],
      "payable": false,
      "stateMutability": "view",
      "type": "function"
    },
    {
      "constant": true,
      "inputs": [],
      "name": "currentAuction",
      "outputs": [
        {
          "name": "blockNumber",
          "type": "uint256"
        },
        {
          "name": "endTime",
          "type": "uint256"
        },
        {
          "name": "startingPrice",
          "type": "uint256"
        }
      ],
      "payable": false,
      "stateMutability": "view",
      "type": "function"
    },
    {
      "constant": true,
      "inputs": [],
      "name": "pieceToken",
      "outputs": [
        {
          "name": "",
          "type": "address"
        }
      ],
      "payable": false,
      "stateMutability": "view",
      "type": "function"
    },
    {
      "constant": true,
      "inputs": [],
      "name": "AUCTION_LENGTH",
      "outputs": [
        {
          "name": "",
          "type": "uint256"
        }
      ],
      "payable": false,
      "stateMutability": "view",
      "type": "function"
    },
    {
      "constant": true,
      "inputs": [],
      "name": "registry",
      "outputs": [
        {
          "name": "",
          "type": "address"
        }
      ],
      "payable": false,
      "stateMutability": "view",
      "type": "function"
    },
    {
      "inputs": [
        {
          "name": "stakingAddr",
          "type": "address"
        },
        {
          "name": "beneficiaryAddr",
          "type": "address"
        },
        {
          "name": "artToken",
          "type": "address"
        }
      ],
      "payable": false,
      "stateMutability": "nonpayable",
      "type": "constructor"
    },
    {
      "anonymous": false,
      "inputs": [
        {
          "indexed": true,
          "name": "blockNumber",
          "type": "uint256"
        }
      ],
      "name": "ArtonomousAuctionStarted",
      "type": "event"
    },
    {
      "anonymous": false,
      "inputs": [
        {
          "indexed": true,
          "name": "buyer",
          "type": "address"
        },
        {
          "indexed": true,
          "name": "blockNumber",
          "type": "uint256"
        },
        {
          "indexed": false,
          "name": "price",
          "type": "uint256"
        }
      ],
      "name": "ArtonomousArtBought",
      "type": "event"
    },
    {
      "anonymous": false,
      "inputs": [
        {
          "indexed": true,
          "name": "claimant",
          "type": "address"
        },
        {
          "indexed": true,
          "name": "blockNumber",
          "type": "uint256"
        }
      ],
      "name": "ArtonomousArtClaimed",
      "type": "event"
    },
    {
      "constant": false,
      "inputs": [],
      "name": "buyArt",
      "outputs": [],
      "payable": true,
      "stateMutability": "payable",
      "type": "function"
    },
    {
      "constant": false,
      "inputs": [],
      "name": "claimArt",
      "outputs": [],
      "payable": false,
      "stateMutability": "nonpayable",
      "type": "function"
    }
  ],
  "bytecode": "0x60806040526201518060035534801561001757600080fd5b5060405160608061085483398101604090815281516020830151919092015160008054600160a060020a03808616600160a060020a03199283161790925560018054838516908316179055600280549285169290911691909117905561008464010000000061008c810204565b50505061024d565b6004546000901561009c57600080fd5b6000809054906101000a9004600160a060020a0316600160a060020a031663471b2e2a6040518163ffffffff167c0100000000000000000000000000000000000000000000000000000000028152600401602060405180830381600087803b15801561010757600080fd5b505af115801561011b573d6000803e3d6000fd5b505050506040513d602081101561013157600080fd5b5051600154604080517f0d4d1513000000000000000000000000000000000000000000000000000000008152306004820152436024820152600160a060020a0380851660448301529151939450911691630d4d1513916064808201926020929091908290030181600087803b1580156101a957600080fd5b505af11580156101bd573d6000803e3d6000fd5b505050506040513d60208110156101d357600080fd5b50506040805160608101825243815260035442016020820152908101610200640100000000610244810204565b9052805160045560208101516005556040908101516006555143907f88f30d4843736b55afaa342b7fbcc8c3c666f2451fb4fcda585d98dcc484f55590600090a250565b64e8d4a5100090565b6105f88061025c6000396000f3006080604052600436106100825763ffffffff7c010000000000000000000000000000000000000000000000000000000060003504166338af3eed8114610087578063496a698d146100b85780634e9e136d146100eb57806355d41692146100f5578063635af9ad1461010a5780637b10399914610131578063d92f20f414610146575b600080fd5b34801561009357600080fd5b5061009c61015b565b60408051600160a060020a039092168252519081900360200190f35b3480156100c457600080fd5b506100cd61016a565b60408051938452602084019290925282820152519081900360600190f35b6100f3610176565b005b34801561010157600080fd5b5061009c6102fd565b34801561011657600080fd5b5061011f61030c565b60408051918252519081900360200190f35b34801561013d57600080fd5b5061009c610312565b34801561015257600080fd5b506100f3610321565b600254600160a060020a031681565b60045460055460065483565b60045460008080831161018857600080fd5b600554421061019657600080fd5b6006546101a290610411565b9150348211156101b157600080fd5b600154604080517f23b872dd000000000000000000000000000000000000000000000000000000008152306004820152336024820152604481018690529051600160a060020a03909216916323b872dd9160648082019260009290919082900301818387803b15801561022357600080fd5b505af1158015610237573d6000803e3d6000fd5b5050600060048190556005819055600681905560405134869003945033935084156108fc0292508491818181858888f1935050505015801561027d573d6000803e3d6000fd5b50600254604051600160a060020a039091169083156108fc029084906000818181858888f193505050501580156102b8573d6000803e3d6000fd5b50604080518381529051849133917f682553da668235675371295b1cda200992ebe5c26835d6f26b9658340f3b5f189181900360200190a36102f8610414565b505050565b600154600160a060020a031681565b60035481565b600054600160a060020a031681565b6004546000811161033157600080fd5b60055442101561034057600080fd5b600154604080517f23b872dd000000000000000000000000000000000000000000000000000000008152306004820152336024820152604481018490529051600160a060020a03909216916323b872dd9160648082019260009290919082900301818387803b1580156103b257600080fd5b505af11580156103c6573d6000803e3d6000fd5b505060006004819055600581905560068190556040518493503392507ff567a0a57233e406978940ccd12ded9982296245a1dcaeff95e906cd2988fb5c9190a361040e610414565b50565b90565b6004546000901561042457600080fd5b6000809054906101000a9004600160a060020a0316600160a060020a031663471b2e2a6040518163ffffffff167c0100000000000000000000000000000000000000000000000000000000028152600401602060405180830381600087803b15801561048f57600080fd5b505af11580156104a3573d6000803e3d6000fd5b505050506040513d60208110156104b957600080fd5b5051600154604080517f0d4d1513000000000000000000000000000000000000000000000000000000008152306004820152436024820152600160a060020a0380851660448301529151939450911691630d4d1513916064808201926020929091908290030181600087803b15801561053157600080fd5b505af1158015610545573d6000803e3d6000fd5b505050506040513d602081101561055b57600080fd5b5050604080516060810182524381526003544201602082015290810161057f6105c3565b9052805160045560208101516005556040908101516006555143907f88f30d4843736b55afaa342b7fbcc8c3c666f2451fb4fcda585d98dcc484f55590600090a250565b64e8d4a51000905600a165627a7a7230582098fdf91f4ffae7553b4aa6bb8cb68081b639bdf98cf66c7c341cc1a3e15857a80029",
  "source": "pragma solidity ^0.4.24;\n\nimport \"./GeneratorRegistry.sol\";\nimport \"./tokens/ArtPieceToken.sol\";\n\ncontract Artonomous {\n\n    event ArtonomousAuctionStarted(uint indexed blockNumber);\n    event ArtonomousArtBought(address indexed buyer, uint indexed blockNumber, uint price);\n    event ArtonomousArtClaimed(address indexed claimant, uint indexed blockNumber);\n\n    struct Auction {\n        uint blockNumber;\n        uint endTime;\n        uint startingPrice;\n    }\n\n    GeneratorRegistry public registry;\n    ArtPieceToken public pieceToken;\n    address public beneficiary; // receives ether gained from purchases\n\n    uint public AUCTION_LENGTH = 86400; // 24 hours\n    Auction public currentAuction;\n\n    constructor(address stakingAddr, address beneficiaryAddr, address artToken) public {\n        registry = GeneratorRegistry(stakingAddr);\n        pieceToken = ArtPieceToken(artToken);\n        beneficiary = beneficiaryAddr;\n        startAuction();\n    }\n\n    function startAuction() internal {\n        require(currentAuction.blockNumber == 0);\n        Generator currentGenerator = registry.getActiveGenerator();\n        pieceToken.mint(this, block.number, currentGenerator);\n        currentAuction = Auction({\n            blockNumber: block.number,\n            endTime: now + AUCTION_LENGTH,\n            startingPrice: getStartingPrice()\n        });\n        emit ArtonomousAuctionStarted(block.number);\n    }\n\n    // placeholder\n    function getStartingPrice() internal pure returns (uint) {\n        return 1000000000000;\n    }\n\n    function buyArt() external payable {\n        uint blockNumber = currentAuction.blockNumber;\n        require(blockNumber > 0);\n        require(currentAuction.endTime > now);\n\n        uint buyPrice = getBuyPrice(currentAuction.startingPrice);\n        require(msg.value >= buyPrice);\n\n\n        pieceToken.transferFrom(this, msg.sender, blockNumber);\n        delete currentAuction;\n\n        uint remainder = msg.value - buyPrice;\n        msg.sender.transfer(remainder); // refund extra\n        beneficiary.transfer(buyPrice); // pay Artonomous' beneficiary\n\n        emit ArtonomousArtBought(msg.sender, blockNumber, buyPrice);\n\n        startAuction();\n    }\n\n    // placeholder\n    function getBuyPrice(uint startingPrice) internal pure returns (uint) {\n        return startingPrice;\n    }\n\n    // after 24 hours, anyone can claim for free\n    function claimArt() external {\n        uint blockNumber = currentAuction.blockNumber;\n        require(blockNumber > 0);\n        require(currentAuction.endTime <= now);\n\n        pieceToken.transferFrom(this, msg.sender, blockNumber);\n        delete currentAuction;\n\n        emit ArtonomousArtClaimed(msg.sender, blockNumber);\n\n        startAuction();\n    }\n}\n",
  "sourcePath": "/Users/nickreynolds/Artonomous/artonomous/packages/contracts/contracts/Artonomous.sol",
  "compiler": {
    "name": "solc",
    "version": "0.4.24+commit.e67f0147.Emscripten.clang"
  },
  "schemaVersion": "2.0.1",
  "updatedAt": "2018-10-15T02:33:03.866Z"
}