{
  "contractName": "Generator",
  "abi": [
    {
      "constant": true,
      "inputs": [],
      "name": "creator",
      "outputs": [
        {
          "name": "",
          "type": "address"
        }
      ],
      "payable": false,
      "stateMutability": "view",
      "type": "function"
    },
    {
      "constant": true,
      "inputs": [],
      "name": "name",
      "outputs": [
        {
          "name": "",
          "type": "string"
        }
      ],
      "payable": false,
      "stateMutability": "view",
      "type": "function"
    },
    {
      "constant": true,
      "inputs": [],
      "name": "initialized",
      "outputs": [
        {
          "name": "",
          "type": "bool"
        }
      ],
      "payable": false,
      "stateMutability": "view",
      "type": "function"
    },
    {
      "constant": true,
      "inputs": [],
      "name": "sourceUri",
      "outputs": [
        {
          "name": "",
          "type": "string"
        }
      ],
      "payable": false,
      "stateMutability": "view",
      "type": "function"
    },
    {
      "constant": true,
      "inputs": [],
      "name": "registry",
      "outputs": [
        {
          "name": "",
          "type": "address"
        }
      ],
      "payable": false,
      "stateMutability": "view",
      "type": "function"
    },
    {
      "constant": false,
      "inputs": [
        {
          "name": "_registry",
          "type": "address"
        },
        {
          "name": "_name",
          "type": "string"
        },
        {
          "name": "_creator",
          "type": "address"
        },
        {
          "name": "_sourceUri",
          "type": "string"
        }
      ],
      "name": "initialize",
      "outputs": [],
      "payable": false,
      "stateMutability": "nonpayable",
      "type": "function"
    },
    {
      "constant": true,
      "inputs": [],
      "name": "getGenerator",
      "outputs": [
        {
          "name": "",
          "type": "string"
        },
        {
          "name": "",
          "type": "address"
        },
        {
          "name": "",
          "type": "string"
        }
      ],
      "payable": false,
      "stateMutability": "view",
      "type": "function"
    }
  ],
  "bytecode": "0x608060405234801561001057600080fd5b5061083b806100206000396000f3006080604052600436106100825763ffffffff7c010000000000000000000000000000000000000000000000000000000060003504166302d05d3f811461008757806306fdde03146100b8578063158ef93e146101425780631e2ca2601461016b57806344726709146102775780637b1039991461028c5780637d836512146102a1575b600080fd5b34801561009357600080fd5b5061009c610357565b60408051600160a060020a039092168252519081900360200190f35b3480156100c457600080fd5b506100cd610366565b6040805160208082528351818301528351919283929083019185019080838360005b838110156101075781810151838201526020016100ef565b50505050905090810190601f1680156101345780820380516001836020036101000a031916815260200191505b509250505060405180910390f35b34801561014e57600080fd5b506101576103f3565b604080519115158252519081900360200190f35b34801561017757600080fd5b506101806103fc565b604051808060200184600160a060020a0316600160a060020a0316815260200180602001838103835286818151815260200191508051906020019080838360005b838110156101d95781810151838201526020016101c1565b50505050905090810190601f1680156102065780820380516001836020036101000a031916815260200191505b50838103825284518152845160209182019186019080838360005b83811015610239578181015183820152602001610221565b50505050905090810190601f1680156102665780820380516001836020036101000a031916815260200191505b509550505050505060405180910390f35b34801561028357600080fd5b506100cd61053d565b34801561029857600080fd5b5061009c610598565b3480156102ad57600080fd5b5060408051602060046024803582810135601f8101859004850286018501909652858552610355958335600160a060020a031695369560449491939091019190819084018382808284375050604080516020601f818a01358b0180359182018390048302840183018552818452989b600160a060020a038b35169b909a9099940197509195509182019350915081908401838280828437509497506105ac9650505050505050565b005b600254600160a060020a031681565b60018054604080516020600284861615610100026000190190941693909304601f810184900484028201840190925281815292918301828280156103eb5780601f106103c0576101008083540402835291602001916103eb565b820191906000526020600020905b8154815290600101906020018083116103ce57829003601f168201915b505050505081565b60005460ff1681565b600280546001805460408051602061010084861615026000190190931695909504601f8101839004830286018301909152808552606094600094869493600160a060020a03909116926003929185919083018282801561049d5780601f106104725761010080835404028352916020019161049d565b820191906000526020600020905b81548152906001019060200180831161048057829003601f168201915b5050845460408051602060026001851615610100026000190190941693909304601f81018490048402820184019092528181529598508694509250840190508282801561052b5780601f106105005761010080835404028352916020019161052b565b820191906000526020600020905b81548152906001019060200180831161050e57829003601f168201915b50505050509050925092509250909192565b6003805460408051602060026001851615610100026000190190941693909304601f810184900484028201840190925281815292918301828280156103eb5780601f106103c0576101008083540402835291602001916103eb565b6000546101009004600160a060020a031681565b60005460ff161561064457604080517f08c379a000000000000000000000000000000000000000000000000000000000815260206004820152602e60248201527f436f6e747261637420696e7374616e63652068617320616c726561647920626560448201527f656e20696e697469616c697a6564000000000000000000000000000000000000606482015290519081900360840190fd5b8251610657906001906020860190610774565b506000805474ffffffffffffffffffffffffffffffffffffffff001916610100600160a060020a0387811691909102919091179091556002805473ffffffffffffffffffffffffffffffffffffffff191691841691909117905580516106c4906003906020840190610774565b5060008054604080517f8a19d2970000000000000000000000000000000000000000000000000000000081527f636f6e737472756374656400000000000000000000000000000000000000000060048201529051610100909204600160a060020a031692638a19d2979260248084019382900301818387803b15801561074957600080fd5b505af115801561075d573d6000803e3d6000fd5b50506000805460ff19166001179055505050505050565b828054600181600116156101000203166002900490600052602060002090601f016020900481019282601f106107b557805160ff19168380011785556107e2565b828001600101855582156107e2579182015b828111156107e25782518255916020019190600101906107c7565b506107ee9291506107f2565b5090565b61080c91905b808211156107ee57600081556001016107f8565b905600a165627a7a72305820ed24fdd9b0b9bc025b6d7378a7bad0662e48c21baace9adbdaca16564006a6bd0029",
  "source": "pragma solidity ^0.4.24;\n\nimport \"zos-lib/contracts/migrations/Initializable.sol\";\n\nimport \"./GeneratorRegistry.sol\";\n\ncontract Generator is Initializable {\n  GeneratorRegistry public registry;\n  string public name;\n  address public creator;\n  string public sourceUri;\n\n  function initialize(\n    GeneratorRegistry _registry,\n    string _name,\n    address _creator,\n    string _sourceUri\n  ) isInitializer public {\n    name = _name;\n    registry = _registry;\n    creator = _creator;\n    sourceUri = _sourceUri;\n\n    registry.fireRegistryEvent(\"constructed\");\n  }\n\n  function getGenerator() public view returns (string, address, string) {\n    return (\n      name,\n      creator,\n      sourceUri\n    );\n  }\n}",
  "sourcePath": "/Users/nickreynolds/Artonomous/artonomous/packages/contracts/contracts/Generator.sol",
  "compiler": {
    "name": "solc",
    "version": "0.4.24+commit.e67f0147.Emscripten.clang"
  },
  "schemaVersion": "2.0.1",
  "updatedAt": "2018-10-16T22:59:43.821Z"
}