{
  "contractName": "Generator",
  "abi": [
    {
      "constant": true,
      "inputs": [],
      "name": "name",
      "outputs": [
        {
          "name": "",
          "type": "string"
        }
      ],
      "payable": false,
      "stateMutability": "view",
      "type": "function"
    },
    {
      "constant": true,
      "inputs": [],
      "name": "initialized",
      "outputs": [
        {
          "name": "",
          "type": "bool"
        }
      ],
      "payable": false,
      "stateMutability": "view",
      "type": "function"
    },
    {
      "constant": true,
      "inputs": [],
      "name": "sourceUri",
      "outputs": [
        {
          "name": "",
          "type": "string"
        }
      ],
      "payable": false,
      "stateMutability": "view",
      "type": "function"
    },
    {
      "constant": true,
      "inputs": [],
      "name": "registry",
      "outputs": [
        {
          "name": "",
          "type": "address"
        }
      ],
      "payable": false,
      "stateMutability": "view",
      "type": "function"
    },
    {
      "constant": true,
      "inputs": [],
      "name": "owner",
      "outputs": [
        {
          "name": "",
          "type": "address"
        }
      ],
      "payable": false,
      "stateMutability": "view",
      "type": "function"
    },
    {
      "anonymous": false,
      "inputs": [
        {
          "indexed": true,
          "name": "previousOwner",
          "type": "address"
        },
        {
          "indexed": true,
          "name": "newOwner",
          "type": "address"
        }
      ],
      "name": "OwnershipTransferred",
      "type": "event"
    },
    {
      "constant": false,
      "inputs": [
        {
          "name": "_registry",
          "type": "address"
        },
        {
          "name": "_name",
          "type": "string"
        },
        {
          "name": "_creator",
          "type": "address"
        },
        {
          "name": "_sourceUri",
          "type": "string"
        }
      ],
      "name": "initialize",
      "outputs": [],
      "payable": false,
      "stateMutability": "nonpayable",
      "type": "function"
    },
    {
      "constant": true,
      "inputs": [],
      "name": "getGenerator",
      "outputs": [
        {
          "name": "",
          "type": "string"
        },
        {
          "name": "",
          "type": "address"
        },
        {
          "name": "",
          "type": "string"
        }
      ],
      "payable": false,
      "stateMutability": "view",
      "type": "function"
    },
    {
      "constant": true,
      "inputs": [],
      "name": "isOwner",
      "outputs": [
        {
          "name": "",
          "type": "bool"
        }
      ],
      "payable": false,
      "stateMutability": "view",
      "type": "function"
    },
    {
      "constant": false,
      "inputs": [],
      "name": "renounceOwnership",
      "outputs": [],
      "payable": false,
      "stateMutability": "nonpayable",
      "type": "function"
    },
    {
      "constant": false,
      "inputs": [
        {
          "name": "newOwner",
          "type": "address"
        }
      ],
      "name": "transferOwnership",
      "outputs": [],
      "payable": false,
      "stateMutability": "nonpayable",
      "type": "function"
    }
  ],
  "bytecode": "0x608060405234801561001057600080fd5b5061091e806100206000396000f3006080604052600436106100a35763ffffffff7c010000000000000000000000000000000000000000000000000000000060003504166306fdde0381146100a8578063158ef93e146101325780631e2ca2601461015b5780634472670914610267578063715018a61461027c5780637b103999146102935780637d836512146102c45780638da5cb5b146103785780638f32d59b1461038d578063f2fde38b146103a2575b600080fd5b3480156100b457600080fd5b506100bd6103c3565b6040805160208082528351818301528351919283929083019185019080838360005b838110156100f75781810151838201526020016100df565b50505050905090810190601f1680156101245780820380516001836020036101000a031916815260200191505b509250505060405180910390f35b34801561013e57600080fd5b50610147610450565b604080519115158252519081900360200190f35b34801561016757600080fd5b50610170610459565b604051808060200184600160a060020a0316600160a060020a0316815260200180602001838103835286818151815260200191508051906020019080838360005b838110156101c95781810151838201526020016101b1565b50505050905090810190601f1680156101f65780820380516001836020036101000a031916815260200191505b50838103825284518152845160209182019186019080838360005b83811015610229578181015183820152602001610211565b50505050905090810190601f1680156102565780820380516001836020036101000a031916815260200191505b509550505050505060405180910390f35b34801561027357600080fd5b506100bd61059a565b34801561028857600080fd5b506102916105f2565b005b34801561029f57600080fd5b506102a861065c565b60408051600160a060020a039092168252519081900360200190f35b3480156102d057600080fd5b5060408051602060046024803582810135601f8101859004850286018501909652858552610291958335600160a060020a031695369560449491939091019190819084018382808284375050604080516020601f818a01358b0180359182018390048302840183018552818452989b600160a060020a038b35169b909a9099940197509195509182019350915081908401838280828437509497506106709650505050505050565b34801561038457600080fd5b506102a861079c565b34801561039957600080fd5b506101476107ab565b3480156103ae57600080fd5b50610291600160a060020a03600435166107bd565b60018054604080516020600284861615610100026000190190941693909304601f810184900484028201840190925281815292918301828280156104485780601f1061041d57610100808354040283529160200191610448565b820191906000526020600020905b81548152906001019060200180831161042b57829003601f168201915b505050505081565b60005460ff1681565b600354600180546040805160206002610100858716150260001901909416849004601f810182900482028301820190935282825260609560009587959094600160a060020a03909216939092909185918301828280156104fa5780601f106104cf576101008083540402835291602001916104fa565b820191906000526020600020905b8154815290600101906020018083116104dd57829003601f168201915b5050845460408051602060026001851615610100026000190190941693909304601f8101849004840282018401909252818152959850869450925084019050828280156105885780601f1061055d57610100808354040283529160200191610588565b820191906000526020600020905b81548152906001019060200180831161056b57829003601f168201915b50505050509050925092509250909192565b6002805460408051602060018416156101000260001901909316849004601f810184900484028201840190925281815292918301828280156104485780601f1061041d57610100808354040283529160200191610448565b6105fa6107ab565b151561060557600080fd5b600354604051600091600160a060020a0316907f8be0079c531659141344cd1fd0a4f28419497f9722a3daafe3b4186f6b6457e0908390a36003805473ffffffffffffffffffffffffffffffffffffffff19169055565b6000546101009004600160a060020a031681565b60005460ff161561070857604080517f08c379a000000000000000000000000000000000000000000000000000000000815260206004820152602e60248201527f436f6e747261637420696e7374616e63652068617320616c726561647920626560448201527f656e20696e697469616c697a6564000000000000000000000000000000000000606482015290519081900360840190fd5b825161071b90600190602086019061085a565b506000805474ffffffffffffffffffffffffffffffffffffffff001916610100600160a060020a0387811691909102919091179091556003805473ffffffffffffffffffffffffffffffffffffffff1916918416919091179055805161078890600290602084019061085a565b50506000805460ff19166001179055505050565b600354600160a060020a031681565b600354600160a060020a031633145b90565b6107c56107ab565b15156107d057600080fd5b6107d9816107dc565b50565b600160a060020a03811615156107f157600080fd5b600354604051600160a060020a038084169216907f8be0079c531659141344cd1fd0a4f28419497f9722a3daafe3b4186f6b6457e090600090a36003805473ffffffffffffffffffffffffffffffffffffffff1916600160a060020a0392909216919091179055565b828054600181600116156101000203166002900490600052602060002090601f016020900481019282601f1061089b57805160ff19168380011785556108c8565b828001600101855582156108c8579182015b828111156108c85782518255916020019190600101906108ad565b506108d49291506108d8565b5090565b6107ba91905b808211156108d457600081556001016108de5600a165627a7a72305820685fc44184304ae6a218d546ce754cce297a8b452a2549147934e4167434f2480029",
  "source": "pragma solidity ^0.4.24;\n\nimport \"zos-lib/contracts/migrations/Initializable.sol\";\n\nimport \"./GeneratorRegistry.sol\";\n\ncontract Generator is Initializable {\n  GeneratorRegistry public registry;\n  string public name;\n  string public sourceUri;\n  address public owner;\n\n  event OwnershipTransferred(address indexed previousOwner, address indexed newOwner);\n\n  function initialize(\n    GeneratorRegistry _registry,\n    string _name,\n    address _creator,\n    string _sourceUri\n  ) isInitializer public {\n    name = _name;\n    registry = _registry;\n    owner = _creator;\n    sourceUri = _sourceUri;\n  }\n\n  function getGenerator() public view returns (string, address, string) {\n    return (\n      name,\n      owner,\n      sourceUri\n    );\n  }\n\n  /**\n    * @dev Throws if called by any account other than the owner.\n    */\n  modifier onlyOwner() {\n    require(isOwner());\n    _;\n  }\n\n  /**\n    * @return true if `msg.sender` is the owner of the contract.\n    */\n  function isOwner() public view returns (bool) {\n    return msg.sender == owner;\n  }\n\n  /**\n    * @dev Allows the current owner to relinquish control of the contract.\n    * @notice Renouncing to ownership will leave the contract without an owner.\n    * It will not be possible to call the functions with the `onlyOwner`\n    * modifier anymore.\n    */\n  function renounceOwnership() public onlyOwner {\n    emit OwnershipTransferred(owner, address(0));\n    owner = address(0);\n  }\n\n  /**\n    * @dev Allows the current owner to transfer control of the contract to a newOwner.\n    * @param newOwner The address to transfer ownership to.\n    */\n  function transferOwnership(address newOwner) public onlyOwner {\n    _transferOwnership(newOwner);\n  }\n\n  /**\n    * @dev Transfers control of the contract to a newOwner.\n    * @param newOwner The address to transfer ownership to.\n    */\n  function _transferOwnership(address newOwner) internal {\n    require(newOwner != address(0));\n    emit OwnershipTransferred(owner, newOwner);\n    owner = newOwner;\n  }\n\n}\n",
  "sourcePath": "/Users/nickreynolds/Artonomous/artonomous/packages/contracts/contracts/Generator.sol",
  "compiler": {
    "name": "solc",
    "version": "0.4.24+commit.e67f0147.Emscripten.clang"
  },
  "schemaVersion": "2.0.1",
  "updatedAt": "2019-02-14T03:34:52.590Z"
}