{
  "contractName": "GeneratorRegistry",
  "abi": [
    {
      "constant": true,
      "inputs": [
        {
          "name": "",
          "type": "uint256"
        }
      ],
      "name": "generators",
      "outputs": [
        {
          "name": "",
          "type": "address"
        }
      ],
      "payable": false,
      "stateMutability": "view",
      "type": "function"
    },
    {
      "constant": true,
      "inputs": [],
      "name": "activeGenerator",
      "outputs": [
        {
          "name": "",
          "type": "address"
        }
      ],
      "payable": false,
      "stateMutability": "view",
      "type": "function"
    },
    {
      "constant": true,
      "inputs": [],
      "name": "token",
      "outputs": [
        {
          "name": "",
          "type": "address"
        }
      ],
      "payable": false,
      "stateMutability": "view",
      "type": "function"
    },
    {
      "inputs": [
        {
          "name": "_token",
          "type": "address"
        }
      ],
      "payable": false,
      "stateMutability": "nonpayable",
      "type": "constructor"
    },
    {
      "anonymous": false,
      "inputs": [
        {
          "indexed": true,
          "name": "context",
          "type": "bytes32"
        },
        {
          "indexed": false,
          "name": "registryEntry",
          "type": "address"
        },
        {
          "indexed": false,
          "name": "eventType",
          "type": "bytes32"
        }
      ],
      "name": "RegistryEntryEVT",
      "type": "event"
    },
    {
      "constant": true,
      "inputs": [],
      "name": "getActiveGenerator",
      "outputs": [
        {
          "name": "",
          "type": "address"
        }
      ],
      "payable": false,
      "stateMutability": "view",
      "type": "function"
    },
    {
      "constant": false,
      "inputs": [
        {
          "name": "_generator",
          "type": "address"
        }
      ],
      "name": "addGenerator",
      "outputs": [],
      "payable": false,
      "stateMutability": "nonpayable",
      "type": "function"
    },
    {
      "constant": false,
      "inputs": [
        {
          "name": "_eventType",
          "type": "bytes32"
        }
      ],
      "name": "fireRegistryEvent",
      "outputs": [],
      "payable": false,
      "stateMutability": "nonpayable",
      "type": "function"
    },
    {
      "constant": true,
      "inputs": [],
      "name": "getToken",
      "outputs": [
        {
          "name": "",
          "type": "address"
        }
      ],
      "payable": false,
      "stateMutability": "view",
      "type": "function"
    }
  ],
  "bytecode": "0x608060405234801561001057600080fd5b506040516020806102ef833981016040525160008054600160a060020a03909216600160a060020a031990921691909117905561029d806100526000396000f3006080604052600436106100825763ffffffff7c01000000000000000000000000000000000000000000000000000000006000350416631fad9b63811461008757806321df0da7146100bb578063471b2e2a146100d05780634dc045ef146100e55780638a19d297146100fa578063cffafe2614610114578063fc0c546a14610135575b600080fd5b34801561009357600080fd5b5061009f60043561014a565b60408051600160a060020a039092168252519081900360200190f35b3480156100c757600080fd5b5061009f610172565b3480156100dc57600080fd5b5061009f610181565b3480156100f157600080fd5b5061009f610190565b34801561010657600080fd5b5061011260043561019f565b005b34801561012057600080fd5b50610112600160a060020a03600435166101fc565b34801561014157600080fd5b5061009f610262565b600280548290811061015857fe5b600091825260209091200154600160a060020a0316905081565b600054600160a060020a031690565b600154600160a060020a031690565b600154600160a060020a031681565b604080513381526020810183905281517f41727447656e657261746f720000000000000000000000000000000000000000927f2af7bec8d40bdee9862a707f3b13ee2c6e4a4a0a5b3165e2f4e14d5d8b9b5c4c928290030190a250565b60018054600160a060020a0390921673ffffffffffffffffffffffffffffffffffffffff19928316811782556002805492830181556000527f405787fa12a823e0f2b7631cc41b3ba8828b3321ca811111fa75cd3aa3bb5ace9091018054909216179055565b600054600160a060020a0316815600a165627a7a723058207f9a2a335a63747318531402a697f3a690d8466c346243b7e7697ac7d1f893f10029",
  "source": "pragma solidity ^0.4.24;\n\nimport \"openzeppelin-solidity/contracts/token/ERC20/StandardToken.sol\";\n\nimport \"./GeneratorFactory.sol\";\nimport \"./Generator.sol\";\n\ncontract GeneratorRegistry {\n    // event RegistryEntryEV(address indexed registryEntry, bytes32 indexed eventType);\n    event RegistryEntryEVT(bytes32 indexed context, address registryEntry, bytes32 eventType);\n\n    StandardToken public token;\n    Generator public activeGenerator;\n    Generator[] public generators;\n\n    constructor(StandardToken _token) public {\n        token = _token;\n    }\n\n    function getActiveGenerator() public view returns (Generator) {\n        return activeGenerator;\n    }\n\n    function addGenerator(Generator _generator) public {\n        activeGenerator = _generator;\n        generators.push(_generator);\n    }\n\n    function fireRegistryEvent(bytes32 _eventType) public {\n        emit RegistryEntryEVT(\"ArtGenerator\", msg.sender, _eventType);\n    }\n\n    function getToken() public view returns (address) {\n        return token;\n    }\n}",
  "sourcePath": "/Users/nickreynolds/Artonomous/artonomous/packages/contracts/contracts/GeneratorRegistry.sol",
  "compiler": {
    "name": "solc",
    "version": "0.4.24+commit.e67f0147.Emscripten.clang"
  },
  "schemaVersion": "2.0.1",
  "updatedAt": "2018-10-15T02:33:03.860Z"
}