{
  "contractName": "GeneratorRegistry",
  "abi": [
    {
      "constant": true,
      "inputs": [
        {
          "name": "",
          "type": "uint256"
        }
      ],
      "name": "generators",
      "outputs": [
        {
          "name": "",
          "type": "address"
        }
      ],
      "payable": false,
      "stateMutability": "view",
      "type": "function"
    },
    {
      "constant": true,
      "inputs": [
        {
          "name": "",
          "type": "address"
        },
        {
          "name": "",
          "type": "address"
        }
      ],
      "name": "stakeByUserByGenerator",
      "outputs": [
        {
          "name": "",
          "type": "uint256"
        }
      ],
      "payable": false,
      "stateMutability": "view",
      "type": "function"
    },
    {
      "constant": true,
      "inputs": [
        {
          "name": "",
          "type": "address"
        }
      ],
      "name": "stakeByGenerator",
      "outputs": [
        {
          "name": "",
          "type": "uint256"
        }
      ],
      "payable": false,
      "stateMutability": "view",
      "type": "function"
    },
    {
      "constant": true,
      "inputs": [],
      "name": "token",
      "outputs": [
        {
          "name": "",
          "type": "address"
        }
      ],
      "payable": false,
      "stateMutability": "view",
      "type": "function"
    },
    {
      "inputs": [
        {
          "name": "_token",
          "type": "address"
        }
      ],
      "payable": false,
      "stateMutability": "nonpayable",
      "type": "constructor"
    },
    {
      "anonymous": false,
      "inputs": [
        {
          "indexed": true,
          "name": "context",
          "type": "bytes32"
        },
        {
          "indexed": false,
          "name": "registryEntry",
          "type": "address"
        },
        {
          "indexed": false,
          "name": "eventType",
          "type": "bytes32"
        }
      ],
      "name": "RegistryEntryEVT",
      "type": "event"
    },
    {
      "constant": true,
      "inputs": [],
      "name": "getActiveGenerator",
      "outputs": [
        {
          "name": "",
          "type": "address"
        }
      ],
      "payable": false,
      "stateMutability": "view",
      "type": "function"
    },
    {
      "constant": false,
      "inputs": [
        {
          "name": "_generator",
          "type": "address"
        }
      ],
      "name": "addGenerator",
      "outputs": [],
      "payable": false,
      "stateMutability": "nonpayable",
      "type": "function"
    },
    {
      "constant": false,
      "inputs": [
        {
          "name": "generatorIndex",
          "type": "uint256"
        },
        {
          "name": "stake",
          "type": "uint256"
        }
      ],
      "name": "depositStake",
      "outputs": [],
      "payable": false,
      "stateMutability": "nonpayable",
      "type": "function"
    },
    {
      "constant": false,
      "inputs": [
        {
          "name": "generatorIndex",
          "type": "uint256"
        },
        {
          "name": "stake",
          "type": "uint256"
        }
      ],
      "name": "withdrawStake",
      "outputs": [],
      "payable": false,
      "stateMutability": "nonpayable",
      "type": "function"
    },
    {
      "constant": true,
      "inputs": [],
      "name": "getToken",
      "outputs": [
        {
          "name": "",
          "type": "address"
        }
      ],
      "payable": false,
      "stateMutability": "view",
      "type": "function"
    },
    {
      "constant": true,
      "inputs": [],
      "name": "getGenerators",
      "outputs": [
        {
          "name": "",
          "type": "address[]"
        }
      ],
      "payable": false,
      "stateMutability": "view",
      "type": "function"
    },
    {
      "constant": true,
      "inputs": [
        {
          "name": "g",
          "type": "address"
        }
      ],
      "name": "getGeneratorStake",
      "outputs": [
        {
          "name": "",
          "type": "uint256"
        }
      ],
      "payable": false,
      "stateMutability": "view",
      "type": "function"
    },
    {
      "constant": true,
      "inputs": [
        {
          "name": "user",
          "type": "address"
        },
        {
          "name": "g",
          "type": "address"
        }
      ],
      "name": "getUserGeneratorStake",
      "outputs": [
        {
          "name": "",
          "type": "uint256"
        }
      ],
      "payable": false,
      "stateMutability": "view",
      "type": "function"
    }
  ],
  "bytecode": "0x608060405234801561001057600080fd5b50604051602080610855833981016040525160008054600160a060020a03909216600160a060020a0319909216919091179055610803806100526000396000f3006080604052600436106100b95763ffffffff7c010000000000000000000000000000000000000000000000000000000060003504166306bab08581146100be5780631fad9b63146100f757806321df0da71461012b578063471b2e2a14610140578063695478f1146101555780637418740a146101ba5780637ec59eef146101e1578063b4689637146101fe578063cd717caa1461021f578063cffafe2614610240578063f1fdf46914610261578063fc0c546a1461027c575b600080fd5b3480156100ca57600080fd5b506100e5600160a060020a0360043581169060243516610291565b60408051918252519081900360200190f35b34801561010357600080fd5b5061010f6004356102bc565b60408051600160a060020a039092168252519081900360200190f35b34801561013757600080fd5b5061010f6102e4565b34801561014c57600080fd5b5061010f6102f3565b34801561016157600080fd5b5061016a610375565b60408051602080825283518183015283519192839290830191858101910280838360005b838110156101a657818101518382015260200161018e565b505050509050019250505060405180910390f35b3480156101c657600080fd5b506100e5600160a060020a03600435811690602435166103d7565b3480156101ed57600080fd5b506101fc6004356024356103f4565b005b34801561020a57600080fd5b506100e5600160a060020a03600435166105ab565b34801561022b57600080fd5b506100e5600160a060020a03600435166105c6565b34801561024c57600080fd5b506101fc600160a060020a03600435166105d8565b34801561026d57600080fd5b506101fc600435602435610636565b34801561028857600080fd5b5061010f6107c8565b600160a060020a03918216600090815260036020908152604080832093909416825291909152205490565b60018054829081106102ca57fe5b600091825260209091200154600160a060020a0316905081565b600054600160a060020a031690565b6000808080805b60015482101561036c57600180548390811061031257fe5b6000918252602080832090910154600160a060020a0316808352600290915260409091205490915083101561036157600160a060020a0381166000908152600260205260409020549093509150825b6001909101906102fa565b50919392505050565b606060018054806020026020016040519081016040528092919081815260200182805480156103cd57602002820191906000526020600020905b8154600160a060020a031681526001909101906020018083116103af575b5050505050905090565b600360209081526000928352604080842090915290825290205481565b600154600090831061040557600080fd5b600180548490811061041357fe5b6000918252602080832090910154600160a060020a0390811680845260028352604080852080548801905533808652600385528186208387528552818620805489019055855482517f23b872dd00000000000000000000000000000000000000000000000000000000815260048101929092523060248301526044820189905291519296509216936323b872dd93606480850194919392918390030190829087803b1580156104c157600080fd5b505af11580156104d5573d6000803e3d6000fd5b505050506040513d60208110156104eb57600080fd5b505115156105a657604080517f08c379a000000000000000000000000000000000000000000000000000000000815260206004820152605060248201527f756e61626c6520746f207472616e7366657220746f6b656e732c20636865636b60448201527f20746861742047656e657261746f72526567697374727920697320617070726f60648201527f7665642061732061207370656e64657200000000000000000000000000000000608482015290519081900360a40190fd5b505050565b600160a060020a031660009081526002602052604090205490565b60026020526000908152604090205481565b6001805480820182556000919091527fb10e2d527612073b26eecdfd717e6a320cf44b4afac2b0732d9fcbe2b7fa0cf601805473ffffffffffffffffffffffffffffffffffffffff1916600160a060020a0392909216919091179055565b600154600090831061064757600080fd5b600180548490811061065557fe5b6000918252602080832090910154338352600382526040808420600160a060020a039092168085529190925291205490915082111561069357600080fd5b600160a060020a03808216600081815260026020908152604080832080548890039055338084526003835281842094845293825280832080548890039055825481517fa9059cbb000000000000000000000000000000000000000000000000000000008152600481019590955260248501889052905194169363a9059cbb93604480820194918390030190829087803b15801561072f57600080fd5b505af1158015610743573d6000803e3d6000fd5b505050506040513d602081101561075957600080fd5b505115156105a657604080517f08c379a000000000000000000000000000000000000000000000000000000000815260206004820152601960248201527f756e61626c6520746f207472616e7366657220746f6b656e7300000000000000604482015290519081900360640190fd5b600054600160a060020a0316815600a165627a7a7230582079ed6d17d334ac834f91697cbc1d0eb5f6e660167ec01f6801d947680d18d49e0029",
  "source": "pragma solidity ^0.4.24;\n\nimport \"openzeppelin-solidity/contracts/token/ERC20/StandardToken.sol\";\n\nimport \"./GeneratorFactory.sol\";\nimport \"./Generator.sol\";\n\ncontract GeneratorRegistry {\n    // event RegistryEntryEV(address indexed registryEntry, bytes32 indexed eventType);\n    event RegistryEntryEVT(bytes32 indexed context, address registryEntry, bytes32 eventType);\n\n    StandardToken public token;\n    Generator[] public generators;\n    mapping(address => uint) public stakeByGenerator;\n    mapping(address => mapping(address => uint)) public stakeByUserByGenerator;\n\n    constructor(StandardToken _token) public {\n        token = _token;\n    }\n\n    function getActiveGenerator() public view returns (Generator) {\n        Generator maxStakeGenerator;\n        uint maxStake;\n\n        for(uint i = 0; i < generators.length; i++) {\n            Generator g = generators[i];\n            if (stakeByGenerator[address(g)] > maxStake) {\n                maxStakeGenerator = g;\n                maxStake = stakeByGenerator[address(g)];\n            }\n        }\n\n        return maxStakeGenerator;\n    }\n\n    function addGenerator(Generator _generator) public {\n        generators.push(_generator);\n    }\n\n    function depositStake(uint generatorIndex, uint stake) public {\n        require(generatorIndex < generators.length);\n        Generator g = generators[generatorIndex];\n        stakeByGenerator[address(g)] += stake;\n        stakeByUserByGenerator[msg.sender][address(g)] += stake;\n        require(token.transferFrom(msg.sender, this, stake), \"unable to transfer tokens, check that GeneratorRegistry is approved as a spender\");\n    }\n\n    function withdrawStake(uint generatorIndex, uint stake) public {\n        require(generatorIndex < generators.length);\n        Generator g = generators[generatorIndex];\n        require(stakeByUserByGenerator[msg.sender][address(g)] >= stake);\n        stakeByGenerator[address(g)] -= stake;\n        stakeByUserByGenerator[msg.sender][address(g)] -= stake;\n\n        require(token.transfer(msg.sender, stake), \"unable to transfer tokens\");\n    }\n\n    function getToken() public view returns (address) {\n        return token;\n    }\n\n    function getGenerators() public view returns (Generator[]) {\n        return generators;\n    }\n\n    function getGeneratorStake(Generator g) public view returns (uint) {\n        return stakeByGenerator[address(g)];\n    }\n\n    function getUserGeneratorStake(address user, Generator g) public view returns (uint) {\n        return stakeByUserByGenerator[user][address(g)];\n    }\n}",
  "sourcePath": "/Users/nickreynolds/Artonomous/artonomous/packages/contracts/contracts/GeneratorRegistry.sol",
  "compiler": {
    "name": "solc",
    "version": "0.4.24+commit.e67f0147.Emscripten.clang"
  },
  "schemaVersion": "2.0.1",
  "updatedAt": "2018-10-19T19:42:28.507Z"
}