{
  "contractName": "GeneratorRegistry",
  "abi": [
    {
      "constant": true,
      "inputs": [
        {
          "name": "",
          "type": "uint256"
        }
      ],
      "name": "generators",
      "outputs": [
        {
          "name": "",
          "type": "address"
        }
      ],
      "payable": false,
      "stateMutability": "view",
      "type": "function"
    },
    {
      "constant": true,
      "inputs": [],
      "name": "activeGenerator",
      "outputs": [
        {
          "name": "",
          "type": "address"
        }
      ],
      "payable": false,
      "stateMutability": "view",
      "type": "function"
    },
    {
      "constant": true,
      "inputs": [],
      "name": "factory",
      "outputs": [
        {
          "name": "",
          "type": "address"
        }
      ],
      "payable": false,
      "stateMutability": "view",
      "type": "function"
    },
    {
      "constant": true,
      "inputs": [],
      "name": "token",
      "outputs": [
        {
          "name": "",
          "type": "address"
        }
      ],
      "payable": false,
      "stateMutability": "view",
      "type": "function"
    },
    {
      "inputs": [
        {
          "name": "_token",
          "type": "address"
        }
      ],
      "payable": false,
      "stateMutability": "nonpayable",
      "type": "constructor"
    },
    {
      "anonymous": false,
      "inputs": [
        {
          "indexed": true,
          "name": "context",
          "type": "bytes32"
        },
        {
          "indexed": false,
          "name": "registryEntry",
          "type": "address"
        },
        {
          "indexed": false,
          "name": "eventType",
          "type": "bytes32"
        }
      ],
      "name": "RegistryEntryEVT",
      "type": "event"
    },
    {
      "constant": true,
      "inputs": [],
      "name": "getActiveGenerator",
      "outputs": [
        {
          "name": "",
          "type": "address"
        }
      ],
      "payable": false,
      "stateMutability": "view",
      "type": "function"
    },
    {
      "constant": false,
      "inputs": [
        {
          "name": "_generator",
          "type": "address"
        }
      ],
      "name": "addGenerator",
      "outputs": [],
      "payable": false,
      "stateMutability": "nonpayable",
      "type": "function"
    },
    {
      "constant": false,
      "inputs": [
        {
          "name": "_factory",
          "type": "address"
        }
      ],
      "name": "setFactory",
      "outputs": [],
      "payable": false,
      "stateMutability": "nonpayable",
      "type": "function"
    },
    {
      "constant": false,
      "inputs": [
        {
          "name": "_eventType",
          "type": "bytes32"
        }
      ],
      "name": "fireRegistryEvent",
      "outputs": [],
      "payable": false,
      "stateMutability": "nonpayable",
      "type": "function"
    },
    {
      "constant": true,
      "inputs": [],
      "name": "getToken",
      "outputs": [
        {
          "name": "",
          "type": "address"
        }
      ],
      "payable": false,
      "stateMutability": "view",
      "type": "function"
    }
  ],
  "bytecode": "0x608060405234801561001057600080fd5b5060405160208061037a833981016040525160018054600160a060020a031916600160a060020a0390921691909117905561032a806100506000396000f3006080604052600436106100985763ffffffff7c01000000000000000000000000000000000000000000000000000000006000350416631fad9b63811461009d57806321df0da7146100d1578063471b2e2a146100e65780634dc045ef146100fb5780635bb47808146101105780638a19d29714610133578063c45a01551461014b578063cffafe2614610160578063fc0c546a14610181575b600080fd5b3480156100a957600080fd5b506100b5600435610196565b60408051600160a060020a039092168252519081900360200190f35b3480156100dd57600080fd5b506100b56101be565b3480156100f257600080fd5b506100b56101cd565b34801561010757600080fd5b506100b56101dc565b34801561011c57600080fd5b50610131600160a060020a03600435166101eb565b005b34801561013f57600080fd5b5061013160043561021a565b34801561015757600080fd5b506100b5610277565b34801561016c57600080fd5b50610131600160a060020a0360043516610286565b34801561018d57600080fd5b506100b56102ef565b60038054829081106101a457fe5b600091825260209091200154600160a060020a0316905081565b600154600160a060020a031690565b600254600160a060020a031690565b600254600160a060020a031681565b6000805473ffffffffffffffffffffffffffffffffffffffff1916600160a060020a0392909216919091179055565b604080513381526020810183905281517f41727447656e657261746f720000000000000000000000000000000000000000927f2af7bec8d40bdee9862a707f3b13ee2c6e4a4a0a5b3165e2f4e14d5d8b9b5c4c928290030190a250565b600054600160a060020a031681565b60028054600160a060020a0390921673ffffffffffffffffffffffffffffffffffffffff199283168117909155600380546001810182556000919091527fc2575a0e9e593c00f959f8c92f12db2869c3395a3b0502d05e2516446f71f85b018054909216179055565b600154600160a060020a0316815600a165627a7a723058208dedce76ea1f953109b9d66fb4467083a5e0416ab9bcc90179c19ebb8860b44c0029",
  "source": "pragma solidity ^0.4.24;\n\nimport \"openzeppelin-solidity/contracts/token/ERC20/StandardToken.sol\";\n\nimport \"./GeneratorFactory.sol\";\nimport \"./Generator.sol\";\n\ncontract GeneratorRegistry {\n    // event RegistryEntryEV(address indexed registryEntry, bytes32 indexed eventType);\n    event RegistryEntryEVT(bytes32 indexed context, address registryEntry, bytes32 eventType);\n\n    GeneratorFactory public factory;\n    StandardToken public token;\n    Generator public activeGenerator;\n    Generator[] public generators;\n\n    constructor(StandardToken _token) public {\n        token = _token;\n    }\n\n    function getActiveGenerator() public view returns (Generator) {\n        return activeGenerator;\n    }\n\n    function addGenerator(Generator _generator) public {\n        activeGenerator = _generator;\n        generators.push(_generator);\n    }\n\n    function setFactory(GeneratorFactory _factory) public {\n        factory = _factory;\n    }\n\n    function fireRegistryEvent(bytes32 _eventType) public {\n        emit RegistryEntryEVT(\"ArtGenerator\", msg.sender, _eventType);\n    }\n\n    function getToken() public view returns (address) {\n        return token;\n    }\n}",
  "sourcePath": "/Users/nickreynolds/Artonomous/artonomous/packages/contracts/contracts/GeneratorRegistry.sol",
  "compiler": {
    "name": "solc",
    "version": "0.4.24+commit.e67f0147.Emscripten.clang"
  },
  "schemaVersion": "2.0.1",
  "updatedAt": "2018-10-15T01:11:55.156Z"
}