{
  "contractName": "GeneratorRegistry",
  "abi": [
    {
      "constant": true,
      "inputs": [],
      "name": "numGenerators",
      "outputs": [
        {
          "name": "",
          "type": "uint256"
        }
      ],
      "payable": false,
      "stateMutability": "view",
      "type": "function"
    },
    {
      "constant": true,
      "inputs": [
        {
          "name": "",
          "type": "uint256"
        }
      ],
      "name": "generatorById",
      "outputs": [
        {
          "name": "",
          "type": "address"
        }
      ],
      "payable": false,
      "stateMutability": "view",
      "type": "function"
    },
    {
      "constant": true,
      "inputs": [
        {
          "name": "",
          "type": "address"
        },
        {
          "name": "",
          "type": "address"
        }
      ],
      "name": "stakeByUserByGenerator",
      "outputs": [
        {
          "name": "",
          "type": "uint256"
        }
      ],
      "payable": false,
      "stateMutability": "view",
      "type": "function"
    },
    {
      "constant": true,
      "inputs": [
        {
          "name": "",
          "type": "address"
        }
      ],
      "name": "stakeByGenerator",
      "outputs": [
        {
          "name": "",
          "type": "uint256"
        }
      ],
      "payable": false,
      "stateMutability": "view",
      "type": "function"
    },
    {
      "constant": true,
      "inputs": [
        {
          "name": "",
          "type": "address"
        }
      ],
      "name": "idByGenerator",
      "outputs": [
        {
          "name": "",
          "type": "uint256"
        }
      ],
      "payable": false,
      "stateMutability": "view",
      "type": "function"
    },
    {
      "constant": true,
      "inputs": [],
      "name": "token",
      "outputs": [
        {
          "name": "",
          "type": "address"
        }
      ],
      "payable": false,
      "stateMutability": "view",
      "type": "function"
    },
    {
      "inputs": [
        {
          "name": "_token",
          "type": "address"
        }
      ],
      "payable": false,
      "stateMutability": "nonpayable",
      "type": "constructor"
    },
    {
      "anonymous": false,
      "inputs": [
        {
          "indexed": false,
          "name": "generator",
          "type": "address"
        }
      ],
      "name": "GeneratorAdded",
      "type": "event"
    },
    {
      "constant": true,
      "inputs": [],
      "name": "getActiveGenerator",
      "outputs": [
        {
          "name": "",
          "type": "address"
        }
      ],
      "payable": false,
      "stateMutability": "view",
      "type": "function"
    },
    {
      "constant": false,
      "inputs": [
        {
          "name": "generator",
          "type": "address"
        }
      ],
      "name": "addGenerator",
      "outputs": [],
      "payable": false,
      "stateMutability": "nonpayable",
      "type": "function"
    },
    {
      "constant": false,
      "inputs": [
        {
          "name": "generatorAddress",
          "type": "address"
        },
        {
          "name": "stake",
          "type": "uint256"
        }
      ],
      "name": "depositStake",
      "outputs": [],
      "payable": false,
      "stateMutability": "nonpayable",
      "type": "function"
    },
    {
      "constant": false,
      "inputs": [
        {
          "name": "generatorAddress",
          "type": "address"
        },
        {
          "name": "stake",
          "type": "uint256"
        }
      ],
      "name": "withdrawStake",
      "outputs": [],
      "payable": false,
      "stateMutability": "nonpayable",
      "type": "function"
    },
    {
      "constant": true,
      "inputs": [],
      "name": "getToken",
      "outputs": [
        {
          "name": "",
          "type": "address"
        }
      ],
      "payable": false,
      "stateMutability": "view",
      "type": "function"
    },
    {
      "constant": true,
      "inputs": [
        {
          "name": "g",
          "type": "address"
        }
      ],
      "name": "getGeneratorStake",
      "outputs": [
        {
          "name": "",
          "type": "uint256"
        }
      ],
      "payable": false,
      "stateMutability": "view",
      "type": "function"
    },
    {
      "constant": true,
      "inputs": [
        {
          "name": "user",
          "type": "address"
        },
        {
          "name": "g",
          "type": "address"
        }
      ],
      "name": "getUserGeneratorStake",
      "outputs": [
        {
          "name": "",
          "type": "uint256"
        }
      ],
      "payable": false,
      "stateMutability": "view",
      "type": "function"
    },
    {
      "constant": true,
      "inputs": [],
      "name": "dump",
      "outputs": [
        {
          "components": [
            {
              "name": "id",
              "type": "uint256"
            },
            {
              "name": "priority",
              "type": "uint256"
            }
          ],
          "name": "",
          "type": "tuple[]"
        }
      ],
      "payable": false,
      "stateMutability": "view",
      "type": "function"
    },
    {
      "constant": true,
      "inputs": [],
      "name": "getMax",
      "outputs": [
        {
          "components": [
            {
              "name": "id",
              "type": "uint256"
            },
            {
              "name": "priority",
              "type": "uint256"
            }
          ],
          "name": "",
          "type": "tuple"
        }
      ],
      "payable": false,
      "stateMutability": "view",
      "type": "function"
    },
    {
      "constant": true,
      "inputs": [],
      "name": "getMaxId",
      "outputs": [
        {
          "name": "",
          "type": "uint256"
        }
      ],
      "payable": false,
      "stateMutability": "view",
      "type": "function"
    },
    {
      "constant": true,
      "inputs": [
        {
          "name": "id",
          "type": "uint256"
        }
      ],
      "name": "getById",
      "outputs": [
        {
          "components": [
            {
              "name": "id",
              "type": "uint256"
            },
            {
              "name": "priority",
              "type": "uint256"
            }
          ],
          "name": "",
          "type": "tuple"
        }
      ],
      "payable": false,
      "stateMutability": "view",
      "type": "function"
    },
    {
      "constant": true,
      "inputs": [
        {
          "name": "i",
          "type": "uint256"
        }
      ],
      "name": "getByIndex",
      "outputs": [
        {
          "components": [
            {
              "name": "id",
              "type": "uint256"
            },
            {
              "name": "priority",
              "type": "uint256"
            }
          ],
          "name": "",
          "type": "tuple"
        }
      ],
      "payable": false,
      "stateMutability": "view",
      "type": "function"
    },
    {
      "constant": true,
      "inputs": [],
      "name": "size",
      "outputs": [
        {
          "name": "",
          "type": "uint256"
        }
      ],
      "payable": false,
      "stateMutability": "view",
      "type": "function"
    },
    {
      "constant": true,
      "inputs": [
        {
          "name": "id",
          "type": "uint256"
        }
      ],
      "name": "indices",
      "outputs": [
        {
          "name": "",
          "type": "uint256"
        }
      ],
      "payable": false,
      "stateMutability": "view",
      "type": "function"
    }
  ],
  "bytecode": "0x608060405260006003553480156200001657600080fd5b50604051602080620015238339810180604052620000389190810190620000cf565b60028054600160a060020a031916600160a060020a0383161790556200006d600064010000000062000074810262000c421704565b5062000117565b80541515620000b7576040805180820190915260008082526020808301828152845460018181018755868552929093209351600290930290930191825591519101555b50565b6000620000c8825162000104565b9392505050565b600060208284031215620000e257600080fd5b6000620000f08484620000ba565b949350505050565b600160a060020a031690565b60006200011182620000f8565b92915050565b6113fc80620001276000396000f3006080604052600436106101115763ffffffff7c010000000000000000000000000000000000000000000000000000000060003504166306bab08581146101165780631f5e60a31461014c57806321df0da7146101615780632d883a73146101835780633075f552146101b0578063359209c2146101c5578063471b2e2a146101e55780635410f365146102075780637418740a14610229578063949d225d14610249578063a1a953fd1461025e578063b46896371461027e578063c60662721461029e578063cd717caa146102be578063cffafe26146102de578063d477a712146102fe578063e433054514610313578063f4f4d23714610335578063fb2abc0c14610355578063fc0c546a14610375575b600080fd5b34801561012257600080fd5b50610136610131366004610f76565b61038a565b604051610143919061138e565b60405180910390f35b34801561015857600080fd5b506101366103b7565b34801561016d57600080fd5b506101766103bd565b60405161014391906112b0565b34801561018f57600080fd5b506101a361019e366004611012565b6103cd565b6040516101439190611380565b3480156101bc57600080fd5b506101a36103e6565b3480156101d157600080fd5b506101766101e0366004611012565b6103fd565b3480156101f157600080fd5b506101fa610418565b6040516101439190611312565b34801561021357600080fd5b50610227610222366004610fa6565b610445565b005b34801561023557600080fd5b50610136610244366004610f3c565b61060e565b34801561025557600080fd5b5061013661062b565b34801561026a57600080fd5b50610136610279366004611012565b610637565b34801561028a57600080fd5b50610136610299366004610ff4565b610649565b3480156102aa57600080fd5b506102276102b9366004610fa6565b610664565b3480156102ca57600080fd5b506101366102d9366004610f1e565b610846565b3480156102ea57600080fd5b506102276102f9366004610ff4565b610858565b34801561030a57600080fd5b506101366108e2565b34801561031f57600080fd5b506103286108ee565b6040516101439190611301565b34801561034157600080fd5b506101a3610350366004611012565b6108fa565b34801561036157600080fd5b50610136610370366004610f1e565b610913565b34801561038157600080fd5b506101fa610925565b600160a060020a038083166000908152600760209081526040808320938516835292905220545b92915050565b60035481565b600254600160a060020a03165b90565b6103d5610e8f565b6103b160008363ffffffff61093416565b6103ee610e8f565b6103f860006109a0565b905090565b600660205260009081526040902054600160a060020a031681565b6000600660006104266108e2565b8152602081019190915260400160002054600160a060020a0316905090565b600081116104715760405160e560020a62461bcd02815260040161046890611330565b60405180910390fd5b600160a060020a038216600090815260056020526040812054116104aa5760405160e560020a62461bcd02815260040161046890611370565b600160a060020a03821660009081526004602052604081205411156104f457600160a060020a0382166000908152600560205260408120546104f2919063ffffffff6109b316565b505b600160a060020a0382166000818152600460209081526040808320805486018155338452600783528184209484529382528083208054860190559254600590915291812054610549929063ffffffff6109d716565b506002546040517f23b872dd000000000000000000000000000000000000000000000000000000008152600160a060020a03909116906323b872dd90610597903390309086906004016112be565b602060405180830381600087803b1580156105b157600080fd5b505af11580156105c5573d6000803e3d6000fd5b505050506040513d601f19601f820116820180604052506105e99190810190610fd6565b151561060a5760405160e560020a62461bcd02815260040161046890611340565b5050565b600760209081526000928352604080842090915290825290205481565b60006103f86000610a38565b60009081526001602052604090205490565b600160a060020a031660009081526004602052604090205490565b336000908152600760209081526040808320600160a060020a03861684529091529020548111156106aa5760405160e560020a62461bcd02815260040161046890611350565b600081116106cd5760405160e560020a62461bcd02815260040161046890611320565b600160a060020a038216600090815260056020526040812054116107065760405160e560020a62461bcd02815260040161046890611370565b600160a060020a03821660009081526005602052604081205461072f919063ffffffff6109b316565b50600160a060020a03821660008181526004602090815260408083208054869003815533845260078352818420948452938252808320805486900390559254600590915291812054610787929063ffffffff6109d716565b506002546040517fa9059cbb000000000000000000000000000000000000000000000000000000008152600160a060020a039091169063a9059cbb906107d390339085906004016112e6565b602060405180830381600087803b1580156107ed57600080fd5b505af1158015610801573d6000803e3d6000fd5b505050506040513d601f19601f820116820180604052506108259190810190610fd6565b151561060a5760405160e560020a62461bcd02815260040161046890611360565b60046020526000908152604090205481565b6003805460010190819055600160a060020a038216600081815260056020908152604080832085905593825260069052829020805473ffffffffffffffffffffffffffffffffffffffff19169091179055517fd1353cba97ad47c7cb3fe47b31f66b3828fad44d0ba6832a1dc542e702323791906108d79083906112b0565b60405180910390a150565b60006103f86000610a53565b60606103f86000610a65565b610902610e8f565b6103b160008363ffffffff610ad516565b60056020526000908152604090205481565b600254600160a060020a031681565b61093c610e8f565b8254821061095d576040805180820190915260008082526020820152610999565b825483908390811061096b57fe5b9060005260206000209060020201604080519081016040529081600082015481526020016001820154815250505b9392505050565b6109a8610e8f565b6103b1826001610934565b6109bb610e8f565b6000828152600184016020526040902054610999908490610af9565b6109df610e8f565b6109e7610e8f565b845415156109f8576109f885610c42565b8454610a078660018301610ea6565b505060408051808201909152828152602081018490528454610a30908690839060001901610c87565b949350505050565b80546000908110610a4a5760006103b1565b50546000190190565b6000610a5e826109a0565b5192915050565b606081600001805480602002602001604051908101604052809291908181526020016000905b82821015610aca576000848152602090819020604080518082019091526002850290910180548252600190810154828401529083529092019101610a8b565b505050509050919050565b610add610e8f565b6000828152600184016020526040902054610999908490610934565b610b01610e8f565b610b09610e8f565b610b11610e8f565b845484101580610b22575060008411155b15610b425760408051808201909152600080825260208201529250610c3a565b8454859085908110610b5057fe5b60009182526020808320604080518082018252600290940290910180548085526001918201548585015285528901909152822091909155855490925085906000198101908110610b9c57fe5b6000918252602091829020604080518082019091526002909202018054825260010154918101919091528554909150610bd9866000198301610ea6565b508454841015610c3657610bee858286610c87565b610c36858660000186815481101515610c0357fe5b90600052602060002090600202016040805190810160405290816000820154815260200160018201548152505086610d2c565b8192505b505092915050565b80541515610c84576040805180820190915260008082526020808301828152845460018181018755868552929093209351600290930290930191825591519101555b50565b6001811480610cbc57508260028204815481101515610ca257fe5b906000526020600020906002020160010154826020015111155b15610cd157610ccc838383610e4d565b610d27565b610d19838060028404815481101515610ce657fe5b90600052602060002090600202016040805190810160405290816000820154815260200160018201548152505083610e4d565b610d27838360028404610c87565b505050565b600080610d37610e8f565b85549250600284029150818311610d5857610d53868686610e4d565b610e45565b8554869083908110610d6657fe5b90600052602060002090600202016040805190810160405290816000820154815260200160018201548152505090508160010183118015610dcc575060208101518654879060018501908110610db857fe5b906000526020600020906002020160010154115b15610e15578554600190920191869083908110610de557fe5b90600052602060002090600202016040805190810160405290816000820154815260200160018201548152505090505b6020808601519082015111610e2f57610d53868686610e4d565b610e3a868286610e4d565b610e45868684610d2c565b505050505050565b82548290849083908110610e5d57fe5b600091825260208083208451600290930201918255928301516001918201559351815293909201909152604090912055565b604080518082019091526000808252602082015290565b815481835581811115610d2757600083815260209020610d27916103ca9160029182028101918502015b80821115610eea5760008082556001820155600201610ed0565b5090565b600061099982356113a6565b600061099982516113b2565b600061099982356113b7565b600061099982356103ca565b600060208284031215610f3057600080fd5b6000610a308484610eee565b60008060408385031215610f4f57600080fd5b6000610f5b8585610eee565b9250506020610f6c85828601610eee565b9150509250929050565b60008060408385031215610f8957600080fd5b6000610f958585610eee565b9250506020610f6c85828601610f06565b60008060408385031215610fb957600080fd5b6000610fc58585610eee565b9250506020610f6c85828601610f12565b600060208284031215610fe857600080fd5b6000610a308484610efa565b60006020828403121561100657600080fd5b6000610a308484610f06565b60006020828403121561102457600080fd5b6000610a308484610f12565b611039816113a6565b82525050565b600061104a826113a2565b80845260208401935061105c8361139c565b60005b8281101561108c5761107286835161127d565b61107b8261139c565b60409690960195915060010161105f565b5093949350505050565b611039816113b7565b601781527f63616e6e6f742077697468647261772030207374616b65000000000000000000602082015260400190565b601681527f63616e6e6f74206465706f7369742030207374616b6500000000000000000000602082015260400190565b605081527f756e61626c6520746f207472616e7366657220746f6b656e732c20636865636b60208201527f20746861742047656e657261746f72526567697374727920697320617070726f60408201527f7665642061732061207370656e64657200000000000000000000000000000000606082015260800190565b604181527f63616e6e6f74207769746864726177206d6f7265207374616b65207468616e2060208201527f7573657220686173207374616b656420746f20746869732067656e657261746f60408201527f7200000000000000000000000000000000000000000000000000000000000000606082015260800190565b601981527f756e61626c6520746f207472616e7366657220746f6b656e7300000000000000602082015260400190565b603981527f63616e6e6f74206465706f736974207374616b6520696e2067656e657261746f60208201527f72207468617420686173206e6f74206265656e20616464656400000000000000604082015260600190565b8051604083019061128e84826112a7565b5060208201516112a160208501826112a7565b50505050565b611039816103ca565b602081016103b18284611030565b606081016112cc8286611030565b6112d96020830185611096565b610a3060408301846112a7565b604081016112f48285611030565b61099960208301846112a7565b60208082528101610999818461103f565b602081016103b18284611096565b602080825281016103b18161109f565b602080825281016103b1816110cf565b602080825281016103b1816110ff565b602080825281016103b18161117b565b602080825281016103b1816111f7565b602080825281016103b181611227565b604081016103b1828461127d565b602081016103b182846112a7565b60200190565b5190565b600160a060020a031690565b151590565b60006103b1826113a65600a265627a7a72305820442e6d3d25b0586056f8f2647a4707cc69798426f40149e5c919e70c174b93aa6c6578706572696d656e74616cf50037",
  "source": "pragma experimental ABIEncoderV2;\n\nimport \"openzeppelin-solidity/contracts/token/ERC20/StandardToken.sol\";\n\nimport \"./GeneratorFactory.sol\";\nimport \"./Generator.sol\";\nimport \"./helpers/Heap.sol\";\n\ncontract GeneratorRegistry {\n    using Heap for Heap.Data;\n    Heap.Data data;\n\n    event GeneratorAdded(address generator);\n\n    StandardToken public token;\n    uint256 public numGenerators = 0;\n    mapping(address => uint256) public stakeByGenerator;\n    mapping(address => uint256) public idByGenerator;\n    mapping(uint256 => address) public generatorById;\n    mapping(address => mapping(address => uint256)) public stakeByUserByGenerator;\n\n    constructor(StandardToken _token) public {\n        token = _token;\n        data.init();\n    }\n\n    function getActiveGenerator() public view returns (Generator) {\n        return Generator(generatorById[getMaxId()]);\n    }\n\n    function addGenerator(Generator generator) public {\n        numGenerators++;\n        idByGenerator[generator] = numGenerators;\n        generatorById[numGenerators] = generator;\n        emit GeneratorAdded(address(generator));\n    }\n\n    function depositStake(address generatorAddress, uint256 stake) public {\n        require(stake > 0, \"cannot deposit 0 stake\");\n        require(idByGenerator[generatorAddress] > 0, \"cannot deposit stake in generator that has not been added\");\n        if (stakeByGenerator[generatorAddress] > 0) {\n           data.extractById(idByGenerator[generatorAddress]);\n        }\n        stakeByGenerator[generatorAddress] += stake;\n        stakeByUserByGenerator[msg.sender][generatorAddress] += stake;\n        data.insert(stakeByGenerator[generatorAddress], idByGenerator[generatorAddress]);\n        require(token.transferFrom(msg.sender, this, stake), \"unable to transfer tokens, check that GeneratorRegistry is approved as a spender\");\n    }\n\n    function withdrawStake(address generatorAddress, uint256 stake) public {\n        require(stakeByUserByGenerator[msg.sender][generatorAddress] >= stake, \"cannot withdraw more stake than user has staked to this generator\");\n        require(stake > 0, \"cannot withdraw 0 stake\");\n        require(idByGenerator[generatorAddress] > 0, \"cannot deposit stake in generator that has not been added\");\n        data.extractById(idByGenerator[generatorAddress]);\n        stakeByGenerator[generatorAddress] -= stake;\n        stakeByUserByGenerator[msg.sender][generatorAddress] -= stake;\n        data.insert(stakeByGenerator[generatorAddress], idByGenerator[generatorAddress]);\n\n        require(token.transfer(msg.sender, stake), \"unable to transfer tokens\");\n    }\n\n    function getToken() public view returns (address) {\n        return token;\n    }\n\n    function getGeneratorStake(Generator g) public view returns (uint256) {\n        return stakeByGenerator[address(g)];\n    }\n\n    function getUserGeneratorStake(address user, Generator g) public view returns (uint256) {\n        return stakeByUserByGenerator[user][address(g)];\n    }\n\n    // heap view functions\n    function dump() public view returns (Heap.Node[]) {\n        return data.dump();\n    }\n    function getMax() public view returns (Heap.Node) {\n        return data.getMax();\n    }\n    function getMaxId() public view returns (uint256) {\n        return data.getMaxId();\n    }\n    function getById(uint256 id) public view returns (Heap.Node) {\n        return data.getById(id);\n    }\n    function getByIndex(uint256 i) public view returns (Heap.Node) {\n        return data.getByIndex(i);\n    }\n    function size() public view returns (uint256) {\n        return data.size();\n    }\n    function indices(uint256 id) public view returns (uint256) {\n        return data.indices[id];\n    }\n}",
  "sourcePath": "/Users/nickreynolds/Artonomous/artonomous/packages/contracts/contracts/GeneratorRegistry.sol",
  "compiler": {
    "name": "solc",
    "version": "0.4.24+commit.e67f0147.Emscripten.clang"
  },
  "schemaVersion": "2.0.1",
  "updatedAt": "2018-12-26T21:42:18.080Z"
}