{
  "contractName": "GeneratorRegistry",
  "abi": [
    {
      "constant": true,
      "inputs": [],
      "name": "numGenerators",
      "outputs": [
        {
          "name": "",
          "type": "uint256"
        }
      ],
      "payable": false,
      "stateMutability": "view",
      "type": "function",
      "signature": "0x1f5e60a3"
    },
    {
      "constant": true,
      "inputs": [
        {
          "name": "",
          "type": "uint256"
        }
      ],
      "name": "generatorById",
      "outputs": [
        {
          "name": "",
          "type": "address"
        }
      ],
      "payable": false,
      "stateMutability": "view",
      "type": "function",
      "signature": "0x359209c2"
    },
    {
      "constant": true,
      "inputs": [
        {
          "name": "",
          "type": "address"
        },
        {
          "name": "",
          "type": "address"
        }
      ],
      "name": "stakeByUserByGenerator",
      "outputs": [
        {
          "name": "",
          "type": "uint256"
        }
      ],
      "payable": false,
      "stateMutability": "view",
      "type": "function",
      "signature": "0x7418740a"
    },
    {
      "constant": true,
      "inputs": [
        {
          "name": "",
          "type": "address"
        }
      ],
      "name": "stakeByGenerator",
      "outputs": [
        {
          "name": "",
          "type": "uint256"
        }
      ],
      "payable": false,
      "stateMutability": "view",
      "type": "function",
      "signature": "0xcd717caa"
    },
    {
      "constant": true,
      "inputs": [
        {
          "name": "",
          "type": "address"
        }
      ],
      "name": "idByGenerator",
      "outputs": [
        {
          "name": "",
          "type": "uint256"
        }
      ],
      "payable": false,
      "stateMutability": "view",
      "type": "function",
      "signature": "0xfb2abc0c"
    },
    {
      "constant": true,
      "inputs": [],
      "name": "token",
      "outputs": [
        {
          "name": "",
          "type": "address"
        }
      ],
      "payable": false,
      "stateMutability": "view",
      "type": "function",
      "signature": "0xfc0c546a"
    },
    {
      "inputs": [
        {
          "name": "_token",
          "type": "address"
        }
      ],
      "payable": false,
      "stateMutability": "nonpayable",
      "type": "constructor",
      "signature": "constructor"
    },
    {
      "anonymous": false,
      "inputs": [
        {
          "indexed": false,
          "name": "generator",
          "type": "address"
        }
      ],
      "name": "GeneratorAdded",
      "type": "event",
      "signature": "0xd1353cba97ad47c7cb3fe47b31f66b3828fad44d0ba6832a1dc542e702323791"
    },
    {
      "anonymous": false,
      "inputs": [
        {
          "indexed": false,
          "name": "generator",
          "type": "address"
        }
      ],
      "name": "StakeAdded",
      "type": "event",
      "signature": "0x11f345af95ecd0e0b171a601aa00c60d1666073e7a3f84e4f0609ea7d98fbf6f"
    },
    {
      "anonymous": false,
      "inputs": [
        {
          "indexed": false,
          "name": "generator",
          "type": "address"
        }
      ],
      "name": "StakeWithdrawn",
      "type": "event",
      "signature": "0x4a7934670bd8304e7da22378be1368f7c4fef17c5aee81804beda8638fe428ec"
    },
    {
      "constant": true,
      "inputs": [],
      "name": "getActiveGenerator",
      "outputs": [
        {
          "name": "",
          "type": "address"
        }
      ],
      "payable": false,
      "stateMutability": "view",
      "type": "function",
      "signature": "0x471b2e2a"
    },
    {
      "constant": false,
      "inputs": [
        {
          "name": "generator",
          "type": "address"
        }
      ],
      "name": "addGenerator",
      "outputs": [],
      "payable": false,
      "stateMutability": "nonpayable",
      "type": "function",
      "signature": "0xcffafe26"
    },
    {
      "constant": false,
      "inputs": [
        {
          "name": "generatorAddress",
          "type": "address"
        },
        {
          "name": "stake",
          "type": "uint256"
        }
      ],
      "name": "depositStake",
      "outputs": [],
      "payable": false,
      "stateMutability": "nonpayable",
      "type": "function",
      "signature": "0x5410f365"
    },
    {
      "constant": false,
      "inputs": [
        {
          "name": "generatorAddress",
          "type": "address"
        },
        {
          "name": "stake",
          "type": "uint256"
        }
      ],
      "name": "withdrawStake",
      "outputs": [],
      "payable": false,
      "stateMutability": "nonpayable",
      "type": "function",
      "signature": "0xc6066272"
    },
    {
      "constant": true,
      "inputs": [],
      "name": "getToken",
      "outputs": [
        {
          "name": "",
          "type": "address"
        }
      ],
      "payable": false,
      "stateMutability": "view",
      "type": "function",
      "signature": "0x21df0da7"
    },
    {
      "constant": true,
      "inputs": [
        {
          "name": "g",
          "type": "address"
        }
      ],
      "name": "getGeneratorStake",
      "outputs": [
        {
          "name": "",
          "type": "uint256"
        }
      ],
      "payable": false,
      "stateMutability": "view",
      "type": "function",
      "signature": "0xb4689637"
    },
    {
      "constant": true,
      "inputs": [
        {
          "name": "user",
          "type": "address"
        },
        {
          "name": "g",
          "type": "address"
        }
      ],
      "name": "getUserGeneratorStake",
      "outputs": [
        {
          "name": "",
          "type": "uint256"
        }
      ],
      "payable": false,
      "stateMutability": "view",
      "type": "function",
      "signature": "0x06bab085"
    },
    {
      "constant": true,
      "inputs": [],
      "name": "dump",
      "outputs": [
        {
          "components": [
            {
              "name": "id",
              "type": "uint256"
            },
            {
              "name": "priority",
              "type": "uint256"
            }
          ],
          "name": "",
          "type": "tuple[]"
        }
      ],
      "payable": false,
      "stateMutability": "view",
      "type": "function",
      "signature": "0xe4330545"
    },
    {
      "constant": true,
      "inputs": [],
      "name": "getMax",
      "outputs": [
        {
          "components": [
            {
              "name": "id",
              "type": "uint256"
            },
            {
              "name": "priority",
              "type": "uint256"
            }
          ],
          "name": "",
          "type": "tuple"
        }
      ],
      "payable": false,
      "stateMutability": "view",
      "type": "function",
      "signature": "0x3075f552"
    },
    {
      "constant": true,
      "inputs": [],
      "name": "getMaxId",
      "outputs": [
        {
          "name": "",
          "type": "uint256"
        }
      ],
      "payable": false,
      "stateMutability": "view",
      "type": "function",
      "signature": "0xd477a712"
    },
    {
      "constant": true,
      "inputs": [
        {
          "name": "id",
          "type": "uint256"
        }
      ],
      "name": "getById",
      "outputs": [
        {
          "components": [
            {
              "name": "id",
              "type": "uint256"
            },
            {
              "name": "priority",
              "type": "uint256"
            }
          ],
          "name": "",
          "type": "tuple"
        }
      ],
      "payable": false,
      "stateMutability": "view",
      "type": "function",
      "signature": "0xf4f4d237"
    },
    {
      "constant": true,
      "inputs": [
        {
          "name": "i",
          "type": "uint256"
        }
      ],
      "name": "getByIndex",
      "outputs": [
        {
          "components": [
            {
              "name": "id",
              "type": "uint256"
            },
            {
              "name": "priority",
              "type": "uint256"
            }
          ],
          "name": "",
          "type": "tuple"
        }
      ],
      "payable": false,
      "stateMutability": "view",
      "type": "function",
      "signature": "0x2d883a73"
    },
    {
      "constant": true,
      "inputs": [],
      "name": "size",
      "outputs": [
        {
          "name": "",
          "type": "uint256"
        }
      ],
      "payable": false,
      "stateMutability": "view",
      "type": "function",
      "signature": "0x949d225d"
    },
    {
      "constant": true,
      "inputs": [
        {
          "name": "id",
          "type": "uint256"
        }
      ],
      "name": "indices",
      "outputs": [
        {
          "name": "",
          "type": "uint256"
        }
      ],
      "payable": false,
      "stateMutability": "view",
      "type": "function",
      "signature": "0xa1a953fd"
    }
  ],
  "bytecode": "0x608060405260006003553480156200001657600080fd5b50604051602080620015898339810180604052620000389190810190620000cf565b60028054600160a060020a031916600160a060020a0383161790556200006d600064010000000062000074810262000ca81704565b5062000117565b80541515620000b7576040805180820190915260008082526020808301828152845460018181018755868552929093209351600290930290930191825591519101555b50565b6000620000c8825162000104565b9392505050565b600060208284031215620000e257600080fd5b6000620000f08484620000ba565b949350505050565b600160a060020a031690565b60006200011182620000f8565b92915050565b61146280620001276000396000f3006080604052600436106101115763ffffffff7c010000000000000000000000000000000000000000000000000000000060003504166306bab08581146101165780631f5e60a31461014c57806321df0da7146101615780632d883a73146101835780633075f552146101b0578063359209c2146101c5578063471b2e2a146101e55780635410f365146102075780637418740a14610229578063949d225d14610249578063a1a953fd1461025e578063b46896371461027e578063c60662721461029e578063cd717caa146102be578063cffafe26146102de578063d477a712146102fe578063e433054514610313578063f4f4d23714610335578063fb2abc0c14610355578063fc0c546a14610375575b600080fd5b34801561012257600080fd5b50610136610131366004610fdc565b61038a565b60405161014391906113f4565b60405180910390f35b34801561015857600080fd5b506101366103b7565b34801561016d57600080fd5b506101766103bd565b6040516101439190611316565b34801561018f57600080fd5b506101a361019e366004611078565b6103cd565b60405161014391906113e6565b3480156101bc57600080fd5b506101a36103e6565b3480156101d157600080fd5b506101766101e0366004611078565b6103fd565b3480156101f157600080fd5b506101fa610418565b6040516101439190611378565b34801561021357600080fd5b5061022761022236600461100c565b610445565b005b34801561023557600080fd5b50610136610244366004610fa2565b610645565b34801561025557600080fd5b50610136610662565b34801561026a57600080fd5b50610136610279366004611078565b61066e565b34801561028a57600080fd5b5061013661029936600461105a565b610680565b3480156102aa57600080fd5b506102276102b936600461100c565b61069b565b3480156102ca57600080fd5b506101366102d9366004610f84565b6108ac565b3480156102ea57600080fd5b506102276102f936600461105a565b6108be565b34801561030a57600080fd5b50610136610948565b34801561031f57600080fd5b50610328610954565b6040516101439190611367565b34801561034157600080fd5b506101a3610350366004611078565b610960565b34801561036157600080fd5b50610136610370366004610f84565b610979565b34801561038157600080fd5b506101fa61098b565b600160a060020a038083166000908152600760209081526040808320938516835292905220545b92915050565b60035481565b600254600160a060020a03165b90565b6103d5610ef5565b6103b160008363ffffffff61099a16565b6103ee610ef5565b6103f86000610a06565b905090565b600660205260009081526040902054600160a060020a031681565b600060066000610426610948565b8152602081019190915260400160002054600160a060020a0316905090565b600081116104715760405160e560020a62461bcd02815260040161046890611396565b60405180910390fd5b600160a060020a038216600090815260056020526040812054116104aa5760405160e560020a62461bcd028152600401610468906113d6565b600160a060020a03821660009081526004602052604081205411156104f457600160a060020a0382166000908152600560205260408120546104f2919063ffffffff610a1916565b505b600160a060020a0382166000818152600460209081526040808320805486018155338452600783528184209484529382528083208054860190559254600590915291812054610549929063ffffffff610a3d16565b506002546040517f23b872dd000000000000000000000000000000000000000000000000000000008152600160a060020a03909116906323b872dd9061059790339030908690600401611324565b602060405180830381600087803b1580156105b157600080fd5b505af11580156105c5573d6000803e3d6000fd5b505050506040513d601f19601f820116820180604052506105e9919081019061103c565b151561060a5760405160e560020a62461bcd028152600401610468906113a6565b7f11f345af95ecd0e0b171a601aa00c60d1666073e7a3f84e4f0609ea7d98fbf6f826040516106399190611316565b60405180910390a15050565b600760209081526000928352604080842090915290825290205481565b60006103f86000610a9e565b60009081526001602052604090205490565b600160a060020a031660009081526004602052604090205490565b336000908152600760209081526040808320600160a060020a03861684529091529020548111156106e15760405160e560020a62461bcd028152600401610468906113b6565b600081116107045760405160e560020a62461bcd02815260040161046890611386565b600160a060020a0382166000908152600560205260408120541161073d5760405160e560020a62461bcd028152600401610468906113d6565b600160a060020a038216600090815260056020526040812054610766919063ffffffff610a1916565b50600160a060020a038216600081815260046020908152604080832080548690038155338452600783528184209484529382528083208054869003905592546005909152918120546107be929063ffffffff610a3d16565b506002546040517fa9059cbb000000000000000000000000000000000000000000000000000000008152600160a060020a039091169063a9059cbb9061080a903390859060040161134c565b602060405180830381600087803b15801561082457600080fd5b505af1158015610838573d6000803e3d6000fd5b505050506040513d601f19601f8201168201806040525061085c919081019061103c565b151561087d5760405160e560020a62461bcd028152600401610468906113c6565b7f4a7934670bd8304e7da22378be1368f7c4fef17c5aee81804beda8638fe428ec826040516106399190611316565b60046020526000908152604090205481565b6003805460010190819055600160a060020a038216600081815260056020908152604080832085905593825260069052829020805473ffffffffffffffffffffffffffffffffffffffff19169091179055517fd1353cba97ad47c7cb3fe47b31f66b3828fad44d0ba6832a1dc542e7023237919061093d908390611316565b60405180910390a150565b60006103f86000610ab9565b60606103f86000610acb565b610968610ef5565b6103b160008363ffffffff610b3b16565b60056020526000908152604090205481565b600254600160a060020a031681565b6109a2610ef5565b825482106109c35760408051808201909152600080825260208201526109ff565b82548390839081106109d157fe5b9060005260206000209060020201604080519081016040529081600082015481526020016001820154815250505b9392505050565b610a0e610ef5565b6103b182600161099a565b610a21610ef5565b60008281526001840160205260409020546109ff908490610b5f565b610a45610ef5565b610a4d610ef5565b84541515610a5e57610a5e85610ca8565b8454610a6d8660018301610f0c565b505060408051808201909152828152602081018490528454610a96908690839060001901610ced565b949350505050565b80546000908110610ab05760006103b1565b50546000190190565b6000610ac482610a06565b5192915050565b606081600001805480602002602001604051908101604052809291908181526020016000905b82821015610b30576000848152602090819020604080518082019091526002850290910180548252600190810154828401529083529092019101610af1565b505050509050919050565b610b43610ef5565b60008281526001840160205260409020546109ff90849061099a565b610b67610ef5565b610b6f610ef5565b610b77610ef5565b845484101580610b88575060008411155b15610ba85760408051808201909152600080825260208201529250610ca0565b8454859085908110610bb657fe5b60009182526020808320604080518082018252600290940290910180548085526001918201548585015285528901909152822091909155855490925085906000198101908110610c0257fe5b6000918252602091829020604080518082019091526002909202018054825260010154918101919091528554909150610c3f866000198301610f0c565b508454841015610c9c57610c54858286610ced565b610c9c858660000186815481101515610c6957fe5b90600052602060002090600202016040805190810160405290816000820154815260200160018201548152505086610d92565b8192505b505092915050565b80541515610cea576040805180820190915260008082526020808301828152845460018181018755868552929093209351600290930290930191825591519101555b50565b6001811480610d2257508260028204815481101515610d0857fe5b906000526020600020906002020160010154826020015111155b15610d3757610d32838383610eb3565b610d8d565b610d7f838060028404815481101515610d4c57fe5b90600052602060002090600202016040805190810160405290816000820154815260200160018201548152505083610eb3565b610d8d838360028404610ced565b505050565b600080610d9d610ef5565b85549250600284029150818311610dbe57610db9868686610eb3565b610eab565b8554869083908110610dcc57fe5b90600052602060002090600202016040805190810160405290816000820154815260200160018201548152505090508160010183118015610e32575060208101518654879060018501908110610e1e57fe5b906000526020600020906002020160010154115b15610e7b578554600190920191869083908110610e4b57fe5b90600052602060002090600202016040805190810160405290816000820154815260200160018201548152505090505b6020808601519082015111610e9557610db9868686610eb3565b610ea0868286610eb3565b610eab868684610d92565b505050505050565b82548290849083908110610ec357fe5b600091825260208083208451600290930201918255928301516001918201559351815293909201909152604090912055565b604080518082019091526000808252602082015290565b815481835581811115610d8d57600083815260209020610d8d916103ca9160029182028101918502015b80821115610f505760008082556001820155600201610f36565b5090565b60006109ff823561140c565b60006109ff8251611418565b60006109ff823561141d565b60006109ff82356103ca565b600060208284031215610f9657600080fd5b6000610a968484610f54565b60008060408385031215610fb557600080fd5b6000610fc18585610f54565b9250506020610fd285828601610f54565b9150509250929050565b60008060408385031215610fef57600080fd5b6000610ffb8585610f54565b9250506020610fd285828601610f6c565b6000806040838503121561101f57600080fd5b600061102b8585610f54565b9250506020610fd285828601610f78565b60006020828403121561104e57600080fd5b6000610a968484610f60565b60006020828403121561106c57600080fd5b6000610a968484610f6c565b60006020828403121561108a57600080fd5b6000610a968484610f78565b61109f8161140c565b82525050565b60006110b082611408565b8084526020840193506110c283611402565b60005b828110156110f2576110d88683516112e3565b6110e182611402565b6040969096019591506001016110c5565b5093949350505050565b61109f8161141d565b601781527f63616e6e6f742077697468647261772030207374616b65000000000000000000602082015260400190565b601681527f63616e6e6f74206465706f7369742030207374616b6500000000000000000000602082015260400190565b605081527f756e61626c6520746f207472616e7366657220746f6b656e732c20636865636b60208201527f20746861742047656e657261746f72526567697374727920697320617070726f60408201527f7665642061732061207370656e64657200000000000000000000000000000000606082015260800190565b604181527f63616e6e6f74207769746864726177206d6f7265207374616b65207468616e2060208201527f7573657220686173207374616b656420746f20746869732067656e657261746f60408201527f7200000000000000000000000000000000000000000000000000000000000000606082015260800190565b601981527f756e61626c6520746f207472616e7366657220746f6b656e7300000000000000602082015260400190565b603981527f63616e6e6f74206465706f736974207374616b6520696e2067656e657261746f60208201527f72207468617420686173206e6f74206265656e20616464656400000000000000604082015260600190565b805160408301906112f4848261130d565b506020820151611307602085018261130d565b50505050565b61109f816103ca565b602081016103b18284611096565b606081016113328286611096565b61133f60208301856110fc565b610a96604083018461130d565b6040810161135a8285611096565b6109ff602083018461130d565b602080825281016109ff81846110a5565b602081016103b182846110fc565b602080825281016103b181611105565b602080825281016103b181611135565b602080825281016103b181611165565b602080825281016103b1816111e1565b602080825281016103b18161125d565b602080825281016103b18161128d565b604081016103b182846112e3565b602081016103b1828461130d565b60200190565b5190565b600160a060020a031690565b151590565b60006103b18261140c5600a265627a7a72305820bd2043aa8c8f3256111fdadb7d423b06c8971cd291b7e2c57f6a32b289be47fb6c6578706572696d656e74616cf50037",
  "source": "pragma experimental ABIEncoderV2;\n\nimport \"openzeppelin-solidity/contracts/token/ERC20/StandardToken.sol\";\n\nimport \"./GeneratorFactory.sol\";\nimport \"./Generator.sol\";\nimport \"./helpers/Heap.sol\";\n\ncontract GeneratorRegistry {\n    using Heap for Heap.Data;\n    Heap.Data data;\n\n    event GeneratorAdded(address generator);\n    event StakeAdded(address generator);\n    event StakeWithdrawn(address generator);\n\n    StandardToken public token;\n    uint256 public numGenerators = 0;\n    mapping(address => uint256) public stakeByGenerator;\n    mapping(address => uint256) public idByGenerator;\n    mapping(uint256 => address) public generatorById;\n    mapping(address => mapping(address => uint256)) public stakeByUserByGenerator;\n\n    constructor(StandardToken _token) public {\n        token = _token;\n        data.init();\n    }\n\n    function getActiveGenerator() public view returns (Generator) {\n        return Generator(generatorById[getMaxId()]);\n    }\n\n    function addGenerator(Generator generator) public {\n        numGenerators++;\n        idByGenerator[generator] = numGenerators;\n        generatorById[numGenerators] = generator;\n        emit GeneratorAdded(address(generator));\n    }\n\n    function depositStake(address generatorAddress, uint256 stake) public {\n        require(stake > 0, \"cannot deposit 0 stake\");\n        require(idByGenerator[generatorAddress] > 0, \"cannot deposit stake in generator that has not been added\");\n        if (stakeByGenerator[generatorAddress] > 0) {\n           data.extractById(idByGenerator[generatorAddress]);\n        }\n        stakeByGenerator[generatorAddress] += stake;\n        stakeByUserByGenerator[msg.sender][generatorAddress] += stake;\n        data.insert(stakeByGenerator[generatorAddress], idByGenerator[generatorAddress]);\n        require(token.transferFrom(msg.sender, this, stake), \"unable to transfer tokens, check that GeneratorRegistry is approved as a spender\");\n        emit StakeAdded(generatorAddress);\n    }\n\n    function withdrawStake(address generatorAddress, uint256 stake) public {\n        require(stakeByUserByGenerator[msg.sender][generatorAddress] >= stake, \"cannot withdraw more stake than user has staked to this generator\");\n        require(stake > 0, \"cannot withdraw 0 stake\");\n        require(idByGenerator[generatorAddress] > 0, \"cannot deposit stake in generator that has not been added\");\n        data.extractById(idByGenerator[generatorAddress]);\n        stakeByGenerator[generatorAddress] -= stake;\n        stakeByUserByGenerator[msg.sender][generatorAddress] -= stake;\n        data.insert(stakeByGenerator[generatorAddress], idByGenerator[generatorAddress]);\n\n        require(token.transfer(msg.sender, stake), \"unable to transfer tokens\");\n        emit StakeWithdrawn(generatorAddress);\n    }\n\n    function getToken() public view returns (address) {\n        return token;\n    }\n\n    function getGeneratorStake(Generator g) public view returns (uint256) {\n        return stakeByGenerator[address(g)];\n    }\n\n    function getUserGeneratorStake(address user, Generator g) public view returns (uint256) {\n        return stakeByUserByGenerator[user][address(g)];\n    }\n\n    // heap view functions\n    function dump() public view returns (Heap.Node[]) {\n        return data.dump();\n    }\n    function getMax() public view returns (Heap.Node) {\n        return data.getMax();\n    }\n    function getMaxId() public view returns (uint256) {\n        return data.getMaxId();\n    }\n    function getById(uint256 id) public view returns (Heap.Node) {\n        return data.getById(id);\n    }\n    function getByIndex(uint256 i) public view returns (Heap.Node) {\n        return data.getByIndex(i);\n    }\n    function size() public view returns (uint256) {\n        return data.size();\n    }\n    function indices(uint256 id) public view returns (uint256) {\n        return data.indices[id];\n    }\n}",
  "sourcePath": "/Users/nickreynolds/Artonomous/artonomous/packages/contracts/contracts/GeneratorRegistry.sol",
  "compiler": {
    "name": "solc",
    "version": "0.4.24+commit.e67f0147.Emscripten.clang"
  },
  "schemaVersion": "3.0.1",
  "updatedAt": "2019-02-11T04:18:52.636Z"
}