{
  "contractName": "GeneratorRegistry",
  "abi": [
    {
      "constant": true,
      "inputs": [
        {
          "name": "",
          "type": "uint256"
        }
      ],
      "name": "generators",
      "outputs": [
        {
          "name": "",
          "type": "address"
        }
      ],
      "payable": false,
      "stateMutability": "view",
      "type": "function"
    },
    {
      "constant": true,
      "inputs": [],
      "name": "activeGenerator",
      "outputs": [
        {
          "name": "",
          "type": "address"
        }
      ],
      "payable": false,
      "stateMutability": "view",
      "type": "function"
    },
    {
      "constant": true,
      "inputs": [],
      "name": "token",
      "outputs": [
        {
          "name": "",
          "type": "address"
        }
      ],
      "payable": false,
      "stateMutability": "view",
      "type": "function"
    },
    {
      "inputs": [
        {
          "name": "_token",
          "type": "address"
        }
      ],
      "payable": false,
      "stateMutability": "nonpayable",
      "type": "constructor"
    },
    {
      "anonymous": false,
      "inputs": [
        {
          "indexed": true,
          "name": "context",
          "type": "bytes32"
        },
        {
          "indexed": false,
          "name": "registryEntry",
          "type": "address"
        },
        {
          "indexed": false,
          "name": "eventType",
          "type": "bytes32"
        }
      ],
      "name": "RegistryEntryEVT",
      "type": "event"
    },
    {
      "constant": true,
      "inputs": [],
      "name": "getActiveGenerator",
      "outputs": [
        {
          "name": "",
          "type": "address"
        }
      ],
      "payable": false,
      "stateMutability": "view",
      "type": "function"
    },
    {
      "constant": false,
      "inputs": [
        {
          "name": "_generator",
          "type": "address"
        }
      ],
      "name": "addGenerator",
      "outputs": [],
      "payable": false,
      "stateMutability": "nonpayable",
      "type": "function"
    },
    {
      "constant": false,
      "inputs": [
        {
          "name": "_eventType",
          "type": "bytes32"
        }
      ],
      "name": "fireRegistryEvent",
      "outputs": [],
      "payable": false,
      "stateMutability": "nonpayable",
      "type": "function"
    },
    {
      "constant": true,
      "inputs": [],
      "name": "getToken",
      "outputs": [
        {
          "name": "",
          "type": "address"
        }
      ],
      "payable": false,
      "stateMutability": "view",
      "type": "function"
    },
    {
      "constant": true,
      "inputs": [],
      "name": "getGenerators",
      "outputs": [
        {
          "name": "",
          "type": "address[]"
        }
      ],
      "payable": false,
      "stateMutability": "view",
      "type": "function"
    }
  ],
  "bytecode": "0x608060405234801561001057600080fd5b506040516020806103c1833981016040525160008054600160a060020a03909216600160a060020a031990921691909117905561036f806100526000396000f30060806040526004361061008d5763ffffffff7c01000000000000000000000000000000000000000000000000000000006000350416631fad9b63811461009257806321df0da7146100c6578063471b2e2a146100db5780634dc045ef146100f0578063695478f1146101055780638a19d2971461016a578063cffafe2614610184578063fc0c546a146101a5575b600080fd5b34801561009e57600080fd5b506100aa6004356101ba565b60408051600160a060020a039092168252519081900360200190f35b3480156100d257600080fd5b506100aa6101e2565b3480156100e757600080fd5b506100aa6101f1565b3480156100fc57600080fd5b506100aa610200565b34801561011157600080fd5b5061011a61020f565b60408051602080825283518183015283519192839290830191858101910280838360005b8381101561015657818101518382015260200161013e565b505050509050019250505060405180910390f35b34801561017657600080fd5b50610182600435610271565b005b34801561019057600080fd5b50610182600160a060020a03600435166102ce565b3480156101b157600080fd5b506100aa610334565b60028054829081106101c857fe5b600091825260209091200154600160a060020a0316905081565b600054600160a060020a031690565b600154600160a060020a031690565b600154600160a060020a031681565b6060600280548060200260200160405190810160405280929190818152602001828054801561026757602002820191906000526020600020905b8154600160a060020a03168152600190910190602001808311610249575b5050505050905090565b604080513381526020810183905281517f41727447656e657261746f720000000000000000000000000000000000000000927f2af7bec8d40bdee9862a707f3b13ee2c6e4a4a0a5b3165e2f4e14d5d8b9b5c4c928290030190a250565b60018054600160a060020a0390921673ffffffffffffffffffffffffffffffffffffffff19928316811782556002805492830181556000527f405787fa12a823e0f2b7631cc41b3ba8828b3321ca811111fa75cd3aa3bb5ace9091018054909216179055565b600054600160a060020a0316815600a165627a7a72305820090d8a43dbcaf62bdf75aaa101826d4f9f60eabb706d597f6f92fd5e6c4ccacd0029",
  "source": "pragma solidity ^0.4.24;\n\nimport \"openzeppelin-solidity/contracts/token/ERC20/StandardToken.sol\";\n\nimport \"./GeneratorFactory.sol\";\nimport \"./Generator.sol\";\n\ncontract GeneratorRegistry {\n    // event RegistryEntryEV(address indexed registryEntry, bytes32 indexed eventType);\n    event RegistryEntryEVT(bytes32 indexed context, address registryEntry, bytes32 eventType);\n\n    StandardToken public token;\n    Generator public activeGenerator;\n    Generator[] public generators;\n\n    constructor(StandardToken _token) public {\n        token = _token;\n    }\n\n    function getActiveGenerator() public view returns (Generator) {\n        return activeGenerator;\n    }\n\n    function addGenerator(Generator _generator) public {\n        activeGenerator = _generator;\n        generators.push(_generator);\n    }\n\n    function fireRegistryEvent(bytes32 _eventType) public {\n        emit RegistryEntryEVT(\"ArtGenerator\", msg.sender, _eventType);\n    }\n\n    function getToken() public view returns (address) {\n        return token;\n    }\n\n    function getGenerators() public view returns (Generator[]) {\n        return generators;\n    }\n}",
  "sourcePath": "/Users/nickreynolds/Artonomous/artonomous/packages/contracts/contracts/GeneratorRegistry.sol",
  "compiler": {
    "name": "solc",
    "version": "0.4.24+commit.e67f0147.Emscripten.clang"
  },
  "schemaVersion": "2.0.1",
  "updatedAt": "2018-10-17T00:37:28.117Z"
}