{
  "contractName": "GeneratorFactory",
  "abi": [
    {
      "constant": false,
      "inputs": [
        {
          "name": "admin",
          "type": "address"
        },
        {
          "name": "implementation",
          "type": "address"
        }
      ],
      "name": "createProxy",
      "outputs": [
        {
          "name": "",
          "type": "address"
        }
      ],
      "payable": false,
      "stateMutability": "nonpayable",
      "type": "function"
    },
    {
      "constant": true,
      "inputs": [],
      "name": "implementation",
      "outputs": [
        {
          "name": "",
          "type": "address"
        }
      ],
      "payable": false,
      "stateMutability": "view",
      "type": "function"
    },
    {
      "constant": true,
      "inputs": [],
      "name": "registry",
      "outputs": [
        {
          "name": "",
          "type": "address"
        }
      ],
      "payable": false,
      "stateMutability": "view",
      "type": "function"
    },
    {
      "constant": false,
      "inputs": [
        {
          "name": "admin",
          "type": "address"
        },
        {
          "name": "implementation",
          "type": "address"
        },
        {
          "name": "data",
          "type": "bytes"
        }
      ],
      "name": "createProxyAndCall",
      "outputs": [
        {
          "name": "",
          "type": "address"
        }
      ],
      "payable": true,
      "stateMutability": "payable",
      "type": "function"
    },
    {
      "inputs": [
        {
          "name": "_registry",
          "type": "address"
        },
        {
          "name": "_implementation",
          "type": "address"
        }
      ],
      "payable": false,
      "stateMutability": "nonpayable",
      "type": "constructor"
    },
    {
      "anonymous": false,
      "inputs": [
        {
          "indexed": false,
          "name": "proxy",
          "type": "address"
        }
      ],
      "name": "ProxyCreated",
      "type": "event"
    },
    {
      "constant": false,
      "inputs": [
        {
          "name": "name",
          "type": "string"
        },
        {
          "name": "sourceUri",
          "type": "string"
        }
      ],
      "name": "createGenerator",
      "outputs": [],
      "payable": false,
      "stateMutability": "nonpayable",
      "type": "function"
    }
  ],
  "bytecode": "0x608060405234801561001057600080fd5b50604051604080610f2383398101604052805160209091015160008054600160a060020a03938416600160a060020a03199182161790915560018054939092169216919091179055610ebc806100676000396000f3006080604052600436106100535763ffffffff60e060020a60003504166325b5672781146100585780635c60da1b1461009b5780637b103999146100b0578063c6e8b4f3146100c5578063e078156f14610127575b600080fd5b34801561006457600080fd5b5061007f600160a060020a03600435811690602435166101c0565b60408051600160a060020a039092168252519081900360200190f35b3480156100a757600080fd5b5061007f610249565b3480156100bc57600080fd5b5061007f610258565b604080516020600460443581810135601f810184900484028501840190955284845261007f948235600160a060020a03908116956024803590921695369594606494929301919081908401838280828437509497506102679650505050505050565b34801561013357600080fd5b506040805160206004803580820135601f81018490048402850184019095528484526101be94369492936024939284019190819084018382808284375050604080516020601f89358b018035918201839004830284018301909452808352979a9998810197919650918201945092508291508401838280828437509497506103739650505050505050565b005b6000806101cc836105f4565b905080600160a060020a0316638f283970856040518263ffffffff1660e060020a0281526004018082600160a060020a0316600160a060020a03168152602001915050600060405180830381600087803b15801561022957600080fd5b505af115801561023d573d6000803e3d6000fd5b50929695505050505050565b600154600160a060020a031681565b600054600160a060020a031681565b600080610273846105f4565b905080600160a060020a0316638f283970866040518263ffffffff1660e060020a0281526004018082600160a060020a0316600160a060020a03168152602001915050600060405180830381600087803b1580156102d057600080fd5b505af11580156102e4573d6000803e3d6000fd5b5050505080600160a060020a0316348460405180828051906020019080838360005b8381101561031e578181015183820152602001610306565b50505050905090810190601f16801561034b5780820380516001836020036101000a031916815260200191505b5091505060006040518083038185875af192505050151561036b57600080fd5b949350505050565b60008054600154604080517f25b56727000000000000000000000000000000000000000000000000000000008152600160a060020a0393841660048201529290911660248301525130916325b5672791604480830192602092919082900301818787803b1580156103e357600080fd5b505af11580156103f7573d6000803e3d6000fd5b505050506040513d602081101561040d57600080fd5b505160008054604080517fcffafe26000000000000000000000000000000000000000000000000000000008152600160a060020a038086166004830152915194955091169263cffafe269260248084019391929182900301818387803b15801561047657600080fd5b505af115801561048a573d6000803e3d6000fd5b5050600080546040517f7d836512000000000000000000000000000000000000000000000000000000008152600160a060020a039182166004820181815233604484018190526080602485019081528b5160848601528b51958a169850637d836512975092958b9591948b9492606482019260a4909201916020890191908190849084905b8381101561052757818101518382015260200161050f565b50505050905090810190601f1680156105545780820380516001836020036101000a031916815260200191505b50838103825284518152845160209182019186019080838360005b8381101561058757818101518382015260200161056f565b50505050905090810190601f1680156105b45780820380516001836020036101000a031916815260200191505b509650505050505050600060405180830381600087803b1580156105d757600080fd5b505af11580156105eb573d6000803e3d6000fd5b50505050505050565b60008082610600610673565b600160a060020a03909116815260405190819003602001906000f08015801561062d573d6000803e3d6000fd5b5060408051600160a060020a038316815290519192507efffc2da0b561cae30d9826d37709e9421c4725faebc226cbbb7ef5fc5e7349919081900360200190a192915050565b60405161080d80610684833901905600608060405234801561001057600080fd5b5060405160208061080d83398101604081815291517f6f72672e7a657070656c696e6f732e70726f78792e696d706c656d656e74617482527f696f6e00000000000000000000000000000000000000000000000000000000006020830152915190819003602301902081906000805160206107ed8339815191521461009157fe5b6100a381640100000000610104810204565b50604080517f6f72672e7a657070656c696e6f732e70726f78792e61646d696e0000000000008152905190819003601a0190206000805160206107cd833981519152146100ec57fe5b6100fe336401000000006101c2810204565b506101dc565b600061011c826401000000006105ae6101d482021704565b15156101af57604080517f08c379a000000000000000000000000000000000000000000000000000000000815260206004820152603b60248201527f43616e6e6f742073657420612070726f787920696d706c656d656e746174696f60448201527f6e20746f2061206e6f6e2d636f6e747261637420616464726573730000000000606482015290519081900360840190fd5b506000805160206107ed83398151915255565b6000805160206107cd83398151915255565b6000903b1190565b6105e2806101eb6000396000f30060806040526004361061006c5763ffffffff7c01000000000000000000000000000000000000000000000000000000006000350416633659cfe681146100765780634f1ef286146100975780635c60da1b146100b75780638f283970146100e8578063f851a44014610109575b61007461011e565b005b34801561008257600080fd5b50610074600160a060020a0360043516610138565b61007460048035600160a060020a03169060248035908101910135610172565b3480156100c357600080fd5b506100cc6101ea565b60408051600160a060020a039092168252519081900360200190f35b3480156100f457600080fd5b50610074600160a060020a0360043516610227565b34801561011557600080fd5b506100cc610339565b610126610364565b610136610131610411565b610436565b565b61014061045a565b600160a060020a031633600160a060020a03161415610167576101628161047f565b61016f565b61016f61011e565b50565b61017a61045a565b600160a060020a031633600160a060020a031614156101dd5761019c8361047f565b30600160a060020a03163483836040518083838082843782019150509250505060006040518083038185875af19250505015156101d857600080fd5b6101e5565b6101e561011e565b505050565b60006101f461045a565b600160a060020a031633600160a060020a0316141561021c57610215610411565b9050610224565b61022461011e565b90565b61022f61045a565b600160a060020a031633600160a060020a0316141561016757600160a060020a03811615156102e557604080517f08c379a000000000000000000000000000000000000000000000000000000000815260206004820152603660248201527f43616e6e6f74206368616e6765207468652061646d696e206f6620612070726f60448201527f787920746f20746865207a65726f206164647265737300000000000000000000606482015290519081900360840190fd5b7f7e644d79422f17c01e4894b5f4f588d331ebfa28653d42ae832dc59e38c9798f61030e61045a565b60408051600160a060020a03928316815291841660208301528051918290030190a1610162816104c7565b600061034361045a565b600160a060020a031633600160a060020a0316141561021c5761021561045a565b61036c61045a565b600160a060020a031633141561040957604080517f08c379a000000000000000000000000000000000000000000000000000000000815260206004820152603260248201527f43616e6e6f742063616c6c2066616c6c6261636b2066756e6374696f6e20667260448201527f6f6d207468652070726f78792061646d696e0000000000000000000000000000606482015290519081900360840190fd5b610136610136565b7f7050c9e0f4ca769c69bd3a8ef740bc37934f8e2c036e5a723fd8ee048ed3f8c35490565b3660008037600080366000845af43d6000803e808015610455573d6000f35b3d6000fd5b7f10d6a54a4754c8869d6886b5f5d7fbfa5b4522237ea5c60d11bc4e7a1ff9390b5490565b610488816104eb565b60408051600160a060020a038316815290517fbc7cd75a20ee27fd9adebab32041f755214dbc6bffa90cc0225b39da2e5c2d3b9181900360200190a150565b7f10d6a54a4754c8869d6886b5f5d7fbfa5b4522237ea5c60d11bc4e7a1ff9390b55565b60006104f6826105ae565b151561058957604080517f08c379a000000000000000000000000000000000000000000000000000000000815260206004820152603b60248201527f43616e6e6f742073657420612070726f787920696d706c656d656e746174696f60448201527f6e20746f2061206e6f6e2d636f6e747261637420616464726573730000000000606482015290519081900360840190fd5b507f7050c9e0f4ca769c69bd3a8ef740bc37934f8e2c036e5a723fd8ee048ed3f8c355565b6000903b11905600a165627a7a7230582033a724f263dac6cd25ceea6003e4da53479feaa9da47f108ea115ab2a60dc728002910d6a54a4754c8869d6886b5f5d7fbfa5b4522237ea5c60d11bc4e7a1ff9390b7050c9e0f4ca769c69bd3a8ef740bc37934f8e2c036e5a723fd8ee048ed3f8c3a165627a7a7230582090493be2204fee415cb779574a5a41b79e5359fca895a1bb1bdc17c0fc292cfe0029",
  "source": "pragma solidity ^0.4.24;\n\nimport \"zos-lib/contracts/upgradeability/UpgradeabilityProxyFactory.sol\";\n\nimport \"./GeneratorRegistry.sol\";\nimport \"./Generator.sol\";\n\n/**\n * @title Base Factory contract for creating Generator contracts\n */\ncontract GeneratorFactory is UpgradeabilityProxyFactory {\n  GeneratorRegistry public registry;\n  address public implementation;\n\n  constructor(GeneratorRegistry _registry, address _implementation) public {\n    registry = _registry;\n    implementation = _implementation;\n  }\n\n  function createGenerator(string name, string sourceUri) public {\n    Generator generator = Generator(this.createProxy(registry, implementation));\n    registry.addGenerator(generator);\n    generator.initialize(registry, name, msg.sender, sourceUri);\n  }\n}",
  "sourcePath": "/Users/nickreynolds/Artonomous/artonomous/packages/contracts/contracts/GeneratorFactory.sol",
  "compiler": {
    "name": "solc",
    "version": "0.4.24+commit.e67f0147.Emscripten.clang"
  },
  "schemaVersion": "2.0.1",
  "updatedAt": "2018-10-23T03:33:05.700Z"
}