{
  "contractName": "GeneratorRegistry",
  "abi": [
    {
      "constant": true,
      "inputs": [],
      "name": "factory",
      "outputs": [
        {
          "name": "",
          "type": "address"
        }
      ],
      "payable": false,
      "stateMutability": "view",
      "type": "function"
    },
    {
      "constant": true,
      "inputs": [],
      "name": "token",
      "outputs": [
        {
          "name": "",
          "type": "address"
        }
      ],
      "payable": false,
      "stateMutability": "view",
      "type": "function"
    },
    {
      "inputs": [
        {
          "name": "_token",
          "type": "address"
        }
      ],
      "payable": false,
      "stateMutability": "nonpayable",
      "type": "constructor"
    },
    {
      "anonymous": false,
      "inputs": [
        {
          "indexed": true,
          "name": "context",
          "type": "bytes32"
        },
        {
          "indexed": false,
          "name": "registryEntry",
          "type": "address"
        },
        {
          "indexed": false,
          "name": "eventType",
          "type": "bytes32"
        }
      ],
      "name": "RegistryEntryEVT",
      "type": "event"
    },
    {
      "constant": true,
      "inputs": [],
      "name": "getActiveGenerator",
      "outputs": [
        {
          "name": "",
          "type": "address"
        }
      ],
      "payable": false,
      "stateMutability": "view",
      "type": "function"
    },
    {
      "constant": false,
      "inputs": [
        {
          "name": "_generator",
          "type": "address"
        }
      ],
      "name": "addGenerator",
      "outputs": [],
      "payable": false,
      "stateMutability": "nonpayable",
      "type": "function"
    },
    {
      "constant": false,
      "inputs": [
        {
          "name": "_factory",
          "type": "address"
        }
      ],
      "name": "setFactory",
      "outputs": [],
      "payable": false,
      "stateMutability": "nonpayable",
      "type": "function"
    },
    {
      "constant": false,
      "inputs": [
        {
          "name": "_eventType",
          "type": "bytes32"
        }
      ],
      "name": "fireRegistryEvent",
      "outputs": [],
      "payable": false,
      "stateMutability": "nonpayable",
      "type": "function"
    },
    {
      "constant": true,
      "inputs": [],
      "name": "getToken",
      "outputs": [
        {
          "name": "",
          "type": "address"
        }
      ],
      "payable": false,
      "stateMutability": "view",
      "type": "function"
    }
  ],
  "bytecode": "0x608060405234801561001057600080fd5b50604051602080610300833981016040525160018054600160a060020a031916600160a060020a039092169190911790556102b0806100506000396000f3006080604052600436106100825763ffffffff7c010000000000000000000000000000000000000000000000000000000060003504166321df0da78114610087578063471b2e2a146100b85780635bb47808146100cd5780638a19d297146100f0578063c45a015514610108578063cffafe261461011d578063fc0c546a1461013e575b600080fd5b34801561009357600080fd5b5061009c610153565b60408051600160a060020a039092168252519081900360200190f35b3480156100c457600080fd5b5061009c610162565b3480156100d957600080fd5b506100ee600160a060020a0360043516610171565b005b3480156100fc57600080fd5b506100ee6004356101a0565b34801561011457600080fd5b5061009c6101fd565b34801561012957600080fd5b506100ee600160a060020a036004351661020c565b34801561014a57600080fd5b5061009c610275565b600154600160a060020a031690565b600254600160a060020a031690565b6000805473ffffffffffffffffffffffffffffffffffffffff1916600160a060020a0392909216919091179055565b604080513381526020810183905281517f41727447656e657261746f720000000000000000000000000000000000000000927f2af7bec8d40bdee9862a707f3b13ee2c6e4a4a0a5b3165e2f4e14d5d8b9b5c4c928290030190a250565b600054600160a060020a031681565b60028054600160a060020a0390921673ffffffffffffffffffffffffffffffffffffffff199283168117909155600380546001810182556000919091527fc2575a0e9e593c00f959f8c92f12db2869c3395a3b0502d05e2516446f71f85b018054909216179055565b600154600160a060020a0316815600a165627a7a723058209b9efcb6249e85e9108f84318b690d0c6de22f7dcb957b78baf36759310f401c0029",
  "source": "pragma solidity ^0.4.24;\n\nimport \"openzeppelin-solidity/contracts/token/ERC20/StandardToken.sol\";\n\nimport \"./GeneratorFactory.sol\";\nimport \"./Generator.sol\";\n\ncontract GeneratorRegistry {\n    // event RegistryEntryEV(address indexed registryEntry, bytes32 indexed eventType);\n    event RegistryEntryEVT(bytes32 indexed context, address registryEntry, bytes32 eventType);\n\n    GeneratorFactory public factory;\n    StandardToken public token;\n    Generator activeGenerator;\n    Generator[] generators;\n\n    constructor(StandardToken _token) public {\n        token = _token;\n    }\n\n    function getActiveGenerator() public view returns (Generator) {\n        return activeGenerator;\n    }\n\n    function addGenerator(Generator _generator) public {\n        activeGenerator = _generator;\n        generators.push(_generator);\n    }\n\n    function setFactory(GeneratorFactory _factory) public {\n        factory = _factory;\n    }\n\n    function fireRegistryEvent(bytes32 _eventType) public {\n        emit RegistryEntryEVT(\"ArtGenerator\", msg.sender, _eventType);\n    }\n\n    function getToken() public view returns (address) {\n        return token;\n    }\n}",
  "sourcePath": "/Users/nickreynolds/Artonomous/artonomous/packages/contracts/contracts/GeneratorRegistry.sol",
  "compiler": {
    "name": "solc",
    "version": "0.4.24+commit.e67f0147.Emscripten.clang"
  },
  "schemaVersion": "2.0.1",
  "updatedAt": "2018-10-14T22:54:34.306Z"
}