{
  "contractName": "GeneratorRegistry",
  "abi": [
    {
      "constant": true,
      "inputs": [
        {
          "name": "",
          "type": "uint256"
        }
      ],
      "name": "generators",
      "outputs": [
        {
          "name": "",
          "type": "address"
        }
      ],
      "payable": false,
      "stateMutability": "view",
      "type": "function"
    },
    {
      "constant": true,
      "inputs": [
        {
          "name": "",
          "type": "address"
        },
        {
          "name": "",
          "type": "address"
        }
      ],
      "name": "stakeByUserByGenerator",
      "outputs": [
        {
          "name": "",
          "type": "uint256"
        }
      ],
      "payable": false,
      "stateMutability": "view",
      "type": "function"
    },
    {
      "constant": true,
      "inputs": [
        {
          "name": "",
          "type": "address"
        }
      ],
      "name": "stakeByGenerator",
      "outputs": [
        {
          "name": "",
          "type": "uint256"
        }
      ],
      "payable": false,
      "stateMutability": "view",
      "type": "function"
    },
    {
      "constant": true,
      "inputs": [],
      "name": "token",
      "outputs": [
        {
          "name": "",
          "type": "address"
        }
      ],
      "payable": false,
      "stateMutability": "view",
      "type": "function"
    },
    {
      "inputs": [
        {
          "name": "_token",
          "type": "address"
        }
      ],
      "payable": false,
      "stateMutability": "nonpayable",
      "type": "constructor"
    },
    {
      "anonymous": false,
      "inputs": [
        {
          "indexed": true,
          "name": "context",
          "type": "bytes32"
        },
        {
          "indexed": false,
          "name": "registryEntry",
          "type": "address"
        },
        {
          "indexed": false,
          "name": "eventType",
          "type": "bytes32"
        }
      ],
      "name": "RegistryEntryEVT",
      "type": "event"
    },
    {
      "constant": true,
      "inputs": [],
      "name": "getActiveGenerator",
      "outputs": [
        {
          "name": "",
          "type": "address"
        }
      ],
      "payable": false,
      "stateMutability": "view",
      "type": "function"
    },
    {
      "constant": false,
      "inputs": [
        {
          "name": "_generator",
          "type": "address"
        }
      ],
      "name": "addGenerator",
      "outputs": [],
      "payable": false,
      "stateMutability": "nonpayable",
      "type": "function"
    },
    {
      "constant": false,
      "inputs": [
        {
          "name": "generatorAddress",
          "type": "address"
        },
        {
          "name": "stake",
          "type": "uint256"
        }
      ],
      "name": "depositStake",
      "outputs": [],
      "payable": false,
      "stateMutability": "nonpayable",
      "type": "function"
    },
    {
      "constant": false,
      "inputs": [
        {
          "name": "generatorAddress",
          "type": "address"
        },
        {
          "name": "stake",
          "type": "uint256"
        }
      ],
      "name": "withdrawStake",
      "outputs": [],
      "payable": false,
      "stateMutability": "nonpayable",
      "type": "function"
    },
    {
      "constant": true,
      "inputs": [],
      "name": "getToken",
      "outputs": [
        {
          "name": "",
          "type": "address"
        }
      ],
      "payable": false,
      "stateMutability": "view",
      "type": "function"
    },
    {
      "constant": true,
      "inputs": [],
      "name": "getGenerators",
      "outputs": [
        {
          "name": "",
          "type": "address[]"
        }
      ],
      "payable": false,
      "stateMutability": "view",
      "type": "function"
    },
    {
      "constant": true,
      "inputs": [
        {
          "name": "g",
          "type": "address"
        }
      ],
      "name": "getGeneratorStake",
      "outputs": [
        {
          "name": "",
          "type": "uint256"
        }
      ],
      "payable": false,
      "stateMutability": "view",
      "type": "function"
    },
    {
      "constant": true,
      "inputs": [
        {
          "name": "user",
          "type": "address"
        },
        {
          "name": "g",
          "type": "address"
        }
      ],
      "name": "getUserGeneratorStake",
      "outputs": [
        {
          "name": "",
          "type": "uint256"
        }
      ],
      "payable": false,
      "stateMutability": "view",
      "type": "function"
    }
  ],
  "bytecode": "0x608060405234801561001057600080fd5b5060405160208061080c833981016040525160008054600160a060020a03909216600160a060020a03199092169190911790556107ba806100526000396000f3006080604052600436106100b95763ffffffff7c010000000000000000000000000000000000000000000000000000000060003504166306bab08581146100be5780631fad9b63146100f757806321df0da71461012b578063471b2e2a146101405780635410f36514610155578063695478f11461017b5780637418740a146101e0578063b468963714610207578063c606627214610228578063cd717caa1461024c578063cffafe261461026d578063fc0c546a1461028e575b600080fd5b3480156100ca57600080fd5b506100e5600160a060020a03600435811690602435166102a3565b60408051918252519081900360200190f35b34801561010357600080fd5b5061010f6004356102ce565b60408051600160a060020a039092168252519081900360200190f35b34801561013757600080fd5b5061010f6102f6565b34801561014c57600080fd5b5061010f610305565b34801561016157600080fd5b50610179600160a060020a0360043516602435610387565b005b34801561018757600080fd5b50610190610510565b60408051602080825283518183015283519192839290830191858101910280838360005b838110156101cc5781810151838201526020016101b4565b505050509050019250505060405180910390f35b3480156101ec57600080fd5b506100e5600160a060020a0360043581169060243516610572565b34801561021357600080fd5b506100e5600160a060020a036004351661058f565b34801561023457600080fd5b50610179600160a060020a03600435166024356105aa565b34801561025857600080fd5b506100e5600160a060020a036004351661070f565b34801561027957600080fd5b50610179600160a060020a0360043516610721565b34801561029a57600080fd5b5061010f61077f565b600160a060020a03918216600090815260036020908152604080832093909416825291909152205490565b60018054829081106102dc57fe5b600091825260209091200154600160a060020a0316905081565b600054600160a060020a031690565b6000808080805b60015482101561037e57600180548390811061032457fe5b6000918252602080832090910154600160a060020a0316808352600290915260409091205490915083101561037357600160a060020a0381166000908152600260205260409020549093509150825b60019091019061030c565b50919392505050565b600160a060020a0380831660008181526002602090815260408083208054870190553380845260038352818420948452938252808320805487019055825481517f23b872dd00000000000000000000000000000000000000000000000000000000815260048101959095523060248601526044850187905290519416936323b872dd93606480820194918390030190829087803b15801561042757600080fd5b505af115801561043b573d6000803e3d6000fd5b505050506040513d602081101561045157600080fd5b5051151561050c57604080517f08c379a000000000000000000000000000000000000000000000000000000000815260206004820152605060248201527f756e61626c6520746f207472616e7366657220746f6b656e732c20636865636b60448201527f20746861742047656e657261746f72526567697374727920697320617070726f60648201527f7665642061732061207370656e64657200000000000000000000000000000000608482015290519081900360a40190fd5b5050565b6060600180548060200260200160405190810160405280929190818152602001828054801561056857602002820191906000526020600020905b8154600160a060020a0316815260019091019060200180831161054a575b5050505050905090565b600360209081526000928352604080842090915290825290205481565b600160a060020a031660009081526002602052604090205490565b336000908152600360209081526040808320600160a060020a03861684529091529020548111156105da57600080fd5b600160a060020a03808316600081815260026020908152604080832080548790039055338084526003835281842094845293825280832080548790039055825481517fa9059cbb000000000000000000000000000000000000000000000000000000008152600481019590955260248501879052905194169363a9059cbb93604480820194918390030190829087803b15801561067657600080fd5b505af115801561068a573d6000803e3d6000fd5b505050506040513d60208110156106a057600080fd5b5051151561050c57604080517f08c379a000000000000000000000000000000000000000000000000000000000815260206004820152601960248201527f756e61626c6520746f207472616e7366657220746f6b656e7300000000000000604482015290519081900360640190fd5b60026020526000908152604090205481565b6001805480820182556000919091527fb10e2d527612073b26eecdfd717e6a320cf44b4afac2b0732d9fcbe2b7fa0cf601805473ffffffffffffffffffffffffffffffffffffffff1916600160a060020a0392909216919091179055565b600054600160a060020a0316815600a165627a7a72305820623ce38592f58417cde13d691a229f7c2acf6eb96db7593f61c8ab8cdbe3e4010029",
  "source": "pragma solidity ^0.4.24;\n\nimport \"openzeppelin-solidity/contracts/token/ERC20/StandardToken.sol\";\n\nimport \"./GeneratorFactory.sol\";\nimport \"./Generator.sol\";\n\ncontract GeneratorRegistry {\n    // event RegistryEntryEV(address indexed registryEntry, bytes32 indexed eventType);\n    event RegistryEntryEVT(bytes32 indexed context, address registryEntry, bytes32 eventType);\n\n    StandardToken public token;\n    Generator[] public generators;\n    mapping(address => uint) public stakeByGenerator;\n    mapping(address => mapping(address => uint)) public stakeByUserByGenerator;\n\n    constructor(StandardToken _token) public {\n        token = _token;\n    }\n\n    function getActiveGenerator() public view returns (Generator) {\n        Generator maxStakeGenerator;\n        uint maxStake;\n\n        for(uint i = 0; i < generators.length; i++) {\n            Generator g = generators[i];\n            if (stakeByGenerator[address(g)] > maxStake) {\n                maxStakeGenerator = g;\n                maxStake = stakeByGenerator[address(g)];\n            }\n        }\n\n        return maxStakeGenerator;\n    }\n\n    function addGenerator(Generator _generator) public {\n        generators.push(_generator);\n    }\n\n    function depositStake(address generatorAddress, uint stake) public {\n        stakeByGenerator[generatorAddress] += stake;\n        stakeByUserByGenerator[msg.sender][generatorAddress] += stake;\n        require(token.transferFrom(msg.sender, this, stake), \"unable to transfer tokens, check that GeneratorRegistry is approved as a spender\");\n    }\n\n    function withdrawStake(address generatorAddress, uint stake) public {\n        require(stakeByUserByGenerator[msg.sender][generatorAddress] >= stake);\n        stakeByGenerator[generatorAddress] -= stake;\n        stakeByUserByGenerator[msg.sender][generatorAddress] -= stake;\n\n        require(token.transfer(msg.sender, stake), \"unable to transfer tokens\");\n    }\n\n    function getToken() public view returns (address) {\n        return token;\n    }\n\n    function getGenerators() public view returns (Generator[]) {\n        return generators;\n    }\n\n    function getGeneratorStake(Generator g) public view returns (uint) {\n        return stakeByGenerator[address(g)];\n    }\n\n    function getUserGeneratorStake(address user, Generator g) public view returns (uint) {\n        return stakeByUserByGenerator[user][address(g)];\n    }\n}",
  "sourcePath": "/Users/nickreynolds/Artonomous/artonomous/packages/contracts/contracts/GeneratorRegistry.sol",
  "compiler": {
    "name": "solc",
    "version": "0.4.24+commit.e67f0147.Emscripten.clang"
  },
  "schemaVersion": "2.0.1",
  "updatedAt": "2018-11-10T07:39:31.614Z"
}