{
  "contractName": "SoulToken",
  "abi": [
    {
      "constant": true,
      "inputs": [],
      "name": "name",
      "outputs": [
        {
          "name": "",
          "type": "string"
        }
      ],
      "payable": false,
      "stateMutability": "view",
      "type": "function"
    },
    {
      "constant": false,
      "inputs": [
        {
          "name": "_spender",
          "type": "address"
        },
        {
          "name": "_value",
          "type": "uint256"
        }
      ],
      "name": "approve",
      "outputs": [
        {
          "name": "",
          "type": "bool"
        }
      ],
      "payable": false,
      "stateMutability": "nonpayable",
      "type": "function"
    },
    {
      "constant": true,
      "inputs": [],
      "name": "reserveRatio",
      "outputs": [
        {
          "name": "",
          "type": "uint32"
        }
      ],
      "payable": false,
      "stateMutability": "view",
      "type": "function"
    },
    {
      "constant": true,
      "inputs": [],
      "name": "totalSupply",
      "outputs": [
        {
          "name": "",
          "type": "uint256"
        }
      ],
      "payable": false,
      "stateMutability": "view",
      "type": "function"
    },
    {
      "constant": false,
      "inputs": [
        {
          "name": "_from",
          "type": "address"
        },
        {
          "name": "_to",
          "type": "address"
        },
        {
          "name": "_value",
          "type": "uint256"
        }
      ],
      "name": "transferFrom",
      "outputs": [
        {
          "name": "",
          "type": "bool"
        }
      ],
      "payable": false,
      "stateMutability": "nonpayable",
      "type": "function"
    },
    {
      "constant": true,
      "inputs": [],
      "name": "INITAL_BALANCE",
      "outputs": [
        {
          "name": "",
          "type": "uint256"
        }
      ],
      "payable": false,
      "stateMutability": "view",
      "type": "function"
    },
    {
      "constant": true,
      "inputs": [
        {
          "name": "_supply",
          "type": "uint256"
        },
        {
          "name": "_connectorBalance",
          "type": "uint256"
        },
        {
          "name": "_connectorWeight",
          "type": "uint32"
        },
        {
          "name": "_depositAmount",
          "type": "uint256"
        }
      ],
      "name": "calculatePurchaseReturn",
      "outputs": [
        {
          "name": "",
          "type": "uint256"
        }
      ],
      "payable": false,
      "stateMutability": "view",
      "type": "function"
    },
    {
      "constant": true,
      "inputs": [],
      "name": "INITIAL_SUPPLY",
      "outputs": [
        {
          "name": "",
          "type": "uint256"
        }
      ],
      "payable": false,
      "stateMutability": "view",
      "type": "function"
    },
    {
      "constant": true,
      "inputs": [],
      "name": "decimals",
      "outputs": [
        {
          "name": "",
          "type": "uint8"
        }
      ],
      "payable": false,
      "stateMutability": "view",
      "type": "function"
    },
    {
      "constant": true,
      "inputs": [
        {
          "name": "_supply",
          "type": "uint256"
        },
        {
          "name": "_connectorBalance",
          "type": "uint256"
        },
        {
          "name": "_connectorWeight",
          "type": "uint32"
        },
        {
          "name": "_sellAmount",
          "type": "uint256"
        }
      ],
      "name": "calculateSaleReturn",
      "outputs": [
        {
          "name": "",
          "type": "uint256"
        }
      ],
      "payable": false,
      "stateMutability": "view",
      "type": "function"
    },
    {
      "constant": true,
      "inputs": [],
      "name": "version",
      "outputs": [
        {
          "name": "",
          "type": "string"
        }
      ],
      "payable": false,
      "stateMutability": "view",
      "type": "function"
    },
    {
      "constant": false,
      "inputs": [
        {
          "name": "_spender",
          "type": "address"
        },
        {
          "name": "_subtractedValue",
          "type": "uint256"
        }
      ],
      "name": "decreaseApproval",
      "outputs": [
        {
          "name": "",
          "type": "bool"
        }
      ],
      "payable": false,
      "stateMutability": "nonpayable",
      "type": "function"
    },
    {
      "constant": true,
      "inputs": [
        {
          "name": "_owner",
          "type": "address"
        }
      ],
      "name": "balanceOf",
      "outputs": [
        {
          "name": "",
          "type": "uint256"
        }
      ],
      "payable": false,
      "stateMutability": "view",
      "type": "function"
    },
    {
      "constant": false,
      "inputs": [],
      "name": "renounceOwnership",
      "outputs": [],
      "payable": false,
      "stateMutability": "nonpayable",
      "type": "function"
    },
    {
      "constant": true,
      "inputs": [],
      "name": "INITIAL_PRICE",
      "outputs": [
        {
          "name": "",
          "type": "uint256"
        }
      ],
      "payable": false,
      "stateMutability": "view",
      "type": "function"
    },
    {
      "constant": true,
      "inputs": [],
      "name": "owner",
      "outputs": [
        {
          "name": "",
          "type": "address"
        }
      ],
      "payable": false,
      "stateMutability": "view",
      "type": "function"
    },
    {
      "constant": true,
      "inputs": [],
      "name": "symbol",
      "outputs": [
        {
          "name": "",
          "type": "string"
        }
      ],
      "payable": false,
      "stateMutability": "view",
      "type": "function"
    },
    {
      "constant": true,
      "inputs": [],
      "name": "poolBalance",
      "outputs": [
        {
          "name": "",
          "type": "uint256"
        }
      ],
      "payable": false,
      "stateMutability": "view",
      "type": "function"
    },
    {
      "constant": false,
      "inputs": [],
      "name": "buy",
      "outputs": [
        {
          "name": "",
          "type": "bool"
        }
      ],
      "payable": true,
      "stateMutability": "payable",
      "type": "function"
    },
    {
      "constant": false,
      "inputs": [
        {
          "name": "_to",
          "type": "address"
        },
        {
          "name": "_value",
          "type": "uint256"
        }
      ],
      "name": "transfer",
      "outputs": [
        {
          "name": "",
          "type": "bool"
        }
      ],
      "payable": false,
      "stateMutability": "nonpayable",
      "type": "function"
    },
    {
      "constant": true,
      "inputs": [],
      "name": "CURVE_RATIO",
      "outputs": [
        {
          "name": "",
          "type": "uint32"
        }
      ],
      "payable": false,
      "stateMutability": "view",
      "type": "function"
    },
    {
      "constant": false,
      "inputs": [
        {
          "name": "_gasPrice",
          "type": "uint256"
        }
      ],
      "name": "setGasPrice",
      "outputs": [],
      "payable": false,
      "stateMutability": "nonpayable",
      "type": "function"
    },
    {
      "constant": false,
      "inputs": [
        {
          "name": "_spender",
          "type": "address"
        },
        {
          "name": "_addedValue",
          "type": "uint256"
        }
      ],
      "name": "increaseApproval",
      "outputs": [
        {
          "name": "",
          "type": "bool"
        }
      ],
      "payable": false,
      "stateMutability": "nonpayable",
      "type": "function"
    },
    {
      "constant": true,
      "inputs": [
        {
          "name": "_owner",
          "type": "address"
        },
        {
          "name": "_spender",
          "type": "address"
        }
      ],
      "name": "allowance",
      "outputs": [
        {
          "name": "",
          "type": "uint256"
        }
      ],
      "payable": false,
      "stateMutability": "view",
      "type": "function"
    },
    {
      "constant": false,
      "inputs": [
        {
          "name": "sellAmount",
          "type": "uint256"
        }
      ],
      "name": "sell",
      "outputs": [
        {
          "name": "",
          "type": "bool"
        }
      ],
      "payable": false,
      "stateMutability": "nonpayable",
      "type": "function"
    },
    {
      "constant": false,
      "inputs": [
        {
          "name": "_newOwner",
          "type": "address"
        }
      ],
      "name": "transferOwnership",
      "outputs": [],
      "payable": false,
      "stateMutability": "nonpayable",
      "type": "function"
    },
    {
      "constant": true,
      "inputs": [],
      "name": "gasPrice",
      "outputs": [
        {
          "name": "",
          "type": "uint256"
        }
      ],
      "payable": false,
      "stateMutability": "view",
      "type": "function"
    },
    {
      "inputs": [],
      "payable": false,
      "stateMutability": "nonpayable",
      "type": "constructor"
    },
    {
      "payable": true,
      "stateMutability": "payable",
      "type": "fallback"
    },
    {
      "anonymous": false,
      "inputs": [
        {
          "indexed": false,
          "name": "sender",
          "type": "address"
        },
        {
          "indexed": false,
          "name": "amountMinted",
          "type": "uint256"
        },
        {
          "indexed": false,
          "name": "totalCost",
          "type": "uint256"
        }
      ],
      "name": "LogMint",
      "type": "event"
    },
    {
      "anonymous": false,
      "inputs": [
        {
          "indexed": false,
          "name": "sender",
          "type": "address"
        },
        {
          "indexed": false,
          "name": "amountWithdrawn",
          "type": "uint256"
        },
        {
          "indexed": false,
          "name": "reward",
          "type": "uint256"
        }
      ],
      "name": "LogWithdraw",
      "type": "event"
    },
    {
      "anonymous": false,
      "inputs": [
        {
          "indexed": false,
          "name": "sender",
          "type": "address"
        },
        {
          "indexed": false,
          "name": "logString",
          "type": "string"
        },
        {
          "indexed": false,
          "name": "value",
          "type": "uint256"
        }
      ],
      "name": "LogBondingCurve",
      "type": "event"
    },
    {
      "anonymous": false,
      "inputs": [
        {
          "indexed": true,
          "name": "previousOwner",
          "type": "address"
        }
      ],
      "name": "OwnershipRenounced",
      "type": "event"
    },
    {
      "anonymous": false,
      "inputs": [
        {
          "indexed": true,
          "name": "previousOwner",
          "type": "address"
        },
        {
          "indexed": true,
          "name": "newOwner",
          "type": "address"
        }
      ],
      "name": "OwnershipTransferred",
      "type": "event"
    },
    {
      "anonymous": false,
      "inputs": [
        {
          "indexed": true,
          "name": "owner",
          "type": "address"
        },
        {
          "indexed": true,
          "name": "spender",
          "type": "address"
        },
        {
          "indexed": false,
          "name": "value",
          "type": "uint256"
        }
      ],
      "name": "Approval",
      "type": "event"
    },
    {
      "anonymous": false,
      "inputs": [
        {
          "indexed": true,
          "name": "from",
          "type": "address"
        },
        {
          "indexed": true,
          "name": "to",
          "type": "address"
        },
        {
          "indexed": false,
          "name": "value",
          "type": "uint256"
        }
      ],
      "name": "Transfer",
      "type": "event"
    },
    {
      "constant": false,
      "inputs": [],
      "name": "depositArtPayment",
      "outputs": [],
      "payable": true,
      "stateMutability": "payable",
      "type": "function"
    }
  ],
  "bytecode": "0x60c0604052600360808190527f302e33000000000000000000000000000000000000000000000000000000000060a09081526200003e9190816200088b565b506040805180820190915260038082527f302e330000000000000000000000000000000000000000000000000000000000602090920191825262000085916084916200088b565b5060006088553480156200009857600080fd5b506001606060020a641c35fedd1502036024556001605e60020a646c3390ecc902036025556001606160020a640cf801476102036026556001605f60020a6431bdb23e1d02036027556001605b60020a6502fb1d8fe08302036028556001605a60020a6505b771955b3702036029556001605960020a650af67a93bb510203602a556001605860020a6515060c256cb30203602b556001605860020a651428a2f98d730203602c556001605660020a654d51566397090203602d556001605560020a65944620b0e70f0203602e557011c592761c666fffffffffffffffffffff602f5570110a688680a757ffffffffffffffffffff603055701056f1b5bedf77ffffffffffffffffffff603155700faadceceeff8bffffffffffffffffffff603255700f05dc6b27edadffffffffffffffffffff603355700e67a5a25da4107fffffffffffffffffff603455700dcff115b14eedffffffffffffffffffff603555700d3e7a392431239fffffffffffffffffff603655700cb2ff529eb71e4fffffffffffffffffff603755700c2d415c3db974afffffffffffffffffff603855700bad03e7d883f69bffffffffffffffffff603955700b320d03b2c343d5ffffffffffffffffff603a55700abc25204e02828dffffffffffffffffff603b55700a4b16f74ee4bb207fffffffffffffffff603c557009deaf736ac1f569ffffffffffffffffff603d55700976bd9952c7aa957fffffffffffffffff603e557009131271922eaa606fffffffffffffffff603f557008b380f3558668c46fffffffffffffffff604055700857ddf0117efa215bffffffffffffffff6041556001608360020a036042557007abbf6f6abb9d087fffffffffffffffff60435570075af62cbac95f7dfa7fffffffffffffff60445570070d7fb7452e187ac13fffffffffffffff6045557006c3390ecc8af379295fffffffffffffff60465570067c00a3b07ffc01fd6fffffffffffffff604755700637b647c39cbb9d3d27ffffffffffffff6048557005f63b1fc104dbd39587ffffffffffffff6049557005b771955b36e12f7235ffffffffffffff604a5570057b3d49dda84556d6f6ffffffffffffff604b5570054183095b2c8ececf30ffffffffffffff604c5570050a28be635ca2b888f77fffffffffffff604d557004d5156639708c9db33c3fffffffffffff604e557004a23105873875bd52dfdfffffffffffff604f55700471649d87199aa990756fffffffffffff6050557004429a21a029d4c1457cfbffffffffffff605155700415bc6d6fb7dd71af2cb3ffffffffffff6052557003eab73b3bbfe282243ce1ffffffffffff6053557003c1771ac9fb6b4c18e229ffffffffffff605455700399e96897690418f785257fffffffffff605555700373fc456c53bb779bf0ea9fffffffffff60565570034f9e8e490c48e67e6ab8bfffffffffff60575570032cbfd4a7adc790560b3337ffffffffff60585570030b50570f6e5d2acca94613ffffffffff6059557002eb40f9f620fda6b56c2861ffffffffff605a557002cc8340ecb0d0f520a6af58ffffffffff605b557002af09481380a0a35cf1ba02ffffffffff605c55700292c5bdd3b92ec810287b1b3fffffffff605d55700277abdcdab07d5a77ac6d6b9fffffffff605e5570025daf6654b1eaa55fd64df5efffffffff605f55700244c49c648baa98192dce88b7ffffffff60605570022ce03cd5619a311b2471268bffffffff606155700215f77c045fbe885654a44a0fffffffff6062556001608160020a036063557001eaefdbdaaee7421fc4d3ede5ffffffff6064557001d6bd8b2eb257df7e8ca57b09bfffffff6065557001c35fedd14b861eb0443f7f133fffffff6066557001b0ce43b322bcde4a56e8ada5afffffff60675570019f0028ec1fff007f5a195a39dfffffff60685570018ded91f0e72ee74f49b15ba527ffffff60695570017d8ec7f04136f4e5615fd41a63ffffff606a5570016ddc6556cdb84bdc8d12d22e6fffffff606b5570015ecf52776a1155b5bd8395814f7fffff606c5570015060c256cb23b3b3cc3754cf40ffffff606d557001428a2f98d728ae223ddab715be3fffff606e5570013545598e5c23276ccf0ede68034fffff606f557001288c4161ce1d6f54b7f61081194fffff60705570011c592761c666aa641d5a01a40f17ffff607155700110a688680a7530515f3e6e6cfdcdffff6072557001056f1b5bedf75c6bcb2ce8aed428ffff6073556ffaadceceeff8a0890f3875f008277fff6074556ff05dc6b27edad306388a600f6ba0bfff6075556fe67a5a25da41063de1495d5b18cdbfff6076556fdcff115b14eedde6fc3aa5353f2e4fff6077556fd3e7a3924312399f9aae2e0f868f8fff6078556fcb2ff529eb71e41582cccd5a1ee26fff6079556fc2d415c3db974ab32a51840c0b67edff607a556fbad03e7d883f69ad5b0a186184e06bff607b556fb320d03b2c343d4829abd6075f0cc5ff607c556fabc25204e02828d73c6e80bcdb1a95bf607d556fa4b16f74ee4bb2040a1ec6c15fbbf2df607e556f9deaf736ac1f569deb1b5ae3f36c130f607f556f976bd9952c7aa957f5937d790ef650376080556f9131271922eaa6064b73a22d0bd4f2bf6081556f8b380f3558668c46c91c49a2f8e967b96082556f857ddf0117efa215952912839f6473e660835560858054600160a060020a031916331790556087805463ffffffff1916620557301790556a01a784379d99db42000000600155693b4ad496106b7f00000060865564060db8840060885562000930565b828054600181600116156101000203166002900490600052602060002090601f016020900481019282601f10620008ce57805160ff1916838001178555620008fe565b82800160010185558215620008fe579182015b82811115620008fe578251825591602001919060010190620008e1565b506200090c92915062000910565b5090565b6200092d91905b808211156200090c576000815560010162000917565b90565b61179a80620009406000396000f3006080604052600436106101695763ffffffff7c010000000000000000000000000000000000000000000000000000000060003504166306fdde038114610174578063095ea7b3146101fe5780630c7d5cd81461023657806318160ddd1461026457806323b872dd1461028b578063269e3592146102b557806329a00e7c146102ca5780632ff2e9dc146102f1578063313ce5671461030657806349f9b0f71461033157806354fd4d5014610358578063661884631461036d57806370a0823114610391578063715018a6146103b25780637c5e2795146103c95780638da5cb5b146103de57806395d89b411461040f57806396365d4414610424578063a6f2ae3a14610439578063a9059cbb14610441578063b1741fb214610465578063bf1fe4201461047a578063d73dd62314610492578063dd62ed3e146104b6578063e4849b32146104dd578063f2fde38b146104f5578063fa1932e314610516578063fe173b971461051e575b610171610533565b50005b34801561018057600080fd5b50610189610612565b6040805160208082528351818301528351919283929083019185019080838360005b838110156101c35781810151838201526020016101ab565b50505050905090810190601f1680156101f05780820380516001836020036101000a031916815260200191505b509250505060405180910390f35b34801561020a57600080fd5b50610222600160a060020a0360043516602435610649565b604080519115158252519081900360200190f35b34801561024257600080fd5b5061024b6106b0565b6040805163ffffffff9092168252519081900360200190f35b34801561027057600080fd5b506102796106bc565b60408051918252519081900360200190f35b34801561029757600080fd5b50610222600160a060020a03600435811690602435166044356106c2565b3480156102c157600080fd5b50610279610837565b3480156102d657600080fd5b5061027960043560243563ffffffff60443516606435610845565b3480156102fd57600080fd5b5061027961092a565b34801561031257600080fd5b5061031b610939565b6040805160ff9092168252519081900360200190f35b34801561033d57600080fd5b5061027960043560243563ffffffff6044351660643561093e565b34801561036457600080fd5b50610189610a3a565b34801561037957600080fd5b50610222600160a060020a0360043516602435610ac8565b34801561039d57600080fd5b50610279600160a060020a0360043516610bb7565b3480156103be57600080fd5b506103c7610bd2565b005b3480156103d557600080fd5b50610279610c40565b3480156103ea57600080fd5b506103f3610c4c565b60408051600160a060020a039092168252519081900360200190f35b34801561041b57600080fd5b50610189610c5b565b34801561043057600080fd5b50610279610c92565b610222610533565b34801561044d57600080fd5b50610222600160a060020a0360043516602435610c98565b34801561047157600080fd5b5061024b610d77565b34801561048657600080fd5b506103c7600435610d7e565b34801561049e57600080fd5b50610222600160a060020a0360043516602435610da7565b3480156104c257600080fd5b50610279600160a060020a0360043581169060243516610e40565b3480156104e957600080fd5b50610222600435610e6b565b34801561050157600080fd5b506103c7600160a060020a0360043516610f97565b6103c7610fba565b34801561052a57600080fd5b50610279610fc4565b6000806088543a1115151561054457fe5b6000341161055157600080fd5b60015460865460875461056c92919063ffffffff1634610845565b600154909150610582908263ffffffff610fca16565b600155336000908152602081905260409020546105a5908263ffffffff610fca16565b336000908152602081905260409020556086546105c8903463ffffffff610fca16565b6086556040805133815260208101839052348183015290517fa82a7ea15c804d00dba1b969024b510969fde70fac8e0d5da860cf1f7376d3179181900360600190a1600191505090565b60408051808201909152600981527f536f756c546f6b656e0000000000000000000000000000000000000000000000602082015281565b336000818152600260209081526040808320600160a060020a038716808552908352818420869055815186815291519394909390927f8c5be1e5ebec7d5bd14f71427d1e84f3dd0314c0f7b2291e5b200ac8c7c3b925928290030190a35060015b92915050565b60875463ffffffff1681565b60015490565b600160a060020a0383166000908152602081905260408120548211156106e757600080fd5b600160a060020a038416600090815260026020908152604080832033845290915290205482111561071757600080fd5b600160a060020a038316151561072c57600080fd5b600160a060020a038416600090815260208190526040902054610755908363ffffffff610fd716565b600160a060020a03808616600090815260208190526040808220939093559085168152205461078a908363ffffffff610fca16565b600160a060020a038085166000908152602081815260408083209490945591871681526002825282812033825290915220546107cc908363ffffffff610fd716565b600160a060020a03808616600081815260026020908152604080832033845282529182902094909455805186815290519287169391927fddf252ad1be2c89b69c2b068fc378daa952ba7f163c4a11628f55a4df523b3ef929181900390910190a35060019392505050565b693b4ad496106b7f00000081565b6000806000806000808911801561085c5750600088115b801561086e575060008763ffffffff16115b80156108835750620f424063ffffffff881611155b151561088e57600080fd5b85151561089e576000945061091e565b63ffffffff8716620f424014156108d6576108cf886108c38b8963ffffffff610fe916565b9063ffffffff61101216565b945061091e565b6108e6868963ffffffff610fca16565b91506108f7828989620f4240611027565b909450925060ff83166109108a8663ffffffff610fe916565b9060020a9004905088810394505b50505050949350505050565b6a01a784379d99db4200000081565b601281565b60008060008060008060008a1180156109575750600089115b8015610969575060008863ffffffff16115b801561097e5750620f424063ffffffff891611155b801561098a5750898711155b151561099557600080fd5b8615156109a55760009550610a2d565b898714156109b557889550610a2d565b63ffffffff8816620f424014156109e1576109da8a6108c38b8a63ffffffff610fe916565b9550610a2d565b868a0392506109f58a84620f42408b611027565b9095509350610a0a898663ffffffff610fe916565b91505060ff831660020a8802610a2a856108c3848463ffffffff610fd716565b95505b5050505050949350505050565b6084805460408051602060026001851615610100026000190190941693909304601f81018490048402820184019092528181529291830182828015610ac05780601f10610a9557610100808354040283529160200191610ac0565b820191906000526020600020905b815481529060010190602001808311610aa357829003601f168201915b505050505081565b336000908152600260209081526040808320600160a060020a0386168452909152812054808310610b1c57336000908152600260209081526040808320600160a060020a0388168452909152812055610b51565b610b2c818463ffffffff610fd716565b336000908152600260209081526040808320600160a060020a03891684529091529020555b336000818152600260209081526040808320600160a060020a0389168085529083529281902054815190815290519293927f8c5be1e5ebec7d5bd14f71427d1e84f3dd0314c0f7b2291e5b200ac8c7c3b925929181900390910190a35060019392505050565b600160a060020a031660009081526020819052604090205490565b608554600160a060020a03163314610be957600080fd5b608554604051600160a060020a03909116907ff8df31144d9c2f0f6b59d69b8b98abd5459d07f2742c4df920b25aae33c6482090600090a26085805473ffffffffffffffffffffffffffffffffffffffff19169055565b67058d15e17628000081565b608554600160a060020a031681565b60408051808201909152600381527f534f4c0000000000000000000000000000000000000000000000000000000000602082015281565b60865481565b33600090815260208190526040812054821115610cb457600080fd5b600160a060020a0383161515610cc957600080fd5b33600090815260208190526040902054610ce9908363ffffffff610fd716565b3360009081526020819052604080822092909255600160a060020a03851681522054610d1b908363ffffffff610fca16565b600160a060020a038416600081815260208181526040918290209390935580518581529051919233927fddf252ad1be2c89b69c2b068fc378daa952ba7f163c4a11628f55a4df523b3ef9281900390910190a350600192915050565b6205573081565b608554600160a060020a03163314610d9557600080fd5b60008111610da257600080fd5b608855565b336000908152600260209081526040808320600160a060020a0386168452909152812054610ddb908363ffffffff610fca16565b336000818152600260209081526040808320600160a060020a0389168085529083529281902085905580519485525191937f8c5be1e5ebec7d5bd14f71427d1e84f3dd0314c0f7b2291e5b200ac8c7c3b925929081900390910190a350600192915050565b600160a060020a03918216600090815260026020908152604080832093909416825291909152205490565b6000806088543a11151515610e7c57fe5b600083118015610e9b5750336000908152602081905260409020548311155b1515610ea657600080fd5b600154608654608754610ec192919063ffffffff168661093e565b604051909150339082156108fc029083906000818181858888f19350505050158015610ef1573d6000803e3d6000fd5b50608654610f05908263ffffffff610fd716565b60865533600090815260208190526040902054610f28908463ffffffff610fd716565b33600090815260208190526040902055600154610f4b908463ffffffff610fd716565b600155604080513381526020810185905280820183905290517fda9a10d7b992511ddadbfc7ff712c1424ce2058bbcdac8c9876d6f8de590d43f9181900360600190a150600192915050565b608554600160a060020a03163314610fae57600080fd5b610fb781611080565b50565b6086805434019055565b60885481565b818101828110156106aa57fe5b600082821115610fe357fe5b50900390565b6000821515610ffa575060006106aa565b5081810281838281151561100a57fe5b04146106aa57fe5b6000818381151561101f57fe5b049392505050565b6000806000808463ffffffff168663ffffffff166110458a8a6110fe565b0281151561104f57fe5b04915061105b82611241565b905061107360ff607f8390031660020a8304826112d8565b9890975095505050505050565b600160a060020a038116151561109557600080fd5b608554604051600160a060020a038084169216907f8be0079c531659141344cd1fd0a4f28419497f9722a3daafe3b4186f6b6457e090600090a36085805473ffffffffffffffffffffffffffffffffffffffff1916600160a060020a0392909216919091179055565b6000808080807001ffffffffffffffffffffffffffffffff87111561111f57fe5b60009350856f80000000000000000000000000000000880281151561114057fe5b0492507001000000000000000000000000000000008310611199576111766f8000000000000000000000000000000084046116fb565b60ff81166f800000000000000000000000000000008102955060020a9093049291505b6f800000000000000000000000000000008311156112105750607f5b60008160ff161115611210576f8000000000000000000000000000000083800204925070010000000000000000000000000000000083106112075760ff600019820116600290810a9490940193909204915b600019016111b5565b6f040000000000000000000000000000006f02c5c85fdf473de6af278ece600fcbda85020494505050505092915050565b60006020607f825b8160ff168360010160ff16101561128e57600260ff8484011604905084600460ff83166080811061127657fe5b01541061128557809250611289565b8091505b611249565b84600460ff84166080811061129f57fe5b0154106112ae578193506112d0565b84600460ff8516608081106112bf57fe5b0154106112ce578293506112d0565bfe5b505050919050565b6000806000849150600090508360ff168583029060020a90049150816f03442c4e6074a82f1797f72ac000000002810190508360ff168583029060020a90049150816f0116b96f757c380fb287fd0e4000000002810190508360ff168583029060020a90049150816e45ae5bdd5f0e03eca1ff439000000002810190508360ff168583029060020a90049150816e0defabf91302cd95b9ffda5000000002810190508360ff168583029060020a90049150816e02529ca9832b22439efff9b800000002810190508360ff168583029060020a90049150816d54f1cf12bd04e516b6da8800000002810190508360ff168583029060020a90049150816d0a9e39e257a09ca2d6db5100000002810190508360ff168583029060020a90049150816d012e066e7b839fa050c30900000002810190508360ff168583029060020a90049150816c1e33d7d926c329a1ad1a80000002810190508360ff168583029060020a90049150816c02bee513bdb4a6b19b5f80000002810190508360ff168583029060020a90049150816b3a9316fa79b88eccf2a0000002810190508360ff168583029060020a90049150816b048177ebe1fa81237520000002810190508360ff168583029060020a90049150816a5263fe90242dcbacf0000002810190508360ff168583029060020a90049150816a057e22099c030d9410000002810190508360ff168583029060020a90049150816957e22099c030d941000002810190508360ff168583029060020a900491508169052b6b5456997631000002810190508360ff168583029060020a9004915081684985f67696bf74800002810190508360ff168583029060020a90049150816803dea12ea99e49800002810190508360ff168583029060020a90049150816731880f2214b6e00002810190508360ff168583029060020a900491508167025bcff56eb3600002810190508360ff168583029060020a9004915081661b722e10ab100002810190508360ff168583029060020a90049150816601317c7007700002810190508360ff168583029060020a9004915081650cba84aafa0002810190508360ff168583029060020a90049150816482573a0a0002810190508360ff168583029060020a90049150816405035ad90002810190508360ff168583029060020a9004915081632f881b0002810190508360ff168583029060020a90049150816301b2934002810190508360ff168583029060020a9004915081620efc4002810190508360ff168583029060020a9004915081617fe002810190508360ff168583029060020a900491508161042002810190508360ff168583029060020a9004915081602102810190508360ff168583029060020a9004915081600102810190508360ff1660019060020a02856f0688589cc0e9505e2f2fee5580000000838115156116ef57fe5b04010195945050505050565b600080828161010082101561172b575b6001821115611726576001929092019160029091049061170b565b611765565b5060805b60008160ff1611156117655760ff811660020a8210611758579182179160ff811660020a909104905b600260ff9091160461172f565b509093925050505600a165627a7a723058205120ea5d5c8b0e3c740bca7c403eb2e9ba05ed31df106e6163c5e3dbc59960450029",
  "source": "pragma solidity ^0.4.24;\n\nimport \"./EthBondingCurve.sol\";\n\ncontract SoulToken is EthBondingCurve {\n  string public constant name = \"SoulToken\";\n  string public constant symbol = \"SOL\";\n  uint8 public constant decimals = 18;\n\n  uint256 public constant INITIAL_SUPPLY = 2000000 * (10 ** 18);\n  uint256 public constant INITIAL_PRICE = 40 * (10 ** 16);\n  uint32 public constant CURVE_RATIO = 350000;\n  uint256 public constant INITAL_BALANCE = CURVE_RATIO * INITIAL_SUPPLY * INITIAL_PRICE / (1000000 * 10 ** 18);\n\n  constructor() public {\n    reserveRatio = CURVE_RATIO;\n    totalSupply_ = INITIAL_SUPPLY;\n    poolBalance = INITAL_BALANCE;\n    gasPrice = 26 * (10 ** 9);\n  }\n\n  function depositArtPayment() payable {\n      poolBalance += msg.value;\n  }\n}",
  "sourcePath": "/Users/nickreynolds/Artonomous/artonomous/packages/contracts/contracts/tokens/SoulToken.sol",
  "compiler": {
    "name": "solc",
    "version": "0.4.24+commit.e67f0147.Emscripten.clang"
  },
  "schemaVersion": "2.0.1",
  "updatedAt": "2018-12-11T02:33:14.303Z"
}