{
  "contractName": "SoulToken",
  "abi": [
    {
      "constant": true,
      "inputs": [],
      "name": "name",
      "outputs": [
        {
          "name": "",
          "type": "string"
        }
      ],
      "payable": false,
      "stateMutability": "view",
      "type": "function"
    },
    {
      "constant": false,
      "inputs": [
        {
          "name": "_spender",
          "type": "address"
        },
        {
          "name": "_value",
          "type": "uint256"
        }
      ],
      "name": "approve",
      "outputs": [
        {
          "name": "",
          "type": "bool"
        }
      ],
      "payable": false,
      "stateMutability": "nonpayable",
      "type": "function"
    },
    {
      "constant": true,
      "inputs": [],
      "name": "reserveRatio",
      "outputs": [
        {
          "name": "",
          "type": "uint32"
        }
      ],
      "payable": false,
      "stateMutability": "view",
      "type": "function"
    },
    {
      "constant": true,
      "inputs": [],
      "name": "totalSupply",
      "outputs": [
        {
          "name": "",
          "type": "uint256"
        }
      ],
      "payable": false,
      "stateMutability": "view",
      "type": "function"
    },
    {
      "constant": false,
      "inputs": [
        {
          "name": "_from",
          "type": "address"
        },
        {
          "name": "_to",
          "type": "address"
        },
        {
          "name": "_value",
          "type": "uint256"
        }
      ],
      "name": "transferFrom",
      "outputs": [
        {
          "name": "",
          "type": "bool"
        }
      ],
      "payable": false,
      "stateMutability": "nonpayable",
      "type": "function"
    },
    {
      "constant": true,
      "inputs": [],
      "name": "INITAL_BALANCE",
      "outputs": [
        {
          "name": "",
          "type": "uint256"
        }
      ],
      "payable": false,
      "stateMutability": "view",
      "type": "function"
    },
    {
      "constant": true,
      "inputs": [
        {
          "name": "_supply",
          "type": "uint256"
        },
        {
          "name": "_connectorBalance",
          "type": "uint256"
        },
        {
          "name": "_connectorWeight",
          "type": "uint32"
        },
        {
          "name": "_depositAmount",
          "type": "uint256"
        }
      ],
      "name": "calculatePurchaseReturn",
      "outputs": [
        {
          "name": "",
          "type": "uint256"
        }
      ],
      "payable": false,
      "stateMutability": "view",
      "type": "function"
    },
    {
      "constant": true,
      "inputs": [],
      "name": "INITIAL_SUPPLY",
      "outputs": [
        {
          "name": "",
          "type": "uint256"
        }
      ],
      "payable": false,
      "stateMutability": "view",
      "type": "function"
    },
    {
      "constant": true,
      "inputs": [],
      "name": "decimals",
      "outputs": [
        {
          "name": "",
          "type": "uint8"
        }
      ],
      "payable": false,
      "stateMutability": "view",
      "type": "function"
    },
    {
      "constant": true,
      "inputs": [
        {
          "name": "_supply",
          "type": "uint256"
        },
        {
          "name": "_connectorBalance",
          "type": "uint256"
        },
        {
          "name": "_connectorWeight",
          "type": "uint32"
        },
        {
          "name": "_sellAmount",
          "type": "uint256"
        }
      ],
      "name": "calculateSaleReturn",
      "outputs": [
        {
          "name": "",
          "type": "uint256"
        }
      ],
      "payable": false,
      "stateMutability": "view",
      "type": "function"
    },
    {
      "constant": true,
      "inputs": [],
      "name": "version",
      "outputs": [
        {
          "name": "",
          "type": "string"
        }
      ],
      "payable": false,
      "stateMutability": "view",
      "type": "function"
    },
    {
      "constant": false,
      "inputs": [
        {
          "name": "_spender",
          "type": "address"
        },
        {
          "name": "_subtractedValue",
          "type": "uint256"
        }
      ],
      "name": "decreaseApproval",
      "outputs": [
        {
          "name": "",
          "type": "bool"
        }
      ],
      "payable": false,
      "stateMutability": "nonpayable",
      "type": "function"
    },
    {
      "constant": true,
      "inputs": [
        {
          "name": "_owner",
          "type": "address"
        }
      ],
      "name": "balanceOf",
      "outputs": [
        {
          "name": "",
          "type": "uint256"
        }
      ],
      "payable": false,
      "stateMutability": "view",
      "type": "function"
    },
    {
      "constant": false,
      "inputs": [],
      "name": "renounceOwnership",
      "outputs": [],
      "payable": false,
      "stateMutability": "nonpayable",
      "type": "function"
    },
    {
      "constant": true,
      "inputs": [],
      "name": "INITIAL_PRICE",
      "outputs": [
        {
          "name": "",
          "type": "uint256"
        }
      ],
      "payable": false,
      "stateMutability": "view",
      "type": "function"
    },
    {
      "constant": true,
      "inputs": [],
      "name": "owner",
      "outputs": [
        {
          "name": "",
          "type": "address"
        }
      ],
      "payable": false,
      "stateMutability": "view",
      "type": "function"
    },
    {
      "constant": true,
      "inputs": [],
      "name": "symbol",
      "outputs": [
        {
          "name": "",
          "type": "string"
        }
      ],
      "payable": false,
      "stateMutability": "view",
      "type": "function"
    },
    {
      "constant": true,
      "inputs": [],
      "name": "poolBalance",
      "outputs": [
        {
          "name": "",
          "type": "uint256"
        }
      ],
      "payable": false,
      "stateMutability": "view",
      "type": "function"
    },
    {
      "constant": false,
      "inputs": [
        {
          "name": "_to",
          "type": "address"
        },
        {
          "name": "_value",
          "type": "uint256"
        }
      ],
      "name": "transfer",
      "outputs": [
        {
          "name": "",
          "type": "bool"
        }
      ],
      "payable": false,
      "stateMutability": "nonpayable",
      "type": "function"
    },
    {
      "constant": true,
      "inputs": [],
      "name": "CURVE_RATIO",
      "outputs": [
        {
          "name": "",
          "type": "uint32"
        }
      ],
      "payable": false,
      "stateMutability": "view",
      "type": "function"
    },
    {
      "constant": false,
      "inputs": [
        {
          "name": "_gasPrice",
          "type": "uint256"
        }
      ],
      "name": "setGasPrice",
      "outputs": [],
      "payable": false,
      "stateMutability": "nonpayable",
      "type": "function"
    },
    {
      "constant": false,
      "inputs": [
        {
          "name": "_spender",
          "type": "address"
        },
        {
          "name": "_addedValue",
          "type": "uint256"
        }
      ],
      "name": "increaseApproval",
      "outputs": [
        {
          "name": "",
          "type": "bool"
        }
      ],
      "payable": false,
      "stateMutability": "nonpayable",
      "type": "function"
    },
    {
      "constant": false,
      "inputs": [
        {
          "name": "value",
          "type": "uint256"
        }
      ],
      "name": "buy",
      "outputs": [
        {
          "name": "",
          "type": "bool"
        }
      ],
      "payable": false,
      "stateMutability": "nonpayable",
      "type": "function"
    },
    {
      "constant": true,
      "inputs": [
        {
          "name": "_owner",
          "type": "address"
        },
        {
          "name": "_spender",
          "type": "address"
        }
      ],
      "name": "allowance",
      "outputs": [
        {
          "name": "",
          "type": "uint256"
        }
      ],
      "payable": false,
      "stateMutability": "view",
      "type": "function"
    },
    {
      "constant": false,
      "inputs": [
        {
          "name": "sellAmount",
          "type": "uint256"
        }
      ],
      "name": "sell",
      "outputs": [
        {
          "name": "",
          "type": "bool"
        }
      ],
      "payable": false,
      "stateMutability": "nonpayable",
      "type": "function"
    },
    {
      "constant": false,
      "inputs": [
        {
          "name": "_newOwner",
          "type": "address"
        }
      ],
      "name": "transferOwnership",
      "outputs": [],
      "payable": false,
      "stateMutability": "nonpayable",
      "type": "function"
    },
    {
      "constant": true,
      "inputs": [],
      "name": "reserveToken",
      "outputs": [
        {
          "name": "",
          "type": "address"
        }
      ],
      "payable": false,
      "stateMutability": "view",
      "type": "function"
    },
    {
      "constant": true,
      "inputs": [],
      "name": "gasPrice",
      "outputs": [
        {
          "name": "",
          "type": "uint256"
        }
      ],
      "payable": false,
      "stateMutability": "view",
      "type": "function"
    },
    {
      "inputs": [
        {
          "name": "reserveTokenAddr",
          "type": "address"
        }
      ],
      "payable": false,
      "stateMutability": "nonpayable",
      "type": "constructor"
    },
    {
      "anonymous": false,
      "inputs": [
        {
          "indexed": false,
          "name": "sender",
          "type": "address"
        },
        {
          "indexed": false,
          "name": "amountMinted",
          "type": "uint256"
        },
        {
          "indexed": false,
          "name": "totalCost",
          "type": "uint256"
        }
      ],
      "name": "LogMint",
      "type": "event"
    },
    {
      "anonymous": false,
      "inputs": [
        {
          "indexed": false,
          "name": "sender",
          "type": "address"
        },
        {
          "indexed": false,
          "name": "amountWithdrawn",
          "type": "uint256"
        },
        {
          "indexed": false,
          "name": "reward",
          "type": "uint256"
        }
      ],
      "name": "LogWithdraw",
      "type": "event"
    },
    {
      "anonymous": false,
      "inputs": [
        {
          "indexed": false,
          "name": "sender",
          "type": "address"
        },
        {
          "indexed": false,
          "name": "logString",
          "type": "string"
        },
        {
          "indexed": false,
          "name": "value",
          "type": "uint256"
        }
      ],
      "name": "LogBondingCurve",
      "type": "event"
    },
    {
      "anonymous": false,
      "inputs": [
        {
          "indexed": true,
          "name": "previousOwner",
          "type": "address"
        }
      ],
      "name": "OwnershipRenounced",
      "type": "event"
    },
    {
      "anonymous": false,
      "inputs": [
        {
          "indexed": true,
          "name": "previousOwner",
          "type": "address"
        },
        {
          "indexed": true,
          "name": "newOwner",
          "type": "address"
        }
      ],
      "name": "OwnershipTransferred",
      "type": "event"
    },
    {
      "anonymous": false,
      "inputs": [
        {
          "indexed": true,
          "name": "owner",
          "type": "address"
        },
        {
          "indexed": true,
          "name": "spender",
          "type": "address"
        },
        {
          "indexed": false,
          "name": "value",
          "type": "uint256"
        }
      ],
      "name": "Approval",
      "type": "event"
    },
    {
      "anonymous": false,
      "inputs": [
        {
          "indexed": true,
          "name": "from",
          "type": "address"
        },
        {
          "indexed": true,
          "name": "to",
          "type": "address"
        },
        {
          "indexed": false,
          "name": "value",
          "type": "uint256"
        }
      ],
      "name": "Transfer",
      "type": "event"
    },
    {
      "constant": false,
      "inputs": [
        {
          "name": "value",
          "type": "uint256"
        }
      ],
      "name": "depositArtPayment",
      "outputs": [],
      "payable": false,
      "stateMutability": "nonpayable",
      "type": "function"
    }
  ],
  "bytecode": "0x60c0604052600360808190527f302e33000000000000000000000000000000000000000000000000000000000060a09081526200003e919081620008cf565b506040805180820190915260038082527f302e33000000000000000000000000000000000000000000000000000000000060209092019182526200008591608491620008cf565b5060006088553480156200009857600080fd5b506040516020806200248083398101604090815290516001606060020a641c35fedd1502036024556001605e60020a646c3390ecc902036025556001606160020a640cf801476102036026556001605f60020a6431bdb23e1d02036027556001605b60020a6502fb1d8fe08302036028556001605a60020a6505b771955b3702036029556001605960020a650af67a93bb510203602a556001605860020a6515060c256cb30203602b556001605860020a651428a2f98d730203602c556001605660020a654d51566397090203602d556001605560020a65944620b0e70f0203602e557011c592761c666fffffffffffffffffffff602f5570110a688680a757ffffffffffffffffffff603055701056f1b5bedf77ffffffffffffffffffff603155700faadceceeff8bffffffffffffffffffff603255700f05dc6b27edadffffffffffffffffffff603355700e67a5a25da4107fffffffffffffffffff603455700dcff115b14eedffffffffffffffffffff603555700d3e7a392431239fffffffffffffffffff603655700cb2ff529eb71e4fffffffffffffffffff603755700c2d415c3db974afffffffffffffffffff603855700bad03e7d883f69bffffffffffffffffff603955700b320d03b2c343d5ffffffffffffffffff603a55700abc25204e02828dffffffffffffffffff603b55700a4b16f74ee4bb207fffffffffffffffff603c557009deaf736ac1f569ffffffffffffffffff603d55700976bd9952c7aa957fffffffffffffffff603e557009131271922eaa606fffffffffffffffff603f557008b380f3558668c46fffffffffffffffff909155700857ddf0117efa215bffffffffffffffff6041556001608360020a036042557007abbf6f6abb9d087fffffffffffffffff60435570075af62cbac95f7dfa7fffffffffffffff60445570070d7fb7452e187ac13fffffffffffffff6045557006c3390ecc8af379295fffffffffffffff60465570067c00a3b07ffc01fd6fffffffffffffff604755700637b647c39cbb9d3d27ffffffffffffff6048557005f63b1fc104dbd39587ffffffffffffff6049557005b771955b36e12f7235ffffffffffffff604a5570057b3d49dda84556d6f6ffffffffffffff604b5570054183095b2c8ececf30ffffffffffffff604c5570050a28be635ca2b888f77fffffffffffff604d557004d5156639708c9db33c3fffffffffffff604e557004a23105873875bd52dfdfffffffffffff604f55700471649d87199aa990756fffffffffffff6050557004429a21a029d4c1457cfbffffffffffff605155700415bc6d6fb7dd71af2cb3ffffffffffff6052557003eab73b3bbfe282243ce1ffffffffffff6053557003c1771ac9fb6b4c18e229ffffffffffff605455700399e96897690418f785257fffffffffff605555700373fc456c53bb779bf0ea9fffffffffff60565570034f9e8e490c48e67e6ab8bfffffffffff60575570032cbfd4a7adc790560b3337ffffffffff60585570030b50570f6e5d2acca94613ffffffffff6059557002eb40f9f620fda6b56c2861ffffffffff605a557002cc8340ecb0d0f520a6af58ffffffffff605b557002af09481380a0a35cf1ba02ffffffffff605c55700292c5bdd3b92ec810287b1b3fffffffff605d55700277abdcdab07d5a77ac6d6b9fffffffff605e5570025daf6654b1eaa55fd64df5efffffffff605f55700244c49c648baa98192dce88b7ffffffff60605570022ce03cd5619a311b2471268bffffffff606155700215f77c045fbe885654a44a0fffffffff6062556001608160020a036063557001eaefdbdaaee7421fc4d3ede5ffffffff6064557001d6bd8b2eb257df7e8ca57b09bfffffff6065557001c35fedd14b861eb0443f7f133fffffff6066557001b0ce43b322bcde4a56e8ada5afffffff60675570019f0028ec1fff007f5a195a39dfffffff60685570018ded91f0e72ee74f49b15ba527ffffff60695570017d8ec7f04136f4e5615fd41a63ffffff606a5570016ddc6556cdb84bdc8d12d22e6fffffff606b5570015ecf52776a1155b5bd8395814f7fffff606c5570015060c256cb23b3b3cc3754cf40ffffff606d557001428a2f98d728ae223ddab715be3fffff606e5570013545598e5c23276ccf0ede68034fffff606f557001288c4161ce1d6f54b7f61081194fffff60705570011c592761c666aa641d5a01a40f17ffff607155700110a688680a7530515f3e6e6cfdcdffff6072557001056f1b5bedf75c6bcb2ce8aed428ffff6073556ffaadceceeff8a0890f3875f008277fff6074556ff05dc6b27edad306388a600f6ba0bfff6075556fe67a5a25da41063de1495d5b18cdbfff6076556fdcff115b14eedde6fc3aa5353f2e4fff6077556fd3e7a3924312399f9aae2e0f868f8fff6078556fcb2ff529eb71e41582cccd5a1ee26fff6079556fc2d415c3db974ab32a51840c0b67edff607a556fbad03e7d883f69ad5b0a186184e06bff607b556fb320d03b2c343d4829abd6075f0cc5ff607c556fabc25204e02828d73c6e80bcdb1a95bf607d556fa4b16f74ee4bb2040a1ec6c15fbbf2df607e556f9deaf736ac1f569deb1b5ae3f36c130f607f556f976bd9952c7aa957f5937d790ef650376080556f9131271922eaa6064b73a22d0bd4f2bf6081556f8b380f3558668c46c91c49a2f8e967b96082556f857ddf0117efa215952912839f6473e66083556085805433600160a060020a03199182161790915560878054909116600160a060020a039092169190911760a060020a63ffffffff0219167605573000000000000000000000000000000000000000001790556a01a784379d99db42000000600155693b4ad496106b7f00000060865564060db8840060885562000974565b828054600181600116156101000203166002900490600052602060002090601f016020900481019282601f106200091257805160ff191683800117855562000942565b8280016001018555821562000942579182015b828111156200094257825182559160200191906001019062000925565b506200095092915062000954565b5090565b6200097191905b808211156200095057600081556001016200095b565b90565b611afc80620009846000396000f3006080604052600436106101745763ffffffff7c010000000000000000000000000000000000000000000000000000000060003504166306fdde038114610179578063095ea7b3146102035780630c7d5cd81461023b57806318160ddd1461026957806323b872dd14610290578063269e3592146102ba57806329a00e7c146102cf5780632ff2e9dc146102f6578063313ce5671461030b578063373b396d1461033657806349f9b0f71461035057806354fd4d5014610377578063661884631461038c57806370a08231146103b0578063715018a6146103d15780637c5e2795146103e65780638da5cb5b146103fb57806395d89b411461042c57806396365d4414610441578063a9059cbb14610456578063b1741fb21461047a578063bf1fe4201461048f578063d73dd623146104a7578063d96a094a146104cb578063dd62ed3e146104e3578063e4849b321461050a578063f2fde38b14610522578063f4325d6714610543578063fe173b9714610558575b600080fd5b34801561018557600080fd5b5061018e61056d565b6040805160208082528351818301528351919283929083019185019080838360005b838110156101c85781810151838201526020016101b0565b50505050905090810190601f1680156101f55780820380516001836020036101000a031916815260200191505b509250505060405180910390f35b34801561020f57600080fd5b50610227600160a060020a03600435166024356105a4565b604080519115158252519081900360200190f35b34801561024757600080fd5b5061025061060b565b6040805163ffffffff9092168252519081900360200190f35b34801561027557600080fd5b5061027e61062f565b60408051918252519081900360200190f35b34801561029c57600080fd5b50610227600160a060020a0360043581169060243516604435610635565b3480156102c657600080fd5b5061027e6107aa565b3480156102db57600080fd5b5061027e60043560243563ffffffff604435166064356107b8565b34801561030257600080fd5b5061027e61089d565b34801561031757600080fd5b506103206108ac565b6040805160ff9092168252519081900360200190f35b34801561034257600080fd5b5061034e6004356108b1565b005b34801561035c57600080fd5b5061027e60043560243563ffffffff604435166064356109c8565b34801561038357600080fd5b5061018e610ac4565b34801561039857600080fd5b50610227600160a060020a0360043516602435610b52565b3480156103bc57600080fd5b5061027e600160a060020a0360043516610c41565b3480156103dd57600080fd5b5061034e610c5c565b3480156103f257600080fd5b5061027e610cca565b34801561040757600080fd5b50610410610cd6565b60408051600160a060020a039092168252519081900360200190f35b34801561043857600080fd5b5061018e610ce5565b34801561044d57600080fd5b5061027e610d1c565b34801561046257600080fd5b50610227600160a060020a0360043516602435610d22565b34801561048657600080fd5b50610250610e01565b34801561049b57600080fd5b5061034e600435610e08565b3480156104b357600080fd5b50610227600160a060020a0360043516602435610e31565b3480156104d757600080fd5b50610227600435610eca565b3480156104ef57600080fd5b5061027e600160a060020a03600435811690602435166110be565b34801561051657600080fd5b506102276004356110e9565b34801561052e57600080fd5b5061034e600160a060020a03600435166112f4565b34801561054f57600080fd5b50610410611317565b34801561056457600080fd5b5061027e611326565b60408051808201909152600981527f536f756c546f6b656e0000000000000000000000000000000000000000000000602082015281565b336000818152600260209081526040808320600160a060020a038716808552908352818420869055815186815291519394909390927f8c5be1e5ebec7d5bd14f71427d1e84f3dd0314c0f7b2291e5b200ac8c7c3b925928290030190a35060015b92915050565b60875474010000000000000000000000000000000000000000900463ffffffff1681565b60015490565b600160a060020a03831660009081526020819052604081205482111561065a57600080fd5b600160a060020a038416600090815260026020908152604080832033845290915290205482111561068a57600080fd5b600160a060020a038316151561069f57600080fd5b600160a060020a0384166000908152602081905260409020546106c8908363ffffffff61132c16565b600160a060020a0380861660009081526020819052604080822093909355908516815220546106fd908363ffffffff61133e16565b600160a060020a0380851660009081526020818152604080832094909455918716815260028252828120338252909152205461073f908363ffffffff61132c16565b600160a060020a03808616600081815260026020908152604080832033845282529182902094909455805186815290519287169391927fddf252ad1be2c89b69c2b068fc378daa952ba7f163c4a11628f55a4df523b3ef929181900390910190a35060019392505050565b693b4ad496106b7f00000081565b600080600080600080891180156107cf5750600088115b80156107e1575060008763ffffffff16115b80156107f65750620f424063ffffffff881611155b151561080157600080fd5b8515156108115760009450610891565b63ffffffff8716620f4240141561084957610842886108368b8963ffffffff61134b16565b9063ffffffff61137416565b9450610891565b610859868963ffffffff61133e16565b915061086a828989620f4240611389565b909450925060ff83166108838a8663ffffffff61134b16565b9060020a9004905088810394505b50505050949350505050565b6a01a784379d99db4200000081565b601281565b608754604080517f23b872dd000000000000000000000000000000000000000000000000000000008152336004820152306024820152604481018490529051600160a060020a03909216916323b872dd916064808201926020929091908290030181600087803b15801561092457600080fd5b505af1158015610938573d6000803e3d6000fd5b505050506040513d602081101561094e57600080fd5b505115156109bd57604080517f08c379a000000000000000000000000000000000000000000000000000000000815260206004820152601660248201527f746f6b656e207472616e73666572206661696c75726500000000000000000000604482015290519081900360640190fd5b608680549091019055565b60008060008060008060008a1180156109e15750600089115b80156109f3575060008863ffffffff16115b8015610a085750620f424063ffffffff891611155b8015610a145750898711155b1515610a1f57600080fd5b861515610a2f5760009550610ab7565b89871415610a3f57889550610ab7565b63ffffffff8816620f42401415610a6b57610a648a6108368b8a63ffffffff61134b16565b9550610ab7565b868a039250610a7f8a84620f42408b611389565b9095509350610a94898663ffffffff61134b16565b91505060ff831660020a8802610ab485610836848463ffffffff61132c16565b95505b5050505050949350505050565b6084805460408051602060026001851615610100026000190190941693909304601f81018490048402820184019092528181529291830182828015610b4a5780601f10610b1f57610100808354040283529160200191610b4a565b820191906000526020600020905b815481529060010190602001808311610b2d57829003601f168201915b505050505081565b336000908152600260209081526040808320600160a060020a0386168452909152812054808310610ba657336000908152600260209081526040808320600160a060020a0388168452909152812055610bdb565b610bb6818463ffffffff61132c16565b336000908152600260209081526040808320600160a060020a03891684529091529020555b336000818152600260209081526040808320600160a060020a0389168085529083529281902054815190815290519293927f8c5be1e5ebec7d5bd14f71427d1e84f3dd0314c0f7b2291e5b200ac8c7c3b925929181900390910190a35060019392505050565b600160a060020a031660009081526020819052604090205490565b608554600160a060020a03163314610c7357600080fd5b608554604051600160a060020a03909116907ff8df31144d9c2f0f6b59d69b8b98abd5459d07f2742c4df920b25aae33c6482090600090a26085805473ffffffffffffffffffffffffffffffffffffffff19169055565b67058d15e17628000081565b608554600160a060020a031681565b60408051808201909152600381527f534f4c0000000000000000000000000000000000000000000000000000000000602082015281565b60865481565b33600090815260208190526040812054821115610d3e57600080fd5b600160a060020a0383161515610d5357600080fd5b33600090815260208190526040902054610d73908363ffffffff61132c16565b3360009081526020819052604080822092909255600160a060020a03851681522054610da5908363ffffffff61133e16565b600160a060020a038416600081815260208181526040918290209390935580518581529051919233927fddf252ad1be2c89b69c2b068fc378daa952ba7f163c4a11628f55a4df523b3ef9281900390910190a350600192915050565b6205573081565b608554600160a060020a03163314610e1f57600080fd5b60008111610e2c57600080fd5b608855565b336000908152600260209081526040808320600160a060020a0386168452909152812054610e65908363ffffffff61133e16565b336000818152600260209081526040808320600160a060020a0389168085529083529281902085905580519485525191937f8c5be1e5ebec7d5bd14f71427d1e84f3dd0314c0f7b2291e5b200ac8c7c3b925929081900390910190a350600192915050565b6000806088543a11151515610edb57fe5b60008311610ee857600080fd5b608754604080517f23b872dd000000000000000000000000000000000000000000000000000000008152336004820152306024820152604481018690529051600160a060020a03909216916323b872dd916064808201926020929091908290030181600087803b158015610f5b57600080fd5b505af1158015610f6f573d6000803e3d6000fd5b505050506040513d6020811015610f8557600080fd5b50511515610ff457604080517f08c379a000000000000000000000000000000000000000000000000000000000815260206004820152601660248201527f746f6b656e207472616e73666572206661696c75726500000000000000000000604482015290519081900360640190fd5b611016600154608654608760149054906101000a900463ffffffff16866107b8565b60015490915061102c908263ffffffff61133e16565b6001553360009081526020819052604090205461104f908263ffffffff61133e16565b33600090815260208190526040902055608654611072908463ffffffff61133e16565b608655604080513381526020810183905280820185905290517fa82a7ea15c804d00dba1b969024b510969fde70fac8e0d5da860cf1f7376d3179181900360600190a150600192915050565b600160a060020a03918216600090815260026020908152604080832093909416825291909152205490565b6000806088543a111515156110fa57fe5b6000831180156111195750336000908152602081905260409020548311155b151561112457600080fd5b611146600154608654608760149054906101000a900463ffffffff16866109c8565b608754604080517fa9059cbb000000000000000000000000000000000000000000000000000000008152336004820152602481018490529051929350600160a060020a039091169163a9059cbb916044808201926020929091908290030181600087803b1580156111b657600080fd5b505af11580156111ca573d6000803e3d6000fd5b505050506040513d60208110156111e057600080fd5b5051151561124f57604080517f08c379a000000000000000000000000000000000000000000000000000000000815260206004820152601660248201527f746f6b656e207472616e73666572206661696c75726500000000000000000000604482015290519081900360640190fd5b608654611262908263ffffffff61132c16565b60865533600090815260208190526040902054611285908463ffffffff61132c16565b336000908152602081905260409020556001546112a8908463ffffffff61132c16565b600155604080513381526020810185905280820183905290517fda9a10d7b992511ddadbfc7ff712c1424ce2058bbcdac8c9876d6f8de590d43f9181900360600190a150600192915050565b608554600160a060020a0316331461130b57600080fd5b611314816113e2565b50565b608754600160a060020a031681565b60885481565b60008282111561133857fe5b50900390565b8181018281101561060557fe5b600082151561135c57506000610605565b5081810281838281151561136c57fe5b041461060557fe5b6000818381151561138157fe5b049392505050565b6000806000808463ffffffff168663ffffffff166113a78a8a611460565b028115156113b157fe5b0491506113bd826115a3565b90506113d560ff607f8390031660020a83048261163a565b9890975095505050505050565b600160a060020a03811615156113f757600080fd5b608554604051600160a060020a038084169216907f8be0079c531659141344cd1fd0a4f28419497f9722a3daafe3b4186f6b6457e090600090a36085805473ffffffffffffffffffffffffffffffffffffffff1916600160a060020a0392909216919091179055565b6000808080807001ffffffffffffffffffffffffffffffff87111561148157fe5b60009350856f8000000000000000000000000000000088028115156114a257fe5b04925070010000000000000000000000000000000083106114fb576114d86f800000000000000000000000000000008404611a5d565b60ff81166f800000000000000000000000000000008102955060020a9093049291505b6f800000000000000000000000000000008311156115725750607f5b60008160ff161115611572576f8000000000000000000000000000000083800204925070010000000000000000000000000000000083106115695760ff600019820116600290810a9490940193909204915b60001901611517565b6f040000000000000000000000000000006f02c5c85fdf473de6af278ece600fcbda85020494505050505092915050565b60006020607f825b8160ff168360010160ff1610156115f057600260ff8484011604905084600460ff8316608081106115d857fe5b0154106115e7578092506115eb565b8091505b6115ab565b84600460ff84166080811061160157fe5b01541061161057819350611632565b84600460ff85166080811061162157fe5b01541061163057829350611632565bfe5b505050919050565b6000806000849150600090508360ff168583029060020a90049150816f03442c4e6074a82f1797f72ac000000002810190508360ff168583029060020a90049150816f0116b96f757c380fb287fd0e4000000002810190508360ff168583029060020a90049150816e45ae5bdd5f0e03eca1ff439000000002810190508360ff168583029060020a90049150816e0defabf91302cd95b9ffda5000000002810190508360ff168583029060020a90049150816e02529ca9832b22439efff9b800000002810190508360ff168583029060020a90049150816d54f1cf12bd04e516b6da8800000002810190508360ff168583029060020a90049150816d0a9e39e257a09ca2d6db5100000002810190508360ff168583029060020a90049150816d012e066e7b839fa050c30900000002810190508360ff168583029060020a90049150816c1e33d7d926c329a1ad1a80000002810190508360ff168583029060020a90049150816c02bee513bdb4a6b19b5f80000002810190508360ff168583029060020a90049150816b3a9316fa79b88eccf2a0000002810190508360ff168583029060020a90049150816b048177ebe1fa81237520000002810190508360ff168583029060020a90049150816a5263fe90242dcbacf0000002810190508360ff168583029060020a90049150816a057e22099c030d9410000002810190508360ff168583029060020a90049150816957e22099c030d941000002810190508360ff168583029060020a900491508169052b6b5456997631000002810190508360ff168583029060020a9004915081684985f67696bf74800002810190508360ff168583029060020a90049150816803dea12ea99e49800002810190508360ff168583029060020a90049150816731880f2214b6e00002810190508360ff168583029060020a900491508167025bcff56eb3600002810190508360ff168583029060020a9004915081661b722e10ab100002810190508360ff168583029060020a90049150816601317c7007700002810190508360ff168583029060020a9004915081650cba84aafa0002810190508360ff168583029060020a90049150816482573a0a0002810190508360ff168583029060020a90049150816405035ad90002810190508360ff168583029060020a9004915081632f881b0002810190508360ff168583029060020a90049150816301b2934002810190508360ff168583029060020a9004915081620efc4002810190508360ff168583029060020a9004915081617fe002810190508360ff168583029060020a900491508161042002810190508360ff168583029060020a9004915081602102810190508360ff168583029060020a9004915081600102810190508360ff1660019060020a02856f0688589cc0e9505e2f2fee558000000083811515611a5157fe5b04010195945050505050565b6000808281610100821015611a8d575b6001821115611a885760019290920191600290910490611a6d565b611ac7565b5060805b60008160ff161115611ac75760ff811660020a8210611aba579182179160ff811660020a909104905b600260ff90911604611a91565b509093925050505600a165627a7a72305820ae32b70236ac64f99ec53054b006a21d460234fa1eddb2b1ebac594df8f6e9eb0029",
  "source": "pragma solidity ^0.4.24;\n\nimport \"./Erc20BondingCurve.sol\";\n\ncontract SoulToken is Erc20BondingCurve {\n  string public constant name = \"SoulToken\";\n  string public constant symbol = \"SOL\";\n  uint8 public constant decimals = 18;\n\n  uint256 public constant INITIAL_SUPPLY = 2000000 * (10 ** 18);\n  uint256 public constant INITIAL_PRICE = 40 * (10 ** 16);\n  uint32 public constant CURVE_RATIO = 350000;\n  uint256 public constant INITAL_BALANCE = CURVE_RATIO * INITIAL_SUPPLY * INITIAL_PRICE / (1000000 * 10 ** 18);\n\n  constructor(address reserveTokenAddr) public Erc20BondingCurve(reserveTokenAddr) {\n    reserveRatio = CURVE_RATIO;\n    totalSupply_ = INITIAL_SUPPLY;\n    poolBalance = INITAL_BALANCE;\n    gasPrice = 26 * (10 ** 9);\n  }\n\n  function depositArtPayment(uint256 value) public {\n    require(reserveToken.transferFrom(msg.sender, this, value), \"token transfer failure\");\n    poolBalance += value;\n  }\n}",
  "sourcePath": "/Users/nickreynolds/Artonomous/artonomous/packages/contracts/contracts/tokens/SoulToken.sol",
  "compiler": {
    "name": "solc",
    "version": "0.4.24+commit.e67f0147.Emscripten.clang"
  },
  "schemaVersion": "2.0.1",
  "updatedAt": "2018-12-27T21:24:49.540Z"
}