{
  "contractName": "TestDaiToken",
  "abi": [
    {
      "constant": true,
      "inputs": [],
      "name": "name",
      "outputs": [
        {
          "name": "",
          "type": "string"
        }
      ],
      "payable": false,
      "stateMutability": "view",
      "type": "function"
    },
    {
      "constant": false,
      "inputs": [
        {
          "name": "_spender",
          "type": "address"
        },
        {
          "name": "_value",
          "type": "uint256"
        }
      ],
      "name": "approve",
      "outputs": [
        {
          "name": "",
          "type": "bool"
        }
      ],
      "payable": false,
      "stateMutability": "nonpayable",
      "type": "function"
    },
    {
      "constant": true,
      "inputs": [],
      "name": "totalSupply",
      "outputs": [
        {
          "name": "",
          "type": "uint256"
        }
      ],
      "payable": false,
      "stateMutability": "view",
      "type": "function"
    },
    {
      "constant": false,
      "inputs": [
        {
          "name": "_from",
          "type": "address"
        },
        {
          "name": "_to",
          "type": "address"
        },
        {
          "name": "_value",
          "type": "uint256"
        }
      ],
      "name": "transferFrom",
      "outputs": [
        {
          "name": "",
          "type": "bool"
        }
      ],
      "payable": false,
      "stateMutability": "nonpayable",
      "type": "function"
    },
    {
      "constant": true,
      "inputs": [],
      "name": "decimals",
      "outputs": [
        {
          "name": "",
          "type": "uint8"
        }
      ],
      "payable": false,
      "stateMutability": "view",
      "type": "function"
    },
    {
      "constant": false,
      "inputs": [
        {
          "name": "_spender",
          "type": "address"
        },
        {
          "name": "_subtractedValue",
          "type": "uint256"
        }
      ],
      "name": "decreaseApproval",
      "outputs": [
        {
          "name": "",
          "type": "bool"
        }
      ],
      "payable": false,
      "stateMutability": "nonpayable",
      "type": "function"
    },
    {
      "constant": true,
      "inputs": [
        {
          "name": "_owner",
          "type": "address"
        }
      ],
      "name": "balanceOf",
      "outputs": [
        {
          "name": "",
          "type": "uint256"
        }
      ],
      "payable": false,
      "stateMutability": "view",
      "type": "function"
    },
    {
      "constant": true,
      "inputs": [],
      "name": "symbol",
      "outputs": [
        {
          "name": "",
          "type": "string"
        }
      ],
      "payable": false,
      "stateMutability": "view",
      "type": "function"
    },
    {
      "constant": false,
      "inputs": [
        {
          "name": "_to",
          "type": "address"
        },
        {
          "name": "_value",
          "type": "uint256"
        }
      ],
      "name": "transfer",
      "outputs": [
        {
          "name": "",
          "type": "bool"
        }
      ],
      "payable": false,
      "stateMutability": "nonpayable",
      "type": "function"
    },
    {
      "constant": false,
      "inputs": [
        {
          "name": "_spender",
          "type": "address"
        },
        {
          "name": "_addedValue",
          "type": "uint256"
        }
      ],
      "name": "increaseApproval",
      "outputs": [
        {
          "name": "",
          "type": "bool"
        }
      ],
      "payable": false,
      "stateMutability": "nonpayable",
      "type": "function"
    },
    {
      "constant": true,
      "inputs": [
        {
          "name": "_owner",
          "type": "address"
        },
        {
          "name": "_spender",
          "type": "address"
        }
      ],
      "name": "allowance",
      "outputs": [
        {
          "name": "",
          "type": "uint256"
        }
      ],
      "payable": false,
      "stateMutability": "view",
      "type": "function"
    },
    {
      "constant": true,
      "inputs": [],
      "name": "initialAmount",
      "outputs": [
        {
          "name": "",
          "type": "uint256"
        }
      ],
      "payable": false,
      "stateMutability": "view",
      "type": "function"
    },
    {
      "inputs": [],
      "payable": false,
      "stateMutability": "nonpayable",
      "type": "constructor"
    },
    {
      "anonymous": false,
      "inputs": [
        {
          "indexed": true,
          "name": "owner",
          "type": "address"
        },
        {
          "indexed": true,
          "name": "spender",
          "type": "address"
        },
        {
          "indexed": false,
          "name": "value",
          "type": "uint256"
        }
      ],
      "name": "Approval",
      "type": "event"
    },
    {
      "anonymous": false,
      "inputs": [
        {
          "indexed": true,
          "name": "from",
          "type": "address"
        },
        {
          "indexed": true,
          "name": "to",
          "type": "address"
        },
        {
          "indexed": false,
          "name": "value",
          "type": "uint256"
        }
      ],
      "name": "Transfer",
      "type": "event"
    }
  ],
  "bytecode": "0x608060405234801561001057600080fd5b503360009081526020819052604090206a295be96e64066972000000905561083b8061003d6000396000f3006080604052600436106100b95763ffffffff7c010000000000000000000000000000000000000000000000000000000060003504166306fdde0381146100be578063095ea7b31461014857806318160ddd1461018057806323b872dd146101a7578063313ce567146101d157806366188463146101fc57806370a082311461022057806395d89b4114610241578063a9059cbb14610256578063d73dd6231461027a578063dd62ed3e1461029e578063fc1ed437146102c5575b600080fd5b3480156100ca57600080fd5b506100d36102da565b6040805160208082528351818301528351919283929083019185019080838360005b8381101561010d5781810151838201526020016100f5565b50505050905090810190601f16801561013a5780820380516001836020036101000a031916815260200191505b509250505060405180910390f35b34801561015457600080fd5b5061016c600160a060020a0360043516602435610311565b604080519115158252519081900360200190f35b34801561018c57600080fd5b50610195610377565b60408051918252519081900360200190f35b3480156101b357600080fd5b5061016c600160a060020a036004358116906024351660443561037d565b3480156101dd57600080fd5b506101e66104f2565b6040805160ff9092168252519081900360200190f35b34801561020857600080fd5b5061016c600160a060020a03600435166024356104f7565b34801561022c57600080fd5b50610195600160a060020a03600435166105e6565b34801561024d57600080fd5b506100d3610601565b34801561026257600080fd5b5061016c600160a060020a0360043516602435610638565b34801561028657600080fd5b5061016c600160a060020a0360043516602435610717565b3480156102aa57600080fd5b50610195600160a060020a03600435811690602435166107b0565b3480156102d157600080fd5b506101956107db565b60408051808201909152600781527f5465737444616900000000000000000000000000000000000000000000000000602082015281565b336000818152600260209081526040808320600160a060020a038716808552908352818420869055815186815291519394909390927f8c5be1e5ebec7d5bd14f71427d1e84f3dd0314c0f7b2291e5b200ac8c7c3b925928290030190a350600192915050565b60015490565b600160a060020a0383166000908152602081905260408120548211156103a257600080fd5b600160a060020a03841660009081526002602090815260408083203384529091529020548211156103d257600080fd5b600160a060020a03831615156103e757600080fd5b600160a060020a038416600090815260208190526040902054610410908363ffffffff6107ea16565b600160a060020a038086166000908152602081905260408082209390935590851681522054610445908363ffffffff6107fc16565b600160a060020a03808516600090815260208181526040808320949094559187168152600282528281203382529091522054610487908363ffffffff6107ea16565b600160a060020a03808616600081815260026020908152604080832033845282529182902094909455805186815290519287169391927fddf252ad1be2c89b69c2b068fc378daa952ba7f163c4a11628f55a4df523b3ef929181900390910190a35060019392505050565b601281565b336000908152600260209081526040808320600160a060020a038616845290915281205480831061054b57336000908152600260209081526040808320600160a060020a0388168452909152812055610580565b61055b818463ffffffff6107ea16565b336000908152600260209081526040808320600160a060020a03891684529091529020555b336000818152600260209081526040808320600160a060020a0389168085529083529281902054815190815290519293927f8c5be1e5ebec7d5bd14f71427d1e84f3dd0314c0f7b2291e5b200ac8c7c3b925929181900390910190a35060019392505050565b600160a060020a031660009081526020819052604090205490565b60408051808201909152600481527f5444414900000000000000000000000000000000000000000000000000000000602082015281565b3360009081526020819052604081205482111561065457600080fd5b600160a060020a038316151561066957600080fd5b33600090815260208190526040902054610689908363ffffffff6107ea16565b3360009081526020819052604080822092909255600160a060020a038516815220546106bb908363ffffffff6107fc16565b600160a060020a038416600081815260208181526040918290209390935580518581529051919233927fddf252ad1be2c89b69c2b068fc378daa952ba7f163c4a11628f55a4df523b3ef9281900390910190a350600192915050565b336000908152600260209081526040808320600160a060020a038616845290915281205461074b908363ffffffff6107fc16565b336000818152600260209081526040808320600160a060020a0389168085529083529281902085905580519485525191937f8c5be1e5ebec7d5bd14f71427d1e84f3dd0314c0f7b2291e5b200ac8c7c3b925929081900390910190a350600192915050565b600160a060020a03918216600090815260026020908152604080832093909416825291909152205490565b6a295be96e6406697200000081565b6000828211156107f657fe5b50900390565b8181018281101561080957fe5b929150505600a165627a7a72305820050206096ff19f7e4731c9ab7894ced914d88a44a1a671f9d4f503a024a4d8a40029",
  "source": "pragma solidity ^0.4.24;\n\nimport \"openzeppelin-solidity/contracts/token/ERC20/StandardToken.sol\";\n\ncontract TestDaiToken is StandardToken {\n  string public constant name = \"TestDai\";\n  string public constant symbol = \"TDAI\";\n  uint8 public constant decimals = 18;\n  uint256 public constant initialAmount = 50000000000000000000000000;\n\n  constructor() public StandardToken() {\n    balances[msg.sender] = initialAmount;\n  }\n}",
  "sourcePath": "/Users/nickreynolds/Artonomous/artonomous/packages/contracts/contracts/tokens/TestDaiToken.sol",
  "compiler": {
    "name": "solc",
    "version": "0.4.24+commit.e67f0147.Emscripten.clang"
  },
  "schemaVersion": "2.0.1",
  "updatedAt": "2018-12-24T02:53:52.467Z"
}